{
  "contractName": "DistTokenGovernance",
  "abi": [
    {
      "anonymous": false,
      "inputs": [
        {
          "indexed": true,
          "internalType": "address",
          "name": "owner",
          "type": "address"
        },
        {
          "indexed": true,
          "internalType": "address",
          "name": "spender",
          "type": "address"
        },
        {
          "indexed": false,
          "internalType": "uint256",
          "name": "value",
          "type": "uint256"
        }
      ],
      "name": "Approval",
      "type": "event"
    },
    {
      "anonymous": false,
      "inputs": [
        {
          "indexed": true,
          "internalType": "address",
          "name": "previousOwner",
          "type": "address"
        },
        {
          "indexed": true,
          "internalType": "address",
          "name": "newOwner",
          "type": "address"
        }
      ],
      "name": "OwnershipTransferred",
      "type": "event"
    },
    {
      "anonymous": false,
      "inputs": [
        {
          "indexed": false,
          "internalType": "address",
          "name": "account",
          "type": "address"
        }
      ],
      "name": "Paused",
      "type": "event"
    },
    {
      "anonymous": false,
      "inputs": [
        {
          "indexed": true,
          "internalType": "address",
          "name": "account",
          "type": "address"
        }
      ],
      "name": "PauserAdded",
      "type": "event"
    },
    {
      "anonymous": false,
      "inputs": [
        {
          "indexed": true,
          "internalType": "address",
          "name": "account",
          "type": "address"
        }
      ],
      "name": "PauserRemoved",
      "type": "event"
    },
    {
      "anonymous": false,
      "inputs": [
        {
          "indexed": false,
          "internalType": "address",
          "name": "_rebalancer",
          "type": "address"
        },
        {
          "indexed": false,
          "internalType": "uint256",
          "name": "_amount",
          "type": "uint256"
        }
      ],
      "name": "Rebalance",
      "type": "event"
    },
    {
      "anonymous": false,
      "inputs": [
        {
          "indexed": false,
          "internalType": "uint256",
          "name": "_amount",
          "type": "uint256"
        },
        {
          "indexed": false,
          "internalType": "address",
          "name": "_ref",
          "type": "address"
        }
      ],
      "name": "Referral",
      "type": "event"
    },
    {
      "anonymous": false,
      "inputs": [
        {
          "indexed": true,
          "internalType": "address",
          "name": "from",
          "type": "address"
        },
        {
          "indexed": true,
          "internalType": "address",
          "name": "to",
          "type": "address"
        },
        {
          "indexed": false,
          "internalType": "uint256",
          "name": "value",
          "type": "uint256"
        }
      ],
      "name": "Transfer",
      "type": "event"
    },
    {
      "anonymous": false,
      "inputs": [
        {
          "indexed": false,
          "internalType": "address",
          "name": "account",
          "type": "address"
        }
      ],
      "name": "Unpaused",
      "type": "event"
    },
    {
      "constant": true,
      "inputs": [],
      "name": "COMP",
      "outputs": [
        {
          "internalType": "address",
          "name": "",
          "type": "address"
        }
      ],
      "payable": false,
      "stateMutability": "view",
      "type": "function"
    },
    {
      "constant": true,
      "inputs": [],
      "name": "DIST",
      "outputs": [
        {
          "internalType": "address",
          "name": "",
          "type": "address"
        }
      ],
      "payable": false,
      "stateMutability": "view",
      "type": "function"
    },
    {
      "constant": false,
      "inputs": [
        {
          "internalType": "address",
          "name": "account",
          "type": "address"
        }
      ],
      "name": "addPauser",
      "outputs": [],
      "payable": false,
      "stateMutability": "nonpayable",
      "type": "function"
    },
    {
      "constant": true,
      "inputs": [
        {
          "internalType": "uint256",
          "name": "",
          "type": "uint256"
        }
      ],
      "name": "allAvailableTokens",
      "outputs": [
        {
          "internalType": "address",
          "name": "",
          "type": "address"
        }
      ],
      "payable": false,
      "stateMutability": "view",
      "type": "function"
    },
    {
      "constant": true,
      "inputs": [
        {
          "internalType": "address",
          "name": "owner",
          "type": "address"
        },
        {
          "internalType": "address",
          "name": "spender",
          "type": "address"
        }
      ],
      "name": "allowance",
      "outputs": [
        {
          "internalType": "uint256",
          "name": "",
          "type": "uint256"
        }
      ],
      "payable": false,
      "stateMutability": "view",
      "type": "function"
    },
    {
      "constant": false,
      "inputs": [
        {
          "internalType": "address",
          "name": "spender",
          "type": "address"
        },
        {
          "internalType": "uint256",
          "name": "amount",
          "type": "uint256"
        }
      ],
      "name": "approve",
      "outputs": [
        {
          "internalType": "bool",
          "name": "",
          "type": "bool"
        }
      ],
      "payable": false,
      "stateMutability": "nonpayable",
      "type": "function"
    },
    {
      "constant": true,
      "inputs": [
        {
          "internalType": "address",
          "name": "account",
          "type": "address"
        }
      ],
      "name": "balanceOf",
      "outputs": [
        {
          "internalType": "uint256",
          "name": "",
          "type": "uint256"
        }
      ],
      "payable": false,
      "stateMutability": "view",
      "type": "function"
    },
    {
      "constant": true,
      "inputs": [],
      "name": "decimals",
      "outputs": [
        {
          "internalType": "uint8",
          "name": "",
          "type": "uint8"
        }
      ],
      "payable": false,
      "stateMutability": "view",
      "type": "function"
    },
    {
      "constant": false,
      "inputs": [
        {
          "internalType": "address",
          "name": "spender",
          "type": "address"
        },
        {
          "internalType": "uint256",
          "name": "subtractedValue",
          "type": "uint256"
        }
      ],
      "name": "decreaseAllowance",
      "outputs": [
        {
          "internalType": "bool",
          "name": "",
          "type": "bool"
        }
      ],
      "payable": false,
      "stateMutability": "nonpayable",
      "type": "function"
    },
    {
      "constant": true,
      "inputs": [],
      "name": "distController",
      "outputs": [
        {
          "internalType": "address",
          "name": "",
          "type": "address"
        }
      ],
      "payable": false,
      "stateMutability": "view",
      "type": "function"
    },
    {
      "constant": true,
      "inputs": [],
      "name": "fee",
      "outputs": [
        {
          "internalType": "uint256",
          "name": "",
          "type": "uint256"
        }
      ],
      "payable": false,
      "stateMutability": "view",
      "type": "function"
    },
    {
      "constant": true,
      "inputs": [],
      "name": "feeAddress",
      "outputs": [
        {
          "internalType": "address",
          "name": "",
          "type": "address"
        }
      ],
      "payable": false,
      "stateMutability": "view",
      "type": "function"
    },
    {
      "constant": true,
      "inputs": [
        {
          "internalType": "uint256",
          "name": "",
          "type": "uint256"
        }
      ],
      "name": "govTokens",
      "outputs": [
        {
          "internalType": "address",
          "name": "",
          "type": "address"
        }
      ],
      "payable": false,
      "stateMutability": "view",
      "type": "function"
    },
    {
      "constant": true,
      "inputs": [
        {
          "internalType": "address",
          "name": "",
          "type": "address"
        }
      ],
      "name": "govTokensIndexes",
      "outputs": [
        {
          "internalType": "uint256",
          "name": "",
          "type": "uint256"
        }
      ],
      "payable": false,
      "stateMutability": "view",
      "type": "function"
    },
    {
      "constant": true,
      "inputs": [
        {
          "internalType": "address",
          "name": "",
          "type": "address"
        }
      ],
      "name": "govTokensLastBalances",
      "outputs": [
        {
          "internalType": "uint256",
          "name": "",
          "type": "uint256"
        }
      ],
      "payable": false,
      "stateMutability": "view",
      "type": "function"
    },
    {
      "constant": false,
      "inputs": [
        {
          "internalType": "address",
          "name": "spender",
          "type": "address"
        },
        {
          "internalType": "uint256",
          "name": "addedValue",
          "type": "uint256"
        }
      ],
      "name": "increaseAllowance",
      "outputs": [
        {
          "internalType": "bool",
          "name": "",
          "type": "bool"
        }
      ],
      "payable": false,
      "stateMutability": "nonpayable",
      "type": "function"
    },
    {
      "constant": false,
      "inputs": [
        {
          "internalType": "string",
          "name": "name",
          "type": "string"
        },
        {
          "internalType": "string",
          "name": "symbol",
          "type": "string"
        },
        {
          "internalType": "uint8",
          "name": "decimals",
          "type": "uint8"
        }
      ],
      "name": "initialize",
      "outputs": [],
      "payable": false,
      "stateMutability": "nonpayable",
      "type": "function"
    },
    {
      "constant": false,
      "inputs": [],
      "name": "initialize",
      "outputs": [],
      "payable": false,
      "stateMutability": "nonpayable",
      "type": "function"
    },
    {
      "constant": false,
      "inputs": [
        {
          "internalType": "address",
          "name": "sender",
          "type": "address"
        }
      ],
      "name": "initialize",
      "outputs": [],
      "payable": false,
      "stateMutability": "nonpayable",
      "type": "function"
    },
    {
      "constant": true,
      "inputs": [],
      "name": "isOwner",
      "outputs": [
        {
          "internalType": "bool",
          "name": "",
          "type": "bool"
        }
      ],
      "payable": false,
      "stateMutability": "view",
      "type": "function"
    },
    {
      "constant": true,
      "inputs": [
        {
          "internalType": "address",
          "name": "account",
          "type": "address"
        }
      ],
      "name": "isPauser",
      "outputs": [
        {
          "internalType": "bool",
          "name": "",
          "type": "bool"
        }
      ],
      "payable": false,
      "stateMutability": "view",
      "type": "function"
    },
    {
      "constant": true,
      "inputs": [],
      "name": "maxUnlentPerc",
      "outputs": [
        {
          "internalType": "uint256",
          "name": "",
          "type": "uint256"
        }
      ],
      "payable": false,
      "stateMutability": "view",
      "type": "function"
    },
    {
      "constant": true,
      "inputs": [],
      "name": "name",
      "outputs": [
        {
          "internalType": "string",
          "name": "",
          "type": "string"
        }
      ],
      "payable": false,
      "stateMutability": "view",
      "type": "function"
    },
    {
      "constant": true,
      "inputs": [],
      "name": "oracle",
      "outputs": [
        {
          "internalType": "address",
          "name": "",
          "type": "address"
        }
      ],
      "payable": false,
      "stateMutability": "view",
      "type": "function"
    },
    {
      "constant": true,
      "inputs": [],
      "name": "owner",
      "outputs": [
        {
          "internalType": "address",
          "name": "",
          "type": "address"
        }
      ],
      "payable": false,
      "stateMutability": "view",
      "type": "function"
    },
    {
      "constant": false,
      "inputs": [],
      "name": "pause",
      "outputs": [],
      "payable": false,
      "stateMutability": "nonpayable",
      "type": "function"
    },
    {
      "constant": true,
      "inputs": [],
      "name": "paused",
      "outputs": [
        {
          "internalType": "bool",
          "name": "",
          "type": "bool"
        }
      ],
      "payable": false,
      "stateMutability": "view",
      "type": "function"
    },
    {
      "constant": true,
      "inputs": [
        {
          "internalType": "address",
          "name": "",
          "type": "address"
        }
      ],
      "name": "protocolWrappers",
      "outputs": [
        {
          "internalType": "address",
          "name": "",
          "type": "address"
        }
      ],
      "payable": false,
      "stateMutability": "view",
      "type": "function"
    },
    {
      "constant": true,
      "inputs": [],
      "name": "rebalancer",
      "outputs": [
        {
          "internalType": "address",
          "name": "",
          "type": "address"
        }
      ],
      "payable": false,
      "stateMutability": "view",
      "type": "function"
    },
    {
      "constant": false,
      "inputs": [],
      "name": "renounceOwnership",
      "outputs": [],
      "payable": false,
      "stateMutability": "nonpayable",
      "type": "function"
    },
    {
      "constant": false,
      "inputs": [],
      "name": "renouncePauser",
      "outputs": [],
      "payable": false,
      "stateMutability": "nonpayable",
      "type": "function"
    },
    {
      "constant": true,
      "inputs": [],
      "name": "stkAAVE",
      "outputs": [
        {
          "internalType": "address",
          "name": "",
          "type": "address"
        }
      ],
      "payable": false,
      "stateMutability": "view",
      "type": "function"
    },
    {
      "constant": true,
      "inputs": [],
      "name": "symbol",
      "outputs": [
        {
          "internalType": "string",
          "name": "",
          "type": "string"
        }
      ],
      "payable": false,
      "stateMutability": "view",
      "type": "function"
    },
    {
      "constant": true,
      "inputs": [],
      "name": "token",
      "outputs": [
        {
          "internalType": "address",
          "name": "",
          "type": "address"
        }
      ],
      "payable": false,
      "stateMutability": "view",
      "type": "function"
    },
    {
      "constant": true,
      "inputs": [],
      "name": "tokenHelper",
      "outputs": [
        {
          "internalType": "address",
          "name": "",
          "type": "address"
        }
      ],
      "payable": false,
      "stateMutability": "view",
      "type": "function"
    },
    {
      "constant": true,
      "inputs": [],
      "name": "totalSupply",
      "outputs": [
        {
          "internalType": "uint256",
          "name": "",
          "type": "uint256"
        }
      ],
      "payable": false,
      "stateMutability": "view",
      "type": "function"
    },
    {
      "constant": false,
      "inputs": [
        {
          "internalType": "address",
          "name": "recipient",
          "type": "address"
        },
        {
          "internalType": "uint256",
          "name": "amount",
          "type": "uint256"
        }
      ],
      "name": "transfer",
      "outputs": [
        {
          "internalType": "bool",
          "name": "",
          "type": "bool"
        }
      ],
      "payable": false,
      "stateMutability": "nonpayable",
      "type": "function"
    },
    {
      "constant": false,
      "inputs": [
        {
          "internalType": "address",
          "name": "sender",
          "type": "address"
        },
        {
          "internalType": "address",
          "name": "recipient",
          "type": "address"
        },
        {
          "internalType": "uint256",
          "name": "amount",
          "type": "uint256"
        }
      ],
      "name": "transferFrom",
      "outputs": [
        {
          "internalType": "bool",
          "name": "",
          "type": "bool"
        }
      ],
      "payable": false,
      "stateMutability": "nonpayable",
      "type": "function"
    },
    {
      "constant": false,
      "inputs": [
        {
          "internalType": "address",
          "name": "newOwner",
          "type": "address"
        }
      ],
      "name": "transferOwnership",
      "outputs": [],
      "payable": false,
      "stateMutability": "nonpayable",
      "type": "function"
    },
    {
      "constant": false,
      "inputs": [],
      "name": "unpause",
      "outputs": [],
      "payable": false,
      "stateMutability": "nonpayable",
      "type": "function"
    },
    {
      "constant": true,
      "inputs": [
        {
          "internalType": "address",
          "name": "",
          "type": "address"
        }
      ],
      "name": "userAvgPrices",
      "outputs": [
        {
          "internalType": "uint256",
          "name": "",
          "type": "uint256"
        }
      ],
      "payable": false,
      "stateMutability": "view",
      "type": "function"
    },
    {
      "constant": true,
      "inputs": [
        {
          "internalType": "address",
          "name": "",
          "type": "address"
        },
        {
          "internalType": "address",
          "name": "",
          "type": "address"
        }
      ],
      "name": "usersGovTokensIndexes",
      "outputs": [
        {
          "internalType": "uint256",
          "name": "",
          "type": "uint256"
        }
      ],
      "payable": false,
      "stateMutability": "view",
      "type": "function"
    },
    {
      "constant": false,
      "inputs": [
        {
          "internalType": "address[]",
          "name": "protocolTokens",
          "type": "address[]"
        },
        {
          "internalType": "address[]",
          "name": "wrappers",
          "type": "address[]"
        },
        {
          "internalType": "address[]",
          "name": "_newGovTokens",
          "type": "address[]"
        },
        {
          "internalType": "address[]",
          "name": "_newGovTokensEqualLen",
          "type": "address[]"
        }
      ],
      "name": "setAllAvailableTokensAndWrappers",
      "outputs": [],
      "payable": false,
      "stateMutability": "nonpayable",
      "type": "function"
    },
    {
      "constant": false,
      "inputs": [
        {
          "internalType": "address",
          "name": "_cToken",
          "type": "address"
        }
      ],
      "name": "setCToken",
      "outputs": [],
      "payable": false,
      "stateMutability": "nonpayable",
      "type": "function"
    },
    {
      "constant": false,
      "inputs": [
        {
          "internalType": "address",
          "name": "_aToken",
          "type": "address"
        }
      ],
      "name": "setAToken",
      "outputs": [],
      "payable": false,
      "stateMutability": "nonpayable",
      "type": "function"
    },
    {
      "constant": false,
      "inputs": [
        {
          "internalType": "address",
          "name": "_tokenHelper",
          "type": "address"
        }
      ],
      "name": "setTokenHelper",
      "outputs": [],
      "payable": false,
      "stateMutability": "nonpayable",
      "type": "function"
    },
    {
      "constant": false,
      "inputs": [
        {
          "internalType": "address",
          "name": "_rebalancer",
          "type": "address"
        }
      ],
      "name": "setRebalancer",
      "outputs": [],
      "payable": false,
      "stateMutability": "nonpayable",
      "type": "function"
    },
    {
      "constant": false,
      "inputs": [
        {
          "internalType": "uint256",
          "name": "_fee",
          "type": "uint256"
        }
      ],
      "name": "setFee",
      "outputs": [],
      "payable": false,
      "stateMutability": "nonpayable",
      "type": "function"
    },
    {
      "constant": false,
      "inputs": [
        {
          "internalType": "address",
          "name": "_feeAddress",
          "type": "address"
        }
      ],
      "name": "setFeeAddress",
      "outputs": [],
      "payable": false,
      "stateMutability": "nonpayable",
      "type": "function"
    },
    {
      "constant": false,
      "inputs": [
        {
          "internalType": "address",
          "name": "_oracle",
          "type": "address"
        }
      ],
      "name": "setOracleAddress",
      "outputs": [],
      "payable": false,
      "stateMutability": "nonpayable",
      "type": "function"
    },
    {
      "constant": false,
      "inputs": [
        {
          "internalType": "uint256",
          "name": "_perc",
          "type": "uint256"
        }
      ],
      "name": "setMaxUnlentPerc",
      "outputs": [],
      "payable": false,
      "stateMutability": "nonpayable",
      "type": "function"
    },
    {
      "constant": false,
      "inputs": [
        {
          "internalType": "uint256[]",
          "name": "_allocations",
          "type": "uint256[]"
        }
      ],
      "name": "setAllocations",
      "outputs": [],
      "payable": false,
      "stateMutability": "nonpayable",
      "type": "function"
    },
    {
      "constant": true,
      "inputs": [],
      "name": "getAllocations",
      "outputs": [
        {
          "internalType": "uint256[]",
          "name": "",
          "type": "uint256[]"
        }
      ],
      "payable": false,
      "stateMutability": "view",
      "type": "function"
    },
    {
      "constant": true,
      "inputs": [],
      "name": "getGovTokens",
      "outputs": [
        {
          "internalType": "address[]",
          "name": "",
          "type": "address[]"
        }
      ],
      "payable": false,
      "stateMutability": "view",
      "type": "function"
    },
    {
      "constant": true,
      "inputs": [],
      "name": "getAllAvailableTokens",
      "outputs": [
        {
          "internalType": "address[]",
          "name": "",
          "type": "address[]"
        }
      ],
      "payable": false,
      "stateMutability": "view",
      "type": "function"
    },
    {
      "constant": true,
      "inputs": [
        {
          "internalType": "address",
          "name": "_protocolToken",
          "type": "address"
        }
      ],
      "name": "getProtocolTokenToGov",
      "outputs": [
        {
          "internalType": "address",
          "name": "",
          "type": "address"
        }
      ],
      "payable": false,
      "stateMutability": "view",
      "type": "function"
    },
    {
      "constant": true,
      "inputs": [
        {
          "internalType": "address",
          "name": "user",
          "type": "address"
        }
      ],
      "name": "tokenPriceWithFee",
      "outputs": [
        {
          "internalType": "uint256",
          "name": "priceWFee",
          "type": "uint256"
        }
      ],
      "payable": false,
      "stateMutability": "view",
      "type": "function"
    },
    {
      "constant": true,
      "inputs": [],
      "name": "tokenPrice",
      "outputs": [
        {
          "internalType": "uint256",
          "name": "",
          "type": "uint256"
        }
      ],
      "payable": false,
      "stateMutability": "view",
      "type": "function"
    },
    {
      "constant": false,
      "inputs": [
        {
          "internalType": "uint256",
          "name": "_amount",
          "type": "uint256"
        },
        {
          "internalType": "bool",
          "name": "",
          "type": "bool"
        },
        {
          "internalType": "address",
          "name": "_referral",
          "type": "address"
        }
      ],
      "name": "mintDistToken",
      "outputs": [
        {
          "internalType": "uint256",
          "name": "mintedTokens",
          "type": "uint256"
        }
      ],
      "payable": false,
      "stateMutability": "nonpayable",
      "type": "function"
    }
  ],
  "bytecode": "0x6080604052613e49806100136000396000f3fe608060405234801561001057600080fd5b50600436106102a95760003560e01c806301d22ccd146102ae57806306fdde03146102d2578063095ea7b31461034f5780630b56d1571461038f5780630df94ef2146103ae57806312ea5c7e146103e65780631624f6c61461043e57806318160ddd1461056c5780631fc29c011461057457806323b872dd1461057c5780632b1b4bb0146105b25780632fdc91ee146105d8578063313ce567146105e057806336a00082146105fe578063395093511461061b5780633f4ba83a14610647578063412753581461064f57806345c8026c1461065757806346fbf68e1461067d5780634b48f16d146106a35780634c69c00f146106ab5780634cb71222146106d157806354924507146106f75780635c975abb146106ff5780635f09d84c146107075780636287fe211461072d57806365ed6e231461075357806369fe0e2d1461075b5780636c11ec96146107785780636cfd15531461079e5780636ef8d66d146107c457806370a08231146107cc57806370dd97fb146107f2578063715018a6146107fa578063746daa4e146108025780637dc0d1d01461081f5780637ff9b596146108275780638129fc1c1461082f57806382dc1ec4146108375780638456cb591461085d5780638705fcd4146108655780638a279e8a1461088b5780638cba1444146108b95780638da5cb5b146108df5780638f32d59b146108e757806395d89b41146108ef578063a457c2d7146108f7578063a6ea311c14610923578063a9059cbb1461092b578063aaa48e9f14610957578063b71501bc1461097d578063b8a2caa914610985578063c498c515146109b9578063c4d66de814610a27578063dd62ed3e14610a4d578063ddca3f4314610a7b578063f16c88db14610a83578063f2fde38b14610be1578063fc0c546a14610c07575b600080fd5b6102b6610c0f565b604080516001600160a01b039092168252519081900360200190f35b6102da610c1f565b6040805160208082528351818301528351919283929083019185019080838360005b838110156103145781810151838201526020016102fc565b50505050905090810190601f1680156103415780820380516001836020036101000a031916815260200191505b509250505060405180910390f35b61037b6004803603604081101561036557600080fd5b506001600160a01b038135169060200135610cb6565b604080519115158252519081900360200190f35b6103ac600480360360208110156103a557600080fd5b5035610cd4565b005b6103d4600480360360208110156103c457600080fd5b50356001600160a01b0316610d60565b60408051918252519081900360200190f35b6103ee610d73565b60408051602080825283518183015283519192839290830191858101910280838360005b8381101561042a578181015183820152602001610412565b505050509050019250505060405180910390f35b6103ac6004803603606081101561045457600080fd5b810190602081018135600160201b81111561046e57600080fd5b82018360208201111561048057600080fd5b803590602001918460018302840111600160201b831117156104a157600080fd5b91908080601f0160208091040260200160405190810160405280939291908181526020018383808284376000920191909152509295949360208101935035915050600160201b8111156104f357600080fd5b82018360208201111561050557600080fd5b803590602001918460018302840111600160201b8311171561052657600080fd5b91908080601f0160208091040260200160405190810160405280939291908181526020018383808284376000920191909152509295505050903560ff169150610dd59050565b6103d4610eb1565b6102b6610eb7565b61037b6004803603606081101561059257600080fd5b506001600160a01b03813581169160208101359091169060400135610ecf565b6102b6600480360360208110156105c857600080fd5b50356001600160a01b0316610f5c565b6102b6610f7b565b6105e8610f8b565b6040805160ff9092168252519081900360200190f35b6102b66004803603602081101561061457600080fd5b5035610f94565b61037b6004803603604081101561063157600080fd5b506001600160a01b038135169060200135610fbc565b6103ac611010565b6102b66110fb565b6102b66004803603602081101561066d57600080fd5b50356001600160a01b031661110b565b61037b6004803603602081101561069357600080fd5b50356001600160a01b0316611127565b6102b661113b565b6103ac600480360360208110156106c157600080fd5b50356001600160a01b0316611153565b6103ac600480360360208110156106e757600080fd5b50356001600160a01b03166111ee565b6103d4611289565b61037b611290565b6103ac6004803603602081101561071d57600080fd5b50356001600160a01b031661129a565b6103d46004803603602081101561074357600080fd5b50356001600160a01b0316611335565b6103ee611348565b6103ac6004803603602081101561077157600080fd5b50356113a0565b6103ac6004803603602081101561078e57600080fd5b50356001600160a01b0316611428565b6103ac600480360360208110156107b457600080fd5b50356001600160a01b03166114c3565b6103ac61155e565b6103d4600480360360208110156107e257600080fd5b50356001600160a01b0316611570565b6102b661158b565b6103ac6115a3565b6102b66004803603602081101561081857600080fd5b5035611622565b6102b6611630565b6103d4611640565b6103ac61164f565b6103ac6004803603602081101561084d57600080fd5b50356001600160a01b03166116f5565b6103ac611744565b6103ac6004803603602081101561087b57600080fd5b50356001600160a01b031661180d565b6103d4600480360360408110156108a157600080fd5b506001600160a01b03813581169160200135166118a8565b6103d4600480360360208110156108cf57600080fd5b50356001600160a01b03166118c6565b6102b661195e565b61037b61196d565b6102da611993565b61037b6004803603604081101561090d57600080fd5b506001600160a01b0381351690602001356119f4565b6103ee611a62565b61037b6004803603604081101561094157600080fd5b506001600160a01b038135169060200135611ac3565b6103d46004803603602081101561096d57600080fd5b50356001600160a01b0316611ad7565b6102b6611aea565b6103d46004803603606081101561099b57600080fd5b508035906020810135151590604001356001600160a01b0316611b02565b6103ac600480360360208110156109cf57600080fd5b810190602081018135600160201b8111156109e957600080fd5b8201836020820111156109fb57600080fd5b803590602001918460208302840111600160201b83111715610a1c57600080fd5b509092509050611cb7565b6103ac60048036036020811015610a3d57600080fd5b50356001600160a01b0316611d5e565b6103d460048036036040811015610a6357600080fd5b506001600160a01b0381358116916020013516611e14565b6103d4611e3f565b6103ac60048036036080811015610a9957600080fd5b810190602081018135600160201b811115610ab357600080fd5b820183602082011115610ac557600080fd5b803590602001918460208302840111600160201b83111715610ae657600080fd5b919390929091602081019035600160201b811115610b0357600080fd5b820183602082011115610b1557600080fd5b803590602001918460208302840111600160201b83111715610b3657600080fd5b919390929091602081019035600160201b811115610b5357600080fd5b820183602082011115610b6557600080fd5b803590602001918460208302840111600160201b83111715610b8657600080fd5b919390929091602081019035600160201b811115610ba357600080fd5b820183602082011115610bb557600080fd5b803590602001918460208302840111600160201b83111715610bd657600080fd5b509092509050611e46565b6103ac60048036036020811015610bf757600080fd5b50356001600160a01b031661201b565b6102b661206b565b61016c546001600160a01b031681565b60688054604080516020601f6002600019610100600188161502019095169490940493840181900481028201810190925282815260609390929091830182828015610cab5780601f10610c8057610100808354040283529160200191610cab565b820191906000526020600020905b815481529060010190602001808311610c8e57829003601f168201915b505050505090505b90565b6000610cca610cc361207b565b848461207f565b5060015b92915050565b610cdc61196d565b610d1b576040805162461bcd60e51b81526020600482018190526024820152600080516020613ccd833981519152604482015290519081900360640190fd5b620186a08161016e8190551115610d5d576040805162461bcd60e51b81526020600482015260016024820152603560f81b604482015290519081900360640190fd5b50565b6101746020526000908152604090205481565b6060610172805480602002602001604051908101604052809291908181526020018280548015610cab57602002820191906000526020600020905b81546001600160a01b03168152600190910190602001808311610dae575050505050905090565b600054610100900460ff1680610dee5750610dee61216b565b80610dfc575060005460ff16155b610e375760405162461bcd60e51b815260040180806020018281038252602e815260200180613d2f602e913960400191505060405180910390fd5b600054610100900460ff16158015610e62576000805460ff1961ff0019909116610100171660011790555b8351610e75906068906020870190613a4c565b508251610e89906069906020860190613a4c565b50606a805460ff191660ff84161790558015610eab576000805461ff00191690555b50505050565b60355490565b734da27a545c0c5b758a6ba100e3a049001de870f581565b6000610edc848484612171565b610f5284610ee861207b565b610f4d85604051806060016040528060288152602001613ca5602891396001600160a01b038a16600090815260346020526040812090610f2661207b565b6001600160a01b03168152602081019190915260400160002054919063ffffffff6122bd16565b61207f565b5060019392505050565b6001600160a01b03908116600090815261017b60205260409020541690565b610178546001600160a01b031681565b606a5460ff1690565b6101728181548110610fa257fe5b6000918252602090912001546001600160a01b0316905081565b6000610cca610fc961207b565b84610f4d8560346000610fda61207b565b6001600160a01b03908116825260208083019390935260409182016000908120918c16815292529020549063ffffffff61235416565b61102061101b61207b565b611127565b61105b5760405162461bcd60e51b8152600401808060200182810382526030815260200180613bc56030913960400191505060405180910390fd5b6101365460ff166110aa576040805162461bcd60e51b815260206004820152601460248201527314185d5cd8589b194e881b9bdd081c185d5cd95960621b604482015290519081900360640190fd5b610136805460ff191690557f5db9ee0a495bf2e6ff9c91a7834c1ba4fdd244a5e8aa4e537bd38aeae4b073aa6110de61207b565b604080516001600160a01b039092168252519081900360200190a1565b61016d546001600160a01b031681565b610173602052600090815260409020546001600160a01b031681565b6000610cce6101038363ffffffff6123b316565b73275da8e61ea8e02d51edd8d0dc5c0e62b4cdb0be81565b61115b61196d565b61119a576040805162461bcd60e51b81526020600482018190526024820152600080516020613ccd833981519152604482015290519081900360640190fd5b61017a80546001600160a01b0319166001600160a01b038316908117909155610d5d576040805162461bcd60e51b81526020600482015260016024820152600360fc1b604482015290519081900360640190fd5b6111f661196d565b611235576040805162461bcd60e51b81526020600482018190526024820152600080516020613ccd833981519152604482015290519081900360640190fd5b61016b80546001600160a01b0319166001600160a01b038316908117909155610d5d576040805162461bcd60e51b81526020600482015260016024820152600360fc1b604482015290519081900360640190fd5b61016e5481565b6101365460ff1690565b6112a261196d565b6112e1576040805162461bcd60e51b81526020600482018190526024820152600080516020613ccd833981519152604482015290519081900360640190fd5b61017980546001600160a01b0319166001600160a01b038316908117909155610d5d576040805162461bcd60e51b81526020600482015260016024820152600360fc1b604482015290519081900360640190fd5b6101766020526000908152604090205481565b606061017c805480602002602001604051908101604052809291908181526020018280548015610cab57602002820191906000526020600020905b815481526020019060010190808311611383575050505050905090565b6113a861196d565b6113e7576040805162461bcd60e51b81526020600482018190526024820152600080516020613ccd833981519152604482015290519081900360640190fd5b61016f819055612710811115610d5d576040805162461bcd60e51b81526020600482015260016024820152603560f81b604482015290519081900360640190fd5b61143061196d565b61146f576040805162461bcd60e51b81526020600482018190526024820152600080516020613ccd833981519152604482015290519081900360640190fd5b61017880546001600160a01b0319166001600160a01b038316908117909155610d5d576040805162461bcd60e51b81526020600482015260016024820152600360fc1b604482015290519081900360640190fd5b6114cb61196d565b61150a576040805162461bcd60e51b81526020600482018190526024820152600080516020613ccd833981519152604482015290519081900360640190fd5b61016c80546001600160a01b0319166001600160a01b038316908117909155610d5d576040805162461bcd60e51b81526020600482015260016024820152600360fc1b604482015290519081900360640190fd5b61156e61156961207b565b61241a565b565b6001600160a01b031660009081526033602052604090205490565b73875773784af8135ea0ef43b5a374aad105c5d39e81565b6115ab61196d565b6115ea576040805162461bcd60e51b81526020600482018190526024820152600080516020613ccd833981519152604482015290519081900360640190fd5b60d0546040516000916001600160a01b031690600080516020613ced833981519152908390a360d080546001600160a01b0319169055565b6101718181548110610fa257fe5b61017a546001600160a01b031681565b600061164a612463565b905090565b600054610100900460ff1680611668575061166861216b565b80611676575060005460ff16155b6116b15760405162461bcd60e51b815260040180806020018281038252602e815260200180613d2f602e913960400191505060405180910390fd5b600054610100900460ff161580156116dc576000805460ff1961ff0019909116610100171660011790555b6001609d558015610d5d576000805461ff001916905550565b61170061101b61207b565b61173b5760405162461bcd60e51b8152600401808060200182810382526030815260200180613bc56030913960400191505060405180910390fd5b610d5d816125a3565b61174f61101b61207b565b61178a5760405162461bcd60e51b8152600401808060200182810382526030815260200180613bc56030913960400191505060405180910390fd5b6101365460ff16156117d6576040805162461bcd60e51b815260206004820152601060248201526f14185d5cd8589b194e881c185d5cd95960821b604482015290519081900360640190fd5b610136805460ff191660011790557f62e78cea01bee320cd4e420270b5ea74000d11b0c9f74754ebdbfc544b05a2586110de61207b565b61181561196d565b611854576040805162461bcd60e51b81526020600482018190526024820152600080516020613ccd833981519152604482015290519081900360640190fd5b61016d80546001600160a01b0319166001600160a01b038316908117909155610d5d576040805162461bcd60e51b81526020600482015260016024820152600360fc1b604482015290519081900360640190fd5b61017760209081526000928352604080842090915290825290205481565b6001600160a01b038116600090815261017460205260408120546118e8612463565b915080158015906118f857508082115b1561195857611955620186a061194961192a61191a868663ffffffff6125ec16565b61016f549063ffffffff61262e16565b61193d86620186a063ffffffff61262e16565b9063ffffffff6125ec16565b9063ffffffff61268716565b91505b50919050565b60d0546001600160a01b031690565b60d0546000906001600160a01b031661198461207b565b6001600160a01b031614905090565b60698054604080516020601f6002600019610100600188161502019095169490940493840181900481028201810190925282815260609390929091830182828015610cab5780601f10610c8057610100808354040283529160200191610cab565b6000610cca611a0161207b565b84610f4d85604051806060016040528060258152602001613df06025913960346000611a2b61207b565b6001600160a01b03908116825260208083019390935260409182016000908120918d1681529252902054919063ffffffff6122bd16565b6060610171805480602002602001604051908101604052809291908181526020018280548015610cab576020028201919060005260206000209081546001600160a01b03168152600190910190602001808311610dae575050505050905090565b6000610cca611ad061207b565b8484612171565b6101756020526000908152604090205481565b73c00e94cb662c3520282e6f5717214004a7f2688881565b609d805460010190819055610136546000919060ff1615611b5d576040805162461bcd60e51b815260206004820152601060248201526f14185d5cd8589b194e881c185d5cd95960821b604482015290519081900360640190fd5b604080513260601b60208083019190915243603480840191909152835180840390910181526054909201909252805191012061017d55611b9c336126c6565b6000611ba6612463565b61016954909150611bc8906001600160a01b031633308963ffffffff61270016565b611be48161194988670de0b6b3a764000063ffffffff61262e16565b9250611bf0338461275a565b611bfa338461283a565b611c05338483612917565b6001600160a01b03841615611c5857604080518781526001600160a01b038616602082015281517f496d589d8b7eb829a8d7b30e24a326ac33991f5cea96429b69231a6b15b54b1d929181900390910190a15b50609d548114611caf576040805162461bcd60e51b815260206004820152601f60248201527f5265656e7472616e637947756172643a207265656e7472616e742063616c6c00604482015290519081900360640190fd5b509392505050565b61016c546001600160a01b0316331480611ce95750611cd461195e565b6001600160a01b0316336001600160a01b0316145b611d1e576040805162461bcd60e51b81526020600482015260016024820152601b60f91b604482015290519081900360640190fd5b611d5a8282808060200260200160405190810160405280939291908181526020018383602002808284376000920191909152506129a392505050565b5050565b600054610100900460ff1680611d775750611d7761216b565b80611d85575060005460ff16155b611dc05760405162461bcd60e51b815260040180806020018281038252602e815260200180613d2f602e913960400191505060405180910390fd5b600054610100900460ff16158015611deb576000805460ff1961ff0019909116610100171660011790555b611df482612a6d565b610136805460ff191690558015611d5a576000805461ff00191690555050565b6001600160a01b03918216600090815260346020908152604080832093909416825291909152205490565b61016f5481565b611e4e61196d565b611e8d576040805162461bcd60e51b81526020600482018190526024820152600080516020613ccd833981519152604482015290519081900360640190fd5b868514611ec5576040805162461bcd60e51b81526020600482015260016024820152601960f91b604482015290519081900360640190fd5b86811015611efe576040805162461bcd60e51b81526020600482015260016024820152603360f81b604482015290519081900360640190fd5b611f0b6101718585613aca565b50600080805b89811015612000578a8a82818110611f2557fe5b905060200201356001600160a01b0316915060006001600160a01b0316826001600160a01b031614158015611f7f57506000898983818110611f6357fe5b905060200201356001600160a01b03166001600160a01b031614155b611fb4576040805162461bcd60e51b81526020600482015260016024820152600360fc1b604482015290519081900360640190fd5b888882818110611fc057fe5b6001600160a01b0385811660009081526101736020908152604090912080546001600160a01b031916939091029490940135161790915550600101611f11565b5061200e6101728b8b613aca565b5050505050505050505050565b61202361196d565b612062576040805162461bcd60e51b81526020600482018190526024820152600080516020613ccd833981519152604482015290519081900360640190fd5b610d5d81612b25565b610169546001600160a01b031681565b3390565b6001600160a01b0383166120c45760405162461bcd60e51b8152600401808060200182810382526024815260200180613da26024913960400191505060405180910390fd5b6001600160a01b0382166121095760405162461bcd60e51b8152600401808060200182810382526022815260200180613c1b6022913960400191505060405180910390fd5b6001600160a01b03808416600081815260346020908152604080832094871680845294825291829020859055815185815291517f8c5be1e5ebec7d5bd14f71427d1e84f3dd0314c0f7b2291e5b200ac8c7c3b9259281900390910190a3505050565b303b1590565b6001600160a01b0383166121b65760405162461bcd60e51b8152600401808060200182810382526025815260200180613d7d6025913960400191505060405180910390fd5b6001600160a01b0382166121fb5760405162461bcd60e51b8152600401808060200182810382526023815260200180613ba26023913960400191505060405180910390fd5b61223e81604051806060016040528060268152602001613c3d602691396001600160a01b038616600090815260336020526040902054919063ffffffff6122bd16565b6001600160a01b038085166000908152603360205260408082209390935590841681522054612273908263ffffffff61235416565b6001600160a01b038084166000818152603360209081526040918290209490945580518581529051919392871692600080516020613d5d83398151915292918290030190a3505050565b6000818484111561234c5760405162461bcd60e51b81526004018080602001828103825283818151815260200191508051906020019080838360005b838110156123115781810151838201526020016122f9565b50505050905090810190601f16801561233e5780820380516001836020036101000a031916815260200191505b509250505060405180910390fd5b505050900390565b6000828201838110156123ac576040805162461bcd60e51b815260206004820152601b60248201527a536166654d6174683a206164646974696f6e206f766572666c6f7760281b604482015290519081900360640190fd5b9392505050565b60006001600160a01b0382166123fa5760405162461bcd60e51b8152600401808060200182810382526022815260200180613d0d6022913960400191505060405180910390fd5b506001600160a01b03166000908152602091909152604090205460ff1690565b61242c6101038263ffffffff612bb416565b6040516001600160a01b038216907fcd265ebaf09df2871cc7bd4133404a235ba12eff2041bb89d9c714a2621c7c7e90600090a250565b60008061246e610eb1565b90508061248357505061017054600a0a610cb3565b6101695460009081906124b890670de0b6b3a7640000906124ac906001600160a01b0316612c1b565b9063ffffffff61262e16565b9050606061017280548060200260200160405190810160405280929190818152602001828054801561251357602002820191906000526020600020905b81546001600160a01b031681526001909101906020018083116124f5575b50939450600093505050505b81518110156125895781818151811061253457fe5b6020026020010151935061257f61257261254d86612c1b565b6001600160a01b03808816600090815261017360205260409020546124ac9116612d28565b849063ffffffff61235416565b925060010161251f565b5061259a828563ffffffff61268716565b94505050505090565b6125b56101038263ffffffff612d9516565b6040516001600160a01b038216907f6719d08c1888103bea251a4ed56406bd0c3e69723c8a1686e017e7bbe159b6f890600090a250565b60006123ac83836040518060400160405280601e81526020017f536166654d6174683a207375627472616374696f6e206f766572666c6f7700008152506122bd565b60008261263d57506000610cce565b8282028284828161264a57fe5b04146123ac5760405162461bcd60e51b8152600401808060200182810382526021815260200180613c846021913960400191505060405180910390fd5b60006123ac83836040518060400160405280601a815260200179536166654d6174683a206469766973696f6e206279207a65726f60301b815250612e16565b610d5d81610171805490506040519080825280602002602001820160405280156126fa578160200160208202803883390190505b50612e7b565b604080516001600160a01b0385811660248301528416604482015260648082018490528251808303909101815260849091019091526020810180516001600160e01b03166323b872dd60e01b179052610eab908590613209565b6001600160a01b0382166127b5576040805162461bcd60e51b815260206004820152601f60248201527f45524332303a206d696e7420746f20746865207a65726f206164647265737300604482015290519081900360640190fd5b6035546127c8908263ffffffff61235416565b6035556001600160a01b0382166000908152603360205260409020546127f4908263ffffffff61235416565b6001600160a01b0383166000818152603360209081526040808320949094558351858152935192939192600080516020613d5d8339815191529281900390910190a35050565b60008061284684611570565b90506000805b6101715481101561290f57610171818154811061286557fe5b60009182526020808320909101546001600160a01b0390811680845261017783526040808520928b1685529183528184205481855261017590935292205491955092506128e0906128d3908590611949906128c6908763ffffffff6125ec16565b899063ffffffff61262e16565b839063ffffffff61235416565b6001600160a01b03808616600090815261017760209081526040808320938b168352929052205560010161284c565b505050505050565b600061292284611570565b90506129808161194961293b858763ffffffff61262e16565b61297461294e868963ffffffff6125ec16565b6001600160a01b038a16600090815261017460205260409020549063ffffffff61262e16565b9063ffffffff61235416565b6001600160a01b0390941660009081526101746020526040902093909355505050565b610172548151146129df576040805162461bcd60e51b81526020600482015260016024820152601960f91b604482015290519081900360640190fd5b6000805b8251811015612a1c57612a128382815181106129fb57fe5b60200260200101518361235490919063ffffffff16565b91506001016129e3565b508151612a319061017c906020850190613b29565b50620186a08114611d5a576040805162461bcd60e51b81526020600482015260016024820152603760f81b604482015290519081900360640190fd5b600054610100900460ff1680612a865750612a8661216b565b80612a94575060005460ff16155b612acf5760405162461bcd60e51b815260040180806020018281038252602e815260200180613d2f602e913960400191505060405180910390fd5b600054610100900460ff16158015612afa576000805460ff1961ff0019909116610100171660011790555b612b0382611127565b612b1057612b10826125a3565b8015611d5a576000805461ff00191690555050565b6001600160a01b038116612b6a5760405162461bcd60e51b8152600401808060200182810382526026815260200180613bf56026913960400191505060405180910390fd5b60d0546040516001600160a01b03808416921690600080516020613ced83398151915290600090a360d080546001600160a01b0319166001600160a01b0392909216919091179055565b612bbe82826123b3565b612bf95760405162461bcd60e51b8152600401808060200182810382526021815260200180613c636021913960400191505060405180910390fd5b6001600160a01b0316600090815260209190915260409020805460ff19169055565b604080513060248083019190915282518083039091018152604490910182526020810180516001600160e01b03166370a0823160e01b1781529151815160009384936060936001600160a01b03881693919290918291908083835b60208310612c955780518252601f199092019160209182019101612c76565b6001836020036101000a038019825116818451168082178552505050505050905001915050600060405180830381855afa9150503d8060008114612cf5576040519150601f19603f3d011682016040523d82523d6000602084013e612cfa565b606091505b509150915081612d0957600080fd5b808060200190516020811015612d1e57600080fd5b5051949350505050565b6000816001600160a01b03166302bbce466040518163ffffffff1660e01b815260040160206040518083038186803b158015612d6357600080fd5b505afa158015612d77573d6000803e3d6000fd5b505050506040513d6020811015612d8d57600080fd5b505192915050565b612d9f82826123b3565b15612df1576040805162461bcd60e51b815260206004820152601f60248201527f526f6c65733a206163636f756e7420616c72656164792068617320726f6c6500604482015290519081900360640190fd5b6001600160a01b0316600090815260209190915260409020805460ff19166001179055565b60008183612e655760405162461bcd60e51b81526020600482018181528351602484015283519092839260449091019190850190808383600083156123115781810151838201526020016122f9565b506000838581612e7157fe5b0495945050505050565b6060610171805480602002602001604051908101604052809291908181526020018280548015612ed457602002820191906000526020600020905b81546001600160a01b03168152600190910190602001808311612eb6575b50505050509050805160001415612eeb5750611d5a565b6000612ef5610eb1565b90506000612f0285611570565b90506000821561290f5760005b845181101561320057848181518110612f2457fe5b60200260200101519150612f37826133c1565b6000612f4283612c1b565b90508015612fdd576001600160a01b03831660009081526101766020526040902054612fb390612f8d90879061194990670de0b6b3a7640000906124ac90879063ffffffff6125ec16565b6001600160a01b038516600090815261017560205260409020549063ffffffff61235416565b6001600160a01b038416600090815261017560209081526040808320939093556101769052208190555b83156131c5576001600160a01b03808416600081815261017760209081526040808320948d1683529381528382205492825261017590529182205490919061302b908363ffffffff6125ec16565b905080156131c2576000613051670de0b6b3a7640000611949898563ffffffff61262e16565b9050600061305e87612c1b565b90508082111561306c578091505b8a868151811061307857fe5b6020026020010151156130f8576130d96130b361309b8b8b63ffffffff6125ec16565b61194985670de0b6b3a764000063ffffffff61262e16565b6001600160a01b038916600090815261017560205260409020549063ffffffff61235416565b6001600160a01b038816600090815261017560205260409020556131bf565b61016d546000906001600160a01b0316158015906131195750600061016f54115b801561314257506001600160a01b03881673875773784af8135ea0ef43b5a374aad105c5d39e14155b1561318057613164620186a061194961016f548661262e90919063ffffffff16565b61016d549091506131809089906001600160a01b0316836139a4565b61319a888e613195868563ffffffff6125ec16565b6139a4565b6131a388612c1b565b6001600160a01b03891660009081526101766020526040902055505b50505b50505b506001600160a01b03808316600090815261017560209081526040808320546101778352818420948c16845293909152902055600101612f0f565b50505050505050565b61321b826001600160a01b03166139be565b61326c576040805162461bcd60e51b815260206004820152601f60248201527f5361666545524332303a2063616c6c20746f206e6f6e2d636f6e747261637400604482015290519081900360640190fd5b60006060836001600160a01b0316836040518082805190602001908083835b602083106132aa5780518252601f19909201916020918201910161328b565b6001836020036101000a0380198251168184511680821785525050505050509050019150506000604051808303816000865af19150503d806000811461330c576040519150601f19603f3d011682016040523d82523d6000602084013e613311565b606091505b509150915081613368576040805162461bcd60e51b815260206004820181905260248201527f5361666545524332303a206c6f772d6c6576656c2063616c6c206661696c6564604482015290519081900360640190fd5b805115610eab5780806020019051602081101561338457600080fd5b5051610eab5760405162461bcd60e51b815260040180806020018281038252602a815260200180613dc6602a913960400191505060405180910390fd5b6001600160a01b03811673c00e94cb662c3520282e6f5717214004a7f26888148061340857506001600160a01b03811673875773784af8135ea0ef43b5a374aad105c5d39e145b8061342f57506001600160a01b038116734da27a545c0c5b758a6ba100e3a049001de870f5145b15610d5d5760408051600180825281830190925260609160208083019080388339019050509050308160008151811061346457fe5b6001600160a01b039283166020918202929092010152821673875773784af8135ea0ef43b5a374aad105c5d39e141561358a5760408051630e31580960e01b81526004810191825282516044820152825173275da8e61ea8e02d51edd8d0dc5c0e62b4cdb0be92630e31580992859283929182916024820191606401906020808701910280838360005b838110156135065781810151838201526020016134ee565b50505050905001838103825284818151815260200191508051906020019060200280838360005b8381101561354557818101518382015260200161352d565b50505050905001945050505050600060405180830381600087803b15801561356c57600080fd5b505af1158015613580573d6000803e3d6000fd5b5050505050610d5d565b604080516001808252818301909252606091602080830190803883390190505090506001600160a01b038316734da27a545c0c5b758a6ba100e3a049001de870f51480156135e35750610179546001600160a01b031615155b156137df576101795481516001600160a01b0390911690829060009061360557fe5b60200260200101906001600160a01b031690816001600160a01b03168152505060008160008151811061363457fe5b60200260200101516001600160a01b03166375d264136040518163ffffffff1660e01b815260040160206040518083038186803b15801561367457600080fd5b505afa158015613688573d6000803e3d6000fd5b505050506040513d602081101561369e57600080fd5b505160408051630cc7d40f60e11b815230600482015290519192506001600160a01b03831691633111e7b3918591849163198fa81e916024808301926020929190829003018186803b1580156136f357600080fd5b505afa158015613707573d6000803e3d6000fd5b505050506040513d602081101561371d57600080fd5b50516040516001600160e01b031960e085901b168152602481018290523060448201819052606060048301908152845160648401528451919290918291608401906020878101910280838360005b8381101561378357818101518382015260200161376b565b50505050905001945050505050602060405180830381600087803b1580156137aa57600080fd5b505af11580156137be573d6000803e3d6000fd5b505050506040513d60208110156137d457600080fd5b50610d5d9350505050565b61016b546001600160a01b03161561399f5761016b5481516001600160a01b0390911690829060009061380e57fe5b60200260200101906001600160a01b031690816001600160a01b0316815250508060008151811061383b57fe5b60200260200101516001600160a01b0316635fe3b5676040518163ffffffff1660e01b815260040160206040518083038186803b15801561387b57600080fd5b505afa15801561388f573d6000803e3d6000fd5b505050506040513d60208110156138a557600080fd5b50516040516334086fd360e11b81526000604482018190526001606483018190526080600484019081528651608485015286516001600160a01b0390951694636810dfa694889488949093909290918291602482019160a40190602089810191028083838a5b8381101561392357818101518382015260200161390b565b50505050905001838103825286818151815260200191508051906020019060200280838360005b8381101561396257818101518382015260200161394a565b505050509050019650505050505050600060405180830381600087803b15801561398b57600080fd5b505af1158015613200573d6000803e3d6000fd5b505050565b61399f6001600160a01b038416838363ffffffff6139fa16565b6000813f7fc5d2460186f7233c927e7db2dcc703c0e500b653ca82273b7bfad8045d85a4708181148015906139f257508115155b949350505050565b604080516001600160a01b038416602482015260448082018490528251808303909101815260649091019091526020810180516001600160e01b031663a9059cbb60e01b17905261399f908490613209565b828054600181600116156101000203166002900490600052602060002090601f016020900481019282601f10613a8d57805160ff1916838001178555613aba565b82800160010185558215613aba579182015b82811115613aba578251825591602001919060010190613a9f565b50613ac6929150613b63565b5090565b828054828255906000526020600020908101928215613b1d579160200282015b82811115613b1d5781546001600160a01b0319166001600160a01b03843516178255602090920191600190910190613aea565b50613ac6929150613b7d565b828054828255906000526020600020908101928215613aba5791602002820182811115613aba578251825591602001919060010190613a9f565b610cb391905b80821115613ac65760008155600101613b69565b610cb391905b80821115613ac65780546001600160a01b0319168155600101613b8356fe45524332303a207472616e7366657220746f20746865207a65726f2061646472657373506175736572526f6c653a2063616c6c657220646f6573206e6f742068617665207468652050617573657220726f6c654f776e61626c653a206e6577206f776e657220697320746865207a65726f206164647265737345524332303a20617070726f766520746f20746865207a65726f206164647265737345524332303a207472616e7366657220616d6f756e7420657863656564732062616c616e6365526f6c65733a206163636f756e7420646f6573206e6f74206861766520726f6c65536166654d6174683a206d756c7469706c69636174696f6e206f766572666c6f7745524332303a207472616e7366657220616d6f756e74206578636565647320616c6c6f77616e63654f776e61626c653a2063616c6c6572206973206e6f7420746865206f776e65728be0079c531659141344cd1fd0a4f28419497f9722a3daafe3b4186f6b6457e0526f6c65733a206163636f756e7420697320746865207a65726f2061646472657373436f6e747261637420696e7374616e63652068617320616c7265616479206265656e20696e697469616c697a6564ddf252ad1be2c89b69c2b068fc378daa952ba7f163c4a11628f55a4df523b3ef45524332303a207472616e736665722066726f6d20746865207a65726f206164647265737345524332303a20617070726f76652066726f6d20746865207a65726f20616464726573735361666545524332303a204552433230206f7065726174696f6e20646964206e6f74207375636365656445524332303a2064656372656173656420616c6c6f77616e63652062656c6f77207a65726fa265627a7a723158209abfdd6d5b3de042b54dae5afcd5dc6dbdf9ad79639c4b7254216b0ccc5c7fa764736f6c63430005100032",
  "source": "/**\r\n * @title: Dissident Token Governance main contract\r\n * @summary: ERC20 that holds pooled user funds together\r\n *           Each token represent a share of the underlying pools\r\n *           and with each token user have the right to redeem a portion of these pools\r\n * @author: Dissident Finance, dissident.finance\r\n */\r\npragma solidity 0.5.16;\r\nimport \"@openzeppelin/contracts-ethereum-package/contracts/math/SafeMath.sol\";\r\nimport \"@openzeppelin/contracts-ethereum-package/contracts/token/ERC20/SafeERC20.sol\";\r\nimport \"@openzeppelin/contracts-ethereum-package/contracts/token/ERC20/ERC20.sol\";\r\nimport \"@openzeppelin/contracts-ethereum-package/contracts/token/ERC20/ERC20Detailed.sol\";\r\nimport \"@openzeppelin/contracts-ethereum-package/contracts/utils/ReentrancyGuard.sol\";\r\nimport \"@openzeppelin/contracts-ethereum-package/contracts/ownership/Ownable.sol\";\r\nimport \"@openzeppelin/contracts-ethereum-package/contracts/lifecycle/Pausable.sol\";\r\n\r\nimport \"@openzeppelin/upgrades/contracts/Initializable.sol\";\r\n\r\nimport \"./interfaces/ILendingProtocol.sol\";\r\nimport \"./interfaces/DistController.sol\";\r\nimport \"./interfaces/IAaveIncentivesController.sol\";\r\nimport \"./interfaces/AToken.sol\";\r\nimport \"./interfaces/Comptroller.sol\";\r\nimport \"./interfaces/CERC20.sol\";\r\n\r\n\r\ncontract DistTokenGovernance is Initializable, ERC20, ERC20Detailed, ReentrancyGuard, Ownable, Pausable {\r\n    using SafeERC20 for IERC20;\r\n    using SafeMath for uint256;\r\n\r\n    // State variables\r\n    uint256 private constant ONE_18 = 10**18;\r\n    // eg. DAI address\r\n    address public token;\r\n    // eg. iDAI address\r\n    address private iToken;\r\n    // eg. cDAI address\r\n    address private cToken;\r\n    // Dist rebalancer current implementation address\r\n    address public rebalancer;\r\n    // Address collecting underlying fees\r\n    address public feeAddress;\r\n    // Max unlent assets percentage for gas friendly swaps\r\n    uint256 public maxUnlentPerc; // 100000 == 100% -> 1000 == 1%\r\n    // Current fee on interest gained\r\n    uint256 public fee;\r\n    // eg. 18 for DAI\r\n    uint256 private tokenDecimals;\r\n    // eg. [COMPAddress, CRVAddress, ...]\r\n    address[] public govTokens;\r\n    // eg. [cTokenAddress, iTokenAddress, ...]\r\n    address[] public allAvailableTokens;\r\n    // eg. cTokenAddress => DistCompoundAddress\r\n    mapping(address => address) public protocolWrappers;\r\n    // Map that saves avg distToken price paid for each user, used to calculate earnings\r\n    mapping(address => uint256) public userAvgPrices;\r\n    // global indices for each gov tokens used as a reference to calculate a fair share for each user\r\n    mapping (address => uint256) public govTokensIndexes;\r\n    // array with last balance recorded for each gov tokens\r\n    mapping (address => uint256) public govTokensLastBalances;\r\n    // govToken -> user_address -> user_index eg. usersGovTokensIndexes[govTokens[0]][msg.sender] = 1111123;\r\n    mapping (address => mapping (address => uint256)) public usersGovTokensIndexes;\r\n\r\n    // DistToken helper address\r\n    address public tokenHelper;\r\n\r\n    // Addresses for stkAAVE distribution from Aave\r\n    address public constant stkAAVE = address(0x4da27a545c0c5B758a6BA100e3a049001de870f5);\r\n    address private aToken;\r\n\r\n    // ########## DistToken updates\r\n    // Dist governance token\r\n    address public constant DIST = address(0x875773784Af8135eA0ef43b5a374AaD105c5D39e);\r\n    // Compound governance token\r\n    address public constant COMP = address(0xc00e94Cb662C3520282E6f5717214004A7f26888);\r\n    uint256 private constant FULL_ALLOC = 100000;\r\n\r\n    // Dist distribution controller\r\n    address public constant distController = address(0x275DA8e61ea8E02d51EDd8d0DC5c0E62b4CDB0BE);\r\n    // oracle used for calculating the avgAPR with gov tokens\r\n    address public oracle;\r\n    // eg cDAI -> COMP\r\n    mapping(address => address) private protocolTokenToGov;\r\n    // last allocations submitted by rebalancer\r\n    uint256[] private lastRebalancerAllocations;\r\n    // variable used for avoid the call of mint and redeem in the same tx\r\n    bytes32 private _minterBlock;\r\n\r\n    // Events\r\n    event Rebalance(address _rebalancer, uint256 _amount);\r\n    event Referral(uint256 _amount, address _ref);\r\n\r\n    // ERROR MESSAGES:\r\n    // 0 = is 0\r\n    // 1 = already initialized\r\n    // 2 = length is different\r\n    // 3 = Not greater then\r\n    // 4 = lt\r\n    // 5 = too high\r\n    // 6 = not authorized\r\n    // 7 = not equal\r\n    // 8 = error on flash loan execution\r\n    // 9 = Reentrancy\r\n\r\n    // onlyOwner\r\n    /**\r\n    * It allows owner to modify allAvailableTokens array in case of emergency\r\n    * ie if a bug on a interest bearing token is discovered and reset protocolWrappers\r\n    * associated with those tokens.\r\n    *\r\n    * @param protocolTokens : array of protocolTokens addresses (eg [cDAI, iDAI, ...])\r\n    * @param wrappers : array of wrapper addresses (eg [DistCompound, DistFulcrum, ...])\r\n    * @param _newGovTokens : array of governance token addresses\r\n    * @param _newGovTokensEqualLen : array of governance token addresses for each\r\n    *  protocolToken (addr0 should be used for protocols with no govToken)\r\n    */\r\n    function setAllAvailableTokensAndWrappers(\r\n        address[] calldata protocolTokens,\r\n        address[] calldata wrappers,\r\n        address[] calldata _newGovTokens,\r\n        address[] calldata _newGovTokensEqualLen\r\n    ) external onlyOwner {\r\n        require(protocolTokens.length == wrappers.length, \"2\");\r\n        require(_newGovTokensEqualLen.length >= protocolTokens.length, \"3\");\r\n\r\n        govTokens = _newGovTokens;\r\n\r\n        address newGov;\r\n        address protToken;\r\n        for (uint256 i = 0; i < protocolTokens.length; i++) {\r\n            protToken = protocolTokens[i];\r\n            require(protToken != address(0) && wrappers[i] != address(0), \"0\");\r\n            protocolWrappers[protToken] = wrappers[i];\r\n\r\n            //set protocol token to gov token mapping\r\n            //    newGov = _newGovTokensEqualLen[i];\r\n            //    if (newGov != DIST) {\r\n            //        protocolTokenToGov[protToken] = newGov;\r\n            //    }\r\n        }\r\n\r\n        allAvailableTokens = protocolTokens;\r\n    }\r\n\r\n    /**\r\n    * It allows owner to set the cToken address\r\n    *\r\n    * @param _cToken : new cToken address\r\n    */\r\n    function setCToken(address _cToken)\r\n        external onlyOwner {\r\n        require((cToken = _cToken) != address(0), \"0\");\r\n    }\r\n\r\n    /**\r\n    * It allows owner to set the aToken address\r\n    *\r\n    * @param _aToken : new aToken address\r\n    */\r\n    function setAToken(address _aToken)\r\n        external onlyOwner {\r\n        require((aToken = _aToken) != address(0), \"0\");\r\n    }\r\n\r\n    /**\r\n    * It allows owner to set the tokenHelper address\r\n    *\r\n    * @param _tokenHelper : new tokenHelper address\r\n    */\r\n    function setTokenHelper(address _tokenHelper)\r\n        external onlyOwner {\r\n        require((tokenHelper = _tokenHelper) != address(0), \"0\");\r\n    }\r\n\r\n    /**\r\n    * It allows owner to set the DistRebalancerV3_1 address\r\n    *\r\n    * @param _rebalancer : new DistRebalancerV3_1 address\r\n    */\r\n    function setRebalancer(address _rebalancer)\r\n        external onlyOwner {\r\n        require((rebalancer = _rebalancer) != address(0), \"0\");\r\n    }\r\n\r\n    /**\r\n    * It allows owner to set the fee (1000 == 10% of gained interest)\r\n    *\r\n    * @param _fee : fee amount where 100000 is 100%, max settable is 10%\r\n    */\r\n    function setFee(uint256 _fee)\r\n        external onlyOwner {\r\n        // 100000 == 100% -> 10000 == 10%\r\n        require((fee = _fee) <= FULL_ALLOC / 10, \"5\");\r\n    }\r\n\r\n    /**\r\n    * It allows owner to set the fee address\r\n    *\r\n    * @param _feeAddress : fee address\r\n    */\r\n    function setFeeAddress(address _feeAddress)\r\n        external onlyOwner {\r\n        require((feeAddress = _feeAddress) != address(0), \"0\");\r\n    }\r\n\r\n    /**\r\n    * It allows owner to set the oracle address for getting avgAPR\r\n    *\r\n    * @param _oracle : new oracle address\r\n    */\r\n    function setOracleAddress(address _oracle)\r\n        external onlyOwner {\r\n        require((oracle = _oracle) != address(0), \"0\");\r\n    }\r\n\r\n    /**\r\n    * It allows owner to set the max unlent asset percentage (1000 == 1% of unlent asset max)\r\n    *\r\n    * @param _perc : max unlent perc where 100000 is 100%\r\n    */\r\n    function setMaxUnlentPerc(uint256 _perc)\r\n        external onlyOwner {\r\n        require((maxUnlentPerc = _perc) <= 100000, \"5\");\r\n    }\r\n\r\n    /**\r\n    * Used by Rebalancer to set the new allocations\r\n    *\r\n    * @param _allocations : array with allocations in percentages (100% => 100000)\r\n    */\r\n    function setAllocations(uint256[] calldata _allocations) external {\r\n        require(msg.sender == rebalancer || msg.sender == owner(), \"6\");\r\n        _setAllocations(_allocations);\r\n    }\r\n\r\n    /**\r\n    * Used by Rebalancer or in openRebalance to set the new allocations\r\n    *\r\n    * @param _allocations : array with allocations in percentages (100% => 100000)\r\n    */\r\n    function _setAllocations(uint256[] memory _allocations) internal {\r\n        require(_allocations.length == allAvailableTokens.length, \"2\");\r\n        uint256 total;\r\n        for (uint256 i = 0; i < _allocations.length; i++) {\r\n            total = total.add(_allocations[i]);\r\n        }\r\n        lastRebalancerAllocations = _allocations;\r\n        require(total == FULL_ALLOC, \"7\");\r\n    }\r\n\r\n    // view\r\n    /**\r\n    * Get latest allocations submitted by rebalancer\r\n    *\r\n    * @return : array of allocations ordered as allAvailableTokens\r\n    */\r\n    function getAllocations() external view returns (uint256[] memory) {\r\n        return lastRebalancerAllocations;\r\n    }\r\n\r\n    /**\r\n    * Get currently used gov tokens\r\n    *\r\n    * @return : array of govTokens supported\r\n    */\r\n    function getGovTokens() external view returns (address[] memory) {\r\n        return govTokens;\r\n    }\r\n\r\n    /**\r\n    * Get currently used protocol tokens (cDAI, aDAI, ...)\r\n    *\r\n    * @return : array of protocol tokens supported\r\n    */\r\n    function getAllAvailableTokens() external view returns (address[] memory) {\r\n        return allAvailableTokens;\r\n    }\r\n\r\n    /**\r\n    * Get gov token associated to a protocol token eg protocolTokenToGov[cDAI] = COMP\r\n    *\r\n    * @return : address of the gov token\r\n    */\r\n    function getProtocolTokenToGov(address _protocolToken) external view returns (address) {\r\n        return protocolTokenToGov[_protocolToken];\r\n    }\r\n\r\n    /**\r\n    * DistToken price for a user considering fees, in underlying\r\n    * this is useful when you need to redeem exactly X underlying\r\n    *\r\n    * @return : price in underlying token counting fees for a specific user\r\n    */\r\n    function tokenPriceWithFee(address user)\r\n        external view\r\n        returns (uint256 priceWFee) {\r\n            uint256 userAvgPrice = userAvgPrices[user];\r\n            priceWFee = _tokenPrice();\r\n            if (userAvgPrice != 0 && priceWFee > userAvgPrice) {\r\n                priceWFee = priceWFee.mul(FULL_ALLOC).sub(fee.mul(priceWFee.sub(userAvgPrice))).div(FULL_ALLOC);\r\n            }\r\n    }\r\n\r\n    /**\r\n    * DistToken price calculation, in underlying\r\n    *\r\n    * @return : price in underlying token\r\n    */\r\n    function tokenPrice()\r\n        external view\r\n        returns (uint256) {\r\n        return _tokenPrice();\r\n    }\r\n\r\n\r\n    function _tokenPrice() internal view returns (uint256 price) {\r\n        uint256 totSupply = totalSupply();\r\n        if (totSupply == 0) {\r\n            return 10**(tokenDecimals);\r\n        }\r\n\r\n        address currToken;\r\n        uint256 totNav = _contractBalanceOf(token).mul(ONE_18); // eventual underlying unlent balance\r\n        address[] memory _allAvailableTokens = allAvailableTokens;\r\n        for (uint256 i = 0; i < _allAvailableTokens.length; i++) {\r\n            currToken = _allAvailableTokens[i];\r\n            totNav = totNav.add(\r\n                // NAV = price * poolSupply\r\n                _getPriceInToken(protocolWrappers[currToken]).mul(\r\n                    _contractBalanceOf(currToken)\r\n                )\r\n            );\r\n        }\r\n\r\n        price = totNav.div(totSupply); // distToken price in token wei\r\n    }\r\n\r\n    function _contractBalanceOf(address _token) private view returns (uint256) {\r\n        // Original implementation:\r\n        //\r\n        // return IERC20(_token).balanceOf(address(this));\r\n\r\n        // Optimized implementation inspired by uniswap https://github.com/Uniswap/uniswap-v3-core/blob/main/contracts/UniswapV3Pool.sol#L144\r\n        //\r\n        // 0x70a08231 -> selector for 'function balanceOf(address) returns (uint256)'\r\n        (bool success, bytes memory data) =\r\n            _token.staticcall(abi.encodeWithSelector(0x70a08231, address(this)));\r\n        require(success);\r\n        return abi.decode(data, (uint256));\r\n    }\r\n\r\n    /**\r\n    * Get price of 1 protocol token in underlyings\r\n    *\r\n    * @param _token : address of the protocol token\r\n    * @return price : price of protocol token\r\n    */\r\n    function _getPriceInToken(address _token) private view returns (uint256) {\r\n        return ILendingProtocol(_token).getPriceInToken();\r\n    }\r\n\r\n\r\n    // external\r\n    /**\r\n    * Used to mint DistTokens, given an underlying amount (eg. DAI).\r\n    * This method triggers a rebalance of the pools if _skipRebalance is set to false\r\n    * NOTE: User should 'approve' _amount of tokens before calling mintDistToken\r\n    * NOTE 2: this method can be paused\r\n    *\r\n    * @param _amount : amount of underlying token to be lended\r\n    * @param : not used anymore\r\n    * @param _referral : referral address\r\n    * @return mintedTokens : amount of DistTokens minted\r\n    */\r\n    function mintDistToken(uint256 _amount, bool, address _referral)\r\n        external nonReentrant whenNotPaused\r\n        returns (uint256 mintedTokens) {\r\n        _minterBlock = keccak256(abi.encodePacked(tx.origin, block.number));\r\n        _redeemGovTokens(msg.sender);\r\n        // Get current DistToken price\r\n        uint256 distPrice = _tokenPrice();\r\n        // transfer tokens to this contract\r\n        IERC20(token).safeTransferFrom(msg.sender, address(this), _amount);\r\n\r\n        mintedTokens = _amount.mul(ONE_18).div(distPrice);\r\n        _mint(msg.sender, mintedTokens);\r\n\r\n        // Update avg price and user idx for each gov tokens\r\n        _updateUserInfo(msg.sender, mintedTokens);\r\n        _updateUserFeeInfo(msg.sender, mintedTokens, distPrice);\r\n\r\n        if (_referral != address(0)) {\r\n        emit Referral(_amount, _referral);\r\n        }\r\n    }\r\n\r\n    /**\r\n    * Redeem unclaimed governance tokens and update governance global index and user index if needed\r\n    * if called during redeem it will send all gov tokens accrued by a user to the user\r\n    *\r\n    * @param _to : user address\r\n    */\r\n    function _redeemGovTokens(address _to) internal {\r\n        _redeemGovTokensInternal(_to, new bool[](govTokens.length));\r\n    }\r\n\r\n\r\n    /**\r\n    * Redeem unclaimed governance tokens and update governance global index and user index if needed\r\n    * if called during redeem it will send all gov tokens accrued by a user to the user\r\n    *\r\n    * @param _to : user address\r\n    * @param _skipGovTokenRedeem : array of flag for redeeming or not gov tokens\r\n    */\r\n    function _redeemGovTokensInternal(address _to, bool[] memory _skipGovTokenRedeem) internal {\r\n        address[] memory _govTokens = govTokens;\r\n        if (_govTokens.length == 0) {\r\n        return;\r\n        }\r\n        uint256 supply = totalSupply();\r\n        uint256 usrBal = balanceOf(_to);\r\n        address govToken;\r\n\r\n        if (supply > 0) {\r\n        for (uint256 i = 0; i < _govTokens.length; i++) {\r\n            govToken = _govTokens[i];\r\n\r\n            _redeemGovTokensFromProtocol(govToken);\r\n\r\n            // get current gov token balance\r\n            uint256 govBal = _contractBalanceOf(govToken);\r\n            if (govBal > 0) {\r\n            // update global index with ratio of govTokens per distToken\r\n            govTokensIndexes[govToken] = govTokensIndexes[govToken].add(\r\n                // check how much gov tokens for each distToken we gained since last update\r\n                govBal.sub(govTokensLastBalances[govToken]).mul(ONE_18).div(supply)\r\n            );\r\n            // update global var with current govToken balance\r\n            govTokensLastBalances[govToken] = govBal;\r\n            }\r\n\r\n            if (usrBal > 0) {\r\n            uint256 usrIndex = usersGovTokensIndexes[govToken][_to];\r\n            // check if user has accrued something\r\n            uint256 delta = govTokensIndexes[govToken].sub(usrIndex);\r\n            if (delta != 0) {\r\n                uint256 share = usrBal.mul(delta).div(ONE_18);\r\n                uint256 bal = _contractBalanceOf(govToken);\r\n                // To avoid rounding issue\r\n                if (share > bal) {\r\n                share = bal;\r\n                }\r\n                if (_skipGovTokenRedeem[i]) { // -> gift govTokens[i] accrued to the pool\r\n                // update global index with ratio of govTokens per distToken\r\n                govTokensIndexes[govToken] = govTokensIndexes[govToken].add(\r\n                    // check how much gov tokens for each distToken we gained since last update\r\n                    share.mul(ONE_18).div(supply.sub(usrBal))\r\n                );\r\n                } else {\r\n                uint256 feeDue;\r\n                // no fee for DIST governance token\r\n                if (feeAddress != address(0) && fee > 0 && govToken != DIST) {\r\n                    feeDue = share.mul(fee).div(FULL_ALLOC);\r\n                    // Transfer gov token fee to feeAddress\r\n                    _transferTokens(govToken, feeAddress, feeDue);\r\n                }\r\n                // Transfer gov token to user\r\n                _transferTokens(govToken, _to, share.sub(feeDue));\r\n                // Update last balance\r\n                govTokensLastBalances[govToken] = _contractBalanceOf(govToken);\r\n                }\r\n            }\r\n            }\r\n            // save current index for this gov token\r\n            usersGovTokensIndexes[govToken][_to] = govTokensIndexes[govToken];\r\n        }\r\n        }\r\n    }\r\n\r\n    /**\r\n    * Helper method for mintDistToken, updates minter gov indexes and avg price\r\n    *\r\n    * @param _to : minter account\r\n    * @param _mintedTokens : number of newly minted tokens\r\n    */\r\n    function _updateUserInfo(address _to, uint256 _mintedTokens) internal {\r\n        address govToken;\r\n        uint256 usrBal = balanceOf(_to);\r\n        uint256 _usrIdx;\r\n\r\n        for (uint256 i = 0; i < govTokens.length; i++) {\r\n        govToken = govTokens[i];\r\n        _usrIdx = usersGovTokensIndexes[govToken][_to];\r\n\r\n        // calculate user idx\r\n        usersGovTokensIndexes[govToken][_to] = _usrIdx.add(\r\n            _mintedTokens.mul(govTokensIndexes[govToken].sub(_usrIdx)).div(usrBal)\r\n        );\r\n        }\r\n    }\r\n\r\n    /**\r\n    * Update receiver userAvgPrice paid for each dist token,\r\n    * receiver will pay fees accrued\r\n    *\r\n    * @param usr : user that should have balance update\r\n    * @param qty : new amount deposited / transferred, in distToken\r\n    * @param price : sender userAvgPrice\r\n    */\r\n    function _updateUserFeeInfo(address usr, uint256 qty, uint256 price) private {\r\n        uint256 usrBal = balanceOf(usr);\r\n        // ((avgPrice * oldBalance) + (senderAvgPrice * newQty)) / totBalance\r\n        userAvgPrices[usr] = userAvgPrices[usr].mul(usrBal.sub(qty)).add(price.mul(qty)).div(usrBal);\r\n    }\r\n\r\n    /**\r\n    * Redeem a specific gov token\r\n    *\r\n    * @param _govToken : address of the gov token to redeem\r\n    */\r\n    function _redeemGovTokensFromProtocol(address _govToken) internal {\r\n        // In case new Gov tokens will be supported this should be updated\r\n        if (_govToken == COMP || _govToken == DIST || _govToken == stkAAVE) {\r\n        address[] memory holders = new address[](1);\r\n        holders[0] = address(this);\r\n\r\n        if (_govToken == DIST) {\r\n            // For DIST, the distribution is done only to DistTokens, so `holders` and\r\n            // `tokens` parameters are the same and equal to address(this)\r\n            DistController(distController).claimDist(holders, holders);\r\n            return;\r\n        }\r\n\r\n        address[] memory tokens = new address[](1);\r\n        if (_govToken == stkAAVE && aToken != address(0)) {\r\n            tokens[0] = aToken;\r\n            IAaveIncentivesController _ctrl = IAaveIncentivesController(AToken(tokens[0]).getIncentivesController());\r\n            _ctrl.claimRewards(tokens, _ctrl.getUserUnclaimedRewards(address(this)), address(this));\r\n            return;\r\n        }\r\n        if (cToken != address(0)) {\r\n            tokens[0] = cToken;\r\n            Comptroller(CERC20(tokens[0]).comptroller()).claimComp(holders, tokens, false, true);\r\n        }\r\n        }\r\n    }\r\n\r\n    function _transferTokens(address _token, address _to, uint256 _amount) internal {\r\n        IERC20(_token).safeTransfer(_to, _amount);\r\n    }\r\n\r\n}",
  "sourcePath": "C:\\Users\\Akanimoh Osutuk\\Documents\\Personal\\dissident\\dissident-contracts\\contracts\\DistTokenGovernance.sol",
  "compiler": {
    "name": "solc",
    "version": "0.5.16+commit.9c3226ce.Emscripten.clang"
  },
  "schemaVersion": "3.4.3",
  "updatedAt": "2022-01-20T14:16:17.427Z",
  "devdoc": {
    "methods": {
      "allowance(address,address)": {
        "details": "See {IERC20-allowance}."
      },
      "approve(address,uint256)": {
        "details": "See {IERC20-approve}.     * Requirements:     * - `spender` cannot be the zero address."
      },
      "balanceOf(address)": {
        "details": "See {IERC20-balanceOf}."
      },
      "decimals()": {
        "details": "Returns the number of decimals used to get its user representation. For example, if `decimals` equals `2`, a balance of `505` tokens should be displayed to a user as `5,05` (`505 / 10 ** 2`).     * Tokens usually opt for a value of 18, imitating the relationship between Ether and Wei.     * NOTE: This information is only used for _display_ purposes: it in no way affects any of the arithmetic of the contract, including {IERC20-balanceOf} and {IERC20-transfer}."
      },
      "decreaseAllowance(address,uint256)": {
        "details": "Atomically decreases the allowance granted to `spender` by the caller.     * This is an alternative to {approve} that can be used as a mitigation for problems described in {IERC20-approve}.     * Emits an {Approval} event indicating the updated allowance.     * Requirements:     * - `spender` cannot be the zero address. - `spender` must have allowance for the caller of at least `subtractedValue`."
      },
      "getAllAvailableTokens()": {
        "return": ": array of protocol tokens supported"
      },
      "getAllocations()": {
        "return": ": array of allocations ordered as allAvailableTokens"
      },
      "getGovTokens()": {
        "return": ": array of govTokens supported"
      },
      "getProtocolTokenToGov(address)": {
        "return": ": address of the gov token"
      },
      "increaseAllowance(address,uint256)": {
        "details": "Atomically increases the allowance granted to `spender` by the caller.     * This is an alternative to {approve} that can be used as a mitigation for problems described in {IERC20-approve}.     * Emits an {Approval} event indicating the updated allowance.     * Requirements:     * - `spender` cannot be the zero address."
      },
      "initialize(address)": {
        "details": "Initializes the contract in unpaused state. Assigns the Pauser role to the deployer."
      },
      "initialize(string,string,uint8)": {
        "details": "Sets the values for `name`, `symbol`, and `decimals`. All three of these values are immutable: they can only be set once during construction."
      },
      "isOwner()": {
        "details": "Returns true if the caller is the current owner."
      },
      "mintDistToken(uint256,bool,address)": {
        "params": {
          "": ": not used anymore",
          "_amount": ": amount of underlying token to be lended",
          "_referral": ": referral address"
        },
        "return": "mintedTokens : amount of DistTokens minted"
      },
      "name()": {
        "details": "Returns the name of the token."
      },
      "owner()": {
        "details": "Returns the address of the current owner."
      },
      "pause()": {
        "details": "Called by a pauser to pause, triggers stopped state."
      },
      "paused()": {
        "details": "Returns true if the contract is paused, and false otherwise."
      },
      "renounceOwnership()": {
        "details": "Leaves the contract without owner. It will not be possible to call `onlyOwner` functions anymore. Can only be called by the current owner.     * > Note: Renouncing ownership will leave the contract without an owner, thereby removing any functionality that is only available to the owner."
      },
      "setAToken(address)": {
        "params": {
          "_aToken": ": new aToken address"
        }
      },
      "setAllAvailableTokensAndWrappers(address[],address[],address[],address[])": {
        "params": {
          "_newGovTokens": ": array of governance token addresses",
          "_newGovTokensEqualLen": ": array of governance token addresses for each protocolToken (addr0 should be used for protocols with no govToken)",
          "protocolTokens": ": array of protocolTokens addresses (eg [cDAI, iDAI, ...])",
          "wrappers": ": array of wrapper addresses (eg [DistCompound, DistFulcrum, ...])"
        }
      },
      "setAllocations(uint256[])": {
        "params": {
          "_allocations": ": array with allocations in percentages (100% => 100000)"
        }
      },
      "setCToken(address)": {
        "params": {
          "_cToken": ": new cToken address"
        }
      },
      "setFee(uint256)": {
        "params": {
          "_fee": ": fee amount where 100000 is 100%, max settable is 10%"
        }
      },
      "setFeeAddress(address)": {
        "params": {
          "_feeAddress": ": fee address"
        }
      },
      "setMaxUnlentPerc(uint256)": {
        "params": {
          "_perc": ": max unlent perc where 100000 is 100%"
        }
      },
      "setOracleAddress(address)": {
        "params": {
          "_oracle": ": new oracle address"
        }
      },
      "setRebalancer(address)": {
        "params": {
          "_rebalancer": ": new DistRebalancerV3_1 address"
        }
      },
      "setTokenHelper(address)": {
        "params": {
          "_tokenHelper": ": new tokenHelper address"
        }
      },
      "symbol()": {
        "details": "Returns the symbol of the token, usually a shorter version of the name."
      },
      "tokenPrice()": {
        "return": ": price in underlying token"
      },
      "tokenPriceWithFee(address)": {
        "return": ": price in underlying token counting fees for a specific user"
      },
      "totalSupply()": {
        "details": "See {IERC20-totalSupply}."
      },
      "transfer(address,uint256)": {
        "details": "See {IERC20-transfer}.     * Requirements:     * - `recipient` cannot be the zero address. - the caller must have a balance of at least `amount`."
      },
      "transferFrom(address,address,uint256)": {
        "details": "See {IERC20-transferFrom}.     * Emits an {Approval} event indicating the updated allowance. This is not required by the EIP. See the note at the beginning of {ERC20};     * Requirements: - `sender` and `recipient` cannot be the zero address. - `sender` must have a balance of at least `amount`. - the caller must have allowance for `sender`'s tokens of at least `amount`."
      },
      "transferOwnership(address)": {
        "details": "Transfers ownership of the contract to a new account (`newOwner`). Can only be called by the current owner."
      },
      "unpause()": {
        "details": "Called by a pauser to unpause, returns to normal state."
      }
    }
  },
  "userdoc": {
    "methods": {
      "getAllAvailableTokens()": {
        "notice": "Get currently used protocol tokens (cDAI, aDAI, ...) "
      },
      "getAllocations()": {
        "notice": "Get latest allocations submitted by rebalancer "
      },
      "getGovTokens()": {
        "notice": "Get currently used gov tokens "
      },
      "getProtocolTokenToGov(address)": {
        "notice": "Get gov token associated to a protocol token eg protocolTokenToGov[cDAI] = COMP "
      },
      "mintDistToken(uint256,bool,address)": {
        "notice": "Used to mint DistTokens, given an underlying amount (eg. DAI). This method triggers a rebalance of the pools if _skipRebalance is set to false NOTE: User should 'approve' _amount of tokens before calling mintDistToken NOTE 2: this method can be paused "
      },
      "setAToken(address)": {
        "notice": "It allows owner to set the aToken address "
      },
      "setAllAvailableTokensAndWrappers(address[],address[],address[],address[])": {
        "notice": "It allows owner to modify allAvailableTokens array in case of emergency ie if a bug on a interest bearing token is discovered and reset protocolWrappers associated with those tokens. "
      },
      "setAllocations(uint256[])": {
        "notice": "Used by Rebalancer to set the new allocations "
      },
      "setCToken(address)": {
        "notice": "It allows owner to set the cToken address "
      },
      "setFee(uint256)": {
        "notice": "It allows owner to set the fee (1000 == 10% of gained interest) "
      },
      "setFeeAddress(address)": {
        "notice": "It allows owner to set the fee address "
      },
      "setMaxUnlentPerc(uint256)": {
        "notice": "It allows owner to set the max unlent asset percentage (1000 == 1% of unlent asset max) "
      },
      "setOracleAddress(address)": {
        "notice": "It allows owner to set the oracle address for getting avgAPR "
      },
      "setRebalancer(address)": {
        "notice": "It allows owner to set the DistRebalancerV3_1 address "
      },
      "setTokenHelper(address)": {
        "notice": "It allows owner to set the tokenHelper address "
      },
      "tokenPrice()": {
        "notice": "DistToken price calculation, in underlying "
      },
      "tokenPriceWithFee(address)": {
        "notice": "DistToken price for a user considering fees, in underlying this is useful when you need to redeem exactly X underlying "
      }
    }
  }
}