{
  "contractName": "DistTokenGovernance",
  "abi": [
    {
      "anonymous": false,
      "inputs": [
        {
          "indexed": true,
          "internalType": "address",
          "name": "owner",
          "type": "address"
        },
        {
          "indexed": true,
          "internalType": "address",
          "name": "spender",
          "type": "address"
        },
        {
          "indexed": false,
          "internalType": "uint256",
          "name": "value",
          "type": "uint256"
        }
      ],
      "name": "Approval",
      "type": "event"
    },
    {
      "anonymous": false,
      "inputs": [
        {
          "indexed": true,
          "internalType": "address",
          "name": "previousOwner",
          "type": "address"
        },
        {
          "indexed": true,
          "internalType": "address",
          "name": "newOwner",
          "type": "address"
        }
      ],
      "name": "OwnershipTransferred",
      "type": "event"
    },
    {
      "anonymous": false,
      "inputs": [
        {
          "indexed": false,
          "internalType": "address",
          "name": "account",
          "type": "address"
        }
      ],
      "name": "Paused",
      "type": "event"
    },
    {
      "anonymous": false,
      "inputs": [
        {
          "indexed": true,
          "internalType": "address",
          "name": "account",
          "type": "address"
        }
      ],
      "name": "PauserAdded",
      "type": "event"
    },
    {
      "anonymous": false,
      "inputs": [
        {
          "indexed": true,
          "internalType": "address",
          "name": "account",
          "type": "address"
        }
      ],
      "name": "PauserRemoved",
      "type": "event"
    },
    {
      "anonymous": false,
      "inputs": [
        {
          "indexed": true,
          "internalType": "address",
          "name": "from",
          "type": "address"
        },
        {
          "indexed": true,
          "internalType": "address",
          "name": "to",
          "type": "address"
        },
        {
          "indexed": false,
          "internalType": "uint256",
          "name": "value",
          "type": "uint256"
        }
      ],
      "name": "Transfer",
      "type": "event"
    },
    {
      "anonymous": false,
      "inputs": [
        {
          "indexed": false,
          "internalType": "address",
          "name": "account",
          "type": "address"
        }
      ],
      "name": "Unpaused",
      "type": "event"
    },
    {
      "constant": true,
      "inputs": [],
      "name": "COMP",
      "outputs": [
        {
          "internalType": "address",
          "name": "",
          "type": "address"
        }
      ],
      "payable": false,
      "stateMutability": "view",
      "type": "function"
    },
    {
      "constant": true,
      "inputs": [],
      "name": "DIST",
      "outputs": [
        {
          "internalType": "address",
          "name": "",
          "type": "address"
        }
      ],
      "payable": false,
      "stateMutability": "view",
      "type": "function"
    },
    {
      "constant": false,
      "inputs": [
        {
          "internalType": "address",
          "name": "account",
          "type": "address"
        }
      ],
      "name": "addPauser",
      "outputs": [],
      "payable": false,
      "stateMutability": "nonpayable",
      "type": "function"
    },
    {
      "constant": true,
      "inputs": [
        {
          "internalType": "uint256",
          "name": "",
          "type": "uint256"
        }
      ],
      "name": "allAvailableTokens",
      "outputs": [
        {
          "internalType": "address",
          "name": "",
          "type": "address"
        }
      ],
      "payable": false,
      "stateMutability": "view",
      "type": "function"
    },
    {
      "constant": true,
      "inputs": [
        {
          "internalType": "address",
          "name": "owner",
          "type": "address"
        },
        {
          "internalType": "address",
          "name": "spender",
          "type": "address"
        }
      ],
      "name": "allowance",
      "outputs": [
        {
          "internalType": "uint256",
          "name": "",
          "type": "uint256"
        }
      ],
      "payable": false,
      "stateMutability": "view",
      "type": "function"
    },
    {
      "constant": false,
      "inputs": [
        {
          "internalType": "address",
          "name": "spender",
          "type": "address"
        },
        {
          "internalType": "uint256",
          "name": "amount",
          "type": "uint256"
        }
      ],
      "name": "approve",
      "outputs": [
        {
          "internalType": "bool",
          "name": "",
          "type": "bool"
        }
      ],
      "payable": false,
      "stateMutability": "nonpayable",
      "type": "function"
    },
    {
      "constant": true,
      "inputs": [
        {
          "internalType": "address",
          "name": "account",
          "type": "address"
        }
      ],
      "name": "balanceOf",
      "outputs": [
        {
          "internalType": "uint256",
          "name": "",
          "type": "uint256"
        }
      ],
      "payable": false,
      "stateMutability": "view",
      "type": "function"
    },
    {
      "constant": true,
      "inputs": [],
      "name": "decimals",
      "outputs": [
        {
          "internalType": "uint8",
          "name": "",
          "type": "uint8"
        }
      ],
      "payable": false,
      "stateMutability": "view",
      "type": "function"
    },
    {
      "constant": false,
      "inputs": [
        {
          "internalType": "address",
          "name": "spender",
          "type": "address"
        },
        {
          "internalType": "uint256",
          "name": "subtractedValue",
          "type": "uint256"
        }
      ],
      "name": "decreaseAllowance",
      "outputs": [
        {
          "internalType": "bool",
          "name": "",
          "type": "bool"
        }
      ],
      "payable": false,
      "stateMutability": "nonpayable",
      "type": "function"
    },
    {
      "constant": true,
      "inputs": [],
      "name": "distController",
      "outputs": [
        {
          "internalType": "address",
          "name": "",
          "type": "address"
        }
      ],
      "payable": false,
      "stateMutability": "view",
      "type": "function"
    },
    {
      "constant": true,
      "inputs": [],
      "name": "fee",
      "outputs": [
        {
          "internalType": "uint256",
          "name": "",
          "type": "uint256"
        }
      ],
      "payable": false,
      "stateMutability": "view",
      "type": "function"
    },
    {
      "constant": true,
      "inputs": [],
      "name": "feeAddress",
      "outputs": [
        {
          "internalType": "address",
          "name": "",
          "type": "address"
        }
      ],
      "payable": false,
      "stateMutability": "view",
      "type": "function"
    },
    {
      "constant": true,
      "inputs": [
        {
          "internalType": "uint256",
          "name": "",
          "type": "uint256"
        }
      ],
      "name": "govTokens",
      "outputs": [
        {
          "internalType": "address",
          "name": "",
          "type": "address"
        }
      ],
      "payable": false,
      "stateMutability": "view",
      "type": "function"
    },
    {
      "constant": false,
      "inputs": [
        {
          "internalType": "address",
          "name": "spender",
          "type": "address"
        },
        {
          "internalType": "uint256",
          "name": "addedValue",
          "type": "uint256"
        }
      ],
      "name": "increaseAllowance",
      "outputs": [
        {
          "internalType": "bool",
          "name": "",
          "type": "bool"
        }
      ],
      "payable": false,
      "stateMutability": "nonpayable",
      "type": "function"
    },
    {
      "constant": false,
      "inputs": [
        {
          "internalType": "string",
          "name": "name",
          "type": "string"
        },
        {
          "internalType": "string",
          "name": "symbol",
          "type": "string"
        },
        {
          "internalType": "uint8",
          "name": "decimals",
          "type": "uint8"
        }
      ],
      "name": "initialize",
      "outputs": [],
      "payable": false,
      "stateMutability": "nonpayable",
      "type": "function"
    },
    {
      "constant": false,
      "inputs": [],
      "name": "initialize",
      "outputs": [],
      "payable": false,
      "stateMutability": "nonpayable",
      "type": "function"
    },
    {
      "constant": false,
      "inputs": [
        {
          "internalType": "address",
          "name": "sender",
          "type": "address"
        }
      ],
      "name": "initialize",
      "outputs": [],
      "payable": false,
      "stateMutability": "nonpayable",
      "type": "function"
    },
    {
      "constant": true,
      "inputs": [],
      "name": "isOwner",
      "outputs": [
        {
          "internalType": "bool",
          "name": "",
          "type": "bool"
        }
      ],
      "payable": false,
      "stateMutability": "view",
      "type": "function"
    },
    {
      "constant": true,
      "inputs": [
        {
          "internalType": "address",
          "name": "account",
          "type": "address"
        }
      ],
      "name": "isPauser",
      "outputs": [
        {
          "internalType": "bool",
          "name": "",
          "type": "bool"
        }
      ],
      "payable": false,
      "stateMutability": "view",
      "type": "function"
    },
    {
      "constant": true,
      "inputs": [],
      "name": "maxUnlentPerc",
      "outputs": [
        {
          "internalType": "uint256",
          "name": "",
          "type": "uint256"
        }
      ],
      "payable": false,
      "stateMutability": "view",
      "type": "function"
    },
    {
      "constant": true,
      "inputs": [],
      "name": "name",
      "outputs": [
        {
          "internalType": "string",
          "name": "",
          "type": "string"
        }
      ],
      "payable": false,
      "stateMutability": "view",
      "type": "function"
    },
    {
      "constant": true,
      "inputs": [],
      "name": "oracle",
      "outputs": [
        {
          "internalType": "address",
          "name": "",
          "type": "address"
        }
      ],
      "payable": false,
      "stateMutability": "view",
      "type": "function"
    },
    {
      "constant": true,
      "inputs": [],
      "name": "owner",
      "outputs": [
        {
          "internalType": "address",
          "name": "",
          "type": "address"
        }
      ],
      "payable": false,
      "stateMutability": "view",
      "type": "function"
    },
    {
      "constant": false,
      "inputs": [],
      "name": "pause",
      "outputs": [],
      "payable": false,
      "stateMutability": "nonpayable",
      "type": "function"
    },
    {
      "constant": true,
      "inputs": [],
      "name": "paused",
      "outputs": [
        {
          "internalType": "bool",
          "name": "",
          "type": "bool"
        }
      ],
      "payable": false,
      "stateMutability": "view",
      "type": "function"
    },
    {
      "constant": true,
      "inputs": [
        {
          "internalType": "address",
          "name": "",
          "type": "address"
        }
      ],
      "name": "protocolWrappers",
      "outputs": [
        {
          "internalType": "address",
          "name": "",
          "type": "address"
        }
      ],
      "payable": false,
      "stateMutability": "view",
      "type": "function"
    },
    {
      "constant": true,
      "inputs": [],
      "name": "rebalancer",
      "outputs": [
        {
          "internalType": "address",
          "name": "",
          "type": "address"
        }
      ],
      "payable": false,
      "stateMutability": "view",
      "type": "function"
    },
    {
      "constant": false,
      "inputs": [],
      "name": "renounceOwnership",
      "outputs": [],
      "payable": false,
      "stateMutability": "nonpayable",
      "type": "function"
    },
    {
      "constant": false,
      "inputs": [],
      "name": "renouncePauser",
      "outputs": [],
      "payable": false,
      "stateMutability": "nonpayable",
      "type": "function"
    },
    {
      "constant": true,
      "inputs": [],
      "name": "stkAAVE",
      "outputs": [
        {
          "internalType": "address",
          "name": "",
          "type": "address"
        }
      ],
      "payable": false,
      "stateMutability": "view",
      "type": "function"
    },
    {
      "constant": true,
      "inputs": [],
      "name": "symbol",
      "outputs": [
        {
          "internalType": "string",
          "name": "",
          "type": "string"
        }
      ],
      "payable": false,
      "stateMutability": "view",
      "type": "function"
    },
    {
      "constant": true,
      "inputs": [],
      "name": "token",
      "outputs": [
        {
          "internalType": "address",
          "name": "",
          "type": "address"
        }
      ],
      "payable": false,
      "stateMutability": "view",
      "type": "function"
    },
    {
      "constant": true,
      "inputs": [],
      "name": "tokenHelper",
      "outputs": [
        {
          "internalType": "address",
          "name": "",
          "type": "address"
        }
      ],
      "payable": false,
      "stateMutability": "view",
      "type": "function"
    },
    {
      "constant": true,
      "inputs": [],
      "name": "totalSupply",
      "outputs": [
        {
          "internalType": "uint256",
          "name": "",
          "type": "uint256"
        }
      ],
      "payable": false,
      "stateMutability": "view",
      "type": "function"
    },
    {
      "constant": false,
      "inputs": [
        {
          "internalType": "address",
          "name": "recipient",
          "type": "address"
        },
        {
          "internalType": "uint256",
          "name": "amount",
          "type": "uint256"
        }
      ],
      "name": "transfer",
      "outputs": [
        {
          "internalType": "bool",
          "name": "",
          "type": "bool"
        }
      ],
      "payable": false,
      "stateMutability": "nonpayable",
      "type": "function"
    },
    {
      "constant": false,
      "inputs": [
        {
          "internalType": "address",
          "name": "sender",
          "type": "address"
        },
        {
          "internalType": "address",
          "name": "recipient",
          "type": "address"
        },
        {
          "internalType": "uint256",
          "name": "amount",
          "type": "uint256"
        }
      ],
      "name": "transferFrom",
      "outputs": [
        {
          "internalType": "bool",
          "name": "",
          "type": "bool"
        }
      ],
      "payable": false,
      "stateMutability": "nonpayable",
      "type": "function"
    },
    {
      "constant": false,
      "inputs": [
        {
          "internalType": "address",
          "name": "newOwner",
          "type": "address"
        }
      ],
      "name": "transferOwnership",
      "outputs": [],
      "payable": false,
      "stateMutability": "nonpayable",
      "type": "function"
    },
    {
      "constant": false,
      "inputs": [],
      "name": "unpause",
      "outputs": [],
      "payable": false,
      "stateMutability": "nonpayable",
      "type": "function"
    },
    {
      "constant": true,
      "inputs": [
        {
          "internalType": "address",
          "name": "",
          "type": "address"
        }
      ],
      "name": "userAvgPrices",
      "outputs": [
        {
          "internalType": "uint256",
          "name": "",
          "type": "uint256"
        }
      ],
      "payable": false,
      "stateMutability": "view",
      "type": "function"
    },
    {
      "constant": false,
      "inputs": [
        {
          "internalType": "address[]",
          "name": "protocolTokens",
          "type": "address[]"
        },
        {
          "internalType": "address[]",
          "name": "wrappers",
          "type": "address[]"
        },
        {
          "internalType": "address[]",
          "name": "_newGovTokens",
          "type": "address[]"
        },
        {
          "internalType": "address[]",
          "name": "_newGovTokensEqualLen",
          "type": "address[]"
        }
      ],
      "name": "setAllAvailableTokensAndWrappers",
      "outputs": [],
      "payable": false,
      "stateMutability": "nonpayable",
      "type": "function"
    },
    {
      "constant": false,
      "inputs": [
        {
          "internalType": "address",
          "name": "_cToken",
          "type": "address"
        }
      ],
      "name": "setCToken",
      "outputs": [],
      "payable": false,
      "stateMutability": "nonpayable",
      "type": "function"
    },
    {
      "constant": false,
      "inputs": [
        {
          "internalType": "address",
          "name": "_aToken",
          "type": "address"
        }
      ],
      "name": "setAToken",
      "outputs": [],
      "payable": false,
      "stateMutability": "nonpayable",
      "type": "function"
    },
    {
      "constant": false,
      "inputs": [
        {
          "internalType": "address",
          "name": "_tokenHelper",
          "type": "address"
        }
      ],
      "name": "setTokenHelper",
      "outputs": [],
      "payable": false,
      "stateMutability": "nonpayable",
      "type": "function"
    },
    {
      "constant": false,
      "inputs": [
        {
          "internalType": "address",
          "name": "_rebalancer",
          "type": "address"
        }
      ],
      "name": "setRebalancer",
      "outputs": [],
      "payable": false,
      "stateMutability": "nonpayable",
      "type": "function"
    },
    {
      "constant": false,
      "inputs": [
        {
          "internalType": "uint256",
          "name": "_fee",
          "type": "uint256"
        }
      ],
      "name": "setFee",
      "outputs": [],
      "payable": false,
      "stateMutability": "nonpayable",
      "type": "function"
    },
    {
      "constant": false,
      "inputs": [
        {
          "internalType": "address",
          "name": "_feeAddress",
          "type": "address"
        }
      ],
      "name": "setFeeAddress",
      "outputs": [],
      "payable": false,
      "stateMutability": "nonpayable",
      "type": "function"
    },
    {
      "constant": false,
      "inputs": [
        {
          "internalType": "address",
          "name": "_oracle",
          "type": "address"
        }
      ],
      "name": "setOracleAddress",
      "outputs": [],
      "payable": false,
      "stateMutability": "nonpayable",
      "type": "function"
    },
    {
      "constant": false,
      "inputs": [
        {
          "internalType": "uint256",
          "name": "_perc",
          "type": "uint256"
        }
      ],
      "name": "setMaxUnlentPerc",
      "outputs": [],
      "payable": false,
      "stateMutability": "nonpayable",
      "type": "function"
    },
    {
      "constant": false,
      "inputs": [
        {
          "internalType": "uint256[]",
          "name": "_allocations",
          "type": "uint256[]"
        }
      ],
      "name": "setAllocations",
      "outputs": [],
      "payable": false,
      "stateMutability": "nonpayable",
      "type": "function"
    },
    {
      "constant": true,
      "inputs": [],
      "name": "getAllocations",
      "outputs": [
        {
          "internalType": "uint256[]",
          "name": "",
          "type": "uint256[]"
        }
      ],
      "payable": false,
      "stateMutability": "view",
      "type": "function"
    },
    {
      "constant": true,
      "inputs": [],
      "name": "getGovTokens",
      "outputs": [
        {
          "internalType": "address[]",
          "name": "",
          "type": "address[]"
        }
      ],
      "payable": false,
      "stateMutability": "view",
      "type": "function"
    },
    {
      "constant": true,
      "inputs": [],
      "name": "getAllAvailableTokens",
      "outputs": [
        {
          "internalType": "address[]",
          "name": "",
          "type": "address[]"
        }
      ],
      "payable": false,
      "stateMutability": "view",
      "type": "function"
    },
    {
      "constant": true,
      "inputs": [
        {
          "internalType": "address",
          "name": "_protocolToken",
          "type": "address"
        }
      ],
      "name": "getProtocolTokenToGov",
      "outputs": [
        {
          "internalType": "address",
          "name": "",
          "type": "address"
        }
      ],
      "payable": false,
      "stateMutability": "view",
      "type": "function"
    },
    {
      "constant": true,
      "inputs": [
        {
          "internalType": "address",
          "name": "user",
          "type": "address"
        }
      ],
      "name": "tokenPriceWithFee",
      "outputs": [
        {
          "internalType": "uint256",
          "name": "priceWFee",
          "type": "uint256"
        }
      ],
      "payable": false,
      "stateMutability": "view",
      "type": "function"
    },
    {
      "constant": true,
      "inputs": [],
      "name": "tokenPrice",
      "outputs": [
        {
          "internalType": "uint256",
          "name": "",
          "type": "uint256"
        }
      ],
      "payable": false,
      "stateMutability": "view",
      "type": "function"
    }
  ],
  "bytecode": "0x6080604052612c90806100136000396000f3fe608060405234801561001057600080fd5b506004361061027d5760003560e01c806301d22ccd1461028257806306fdde03146102a6578063095ea7b3146103235780630b56d157146103635780630df94ef21461038257806312ea5c7e146103ba5780631624f6c61461041257806318160ddd146105405780631fc29c011461054857806323b872dd146105505780632b1b4bb0146105865780632fdc91ee146105ac578063313ce567146105b457806336a00082146105d257806339509351146105ef5780633f4ba83a1461061b578063412753581461062357806345c8026c1461062b57806346fbf68e146106515780634b48f16d146106775780634c69c00f1461067f5780634cb71222146106a557806354924507146106cb5780635c975abb146106d35780635f09d84c146106db57806365ed6e231461070157806369fe0e2d146107095780636c11ec96146107265780636cfd15531461074c5780636ef8d66d1461077257806370a082311461077a57806370dd97fb146107a0578063715018a6146107a8578063746daa4e146107b05780637dc0d1d0146107cd5780637ff9b596146107d55780638129fc1c146107dd57806382dc1ec4146107e55780638456cb591461080b5780638705fcd4146108135780638cba1444146108395780638da5cb5b1461085f5780638f32d59b1461086757806395d89b411461086f578063a457c2d714610877578063a6ea311c146108a3578063a9059cbb146108ab578063b71501bc146108d7578063c498c515146108df578063c4d66de81461094d578063dd62ed3e14610973578063ddca3f43146109a1578063f16c88db146109a9578063f2fde38b14610b07578063fc0c546a14610b2d575b600080fd5b61028a610b35565b604080516001600160a01b039092168252519081900360200190f35b6102ae610b45565b6040805160208082528351818301528351919283929083019185019080838360005b838110156102e85781810151838201526020016102d0565b50505050905090810190601f1680156103155780820380516001836020036101000a031916815260200191505b509250505060405180910390f35b61034f6004803603604081101561033957600080fd5b506001600160a01b038135169060200135610bdc565b604080519115158252519081900360200190f35b6103806004803603602081101561037957600080fd5b5035610bfa565b005b6103a86004803603602081101561039857600080fd5b50356001600160a01b0316610c86565b60408051918252519081900360200190f35b6103c2610c99565b60408051602080825283518183015283519192839290830191858101910280838360005b838110156103fe5781810151838201526020016103e6565b505050509050019250505060405180910390f35b6103806004803603606081101561042857600080fd5b810190602081018135600160201b81111561044257600080fd5b82018360208201111561045457600080fd5b803590602001918460018302840111600160201b8311171561047557600080fd5b91908080601f0160208091040260200160405190810160405280939291908181526020018383808284376000920191909152509295949360208101935035915050600160201b8111156104c757600080fd5b8201836020820111156104d957600080fd5b803590602001918460018302840111600160201b831117156104fa57600080fd5b91908080601f0160208091040260200160405190810160405280939291908181526020018383808284376000920191909152509295505050903560ff169150610cfb9050565b6103a8610dd7565b61028a610ddd565b61034f6004803603606081101561056657600080fd5b506001600160a01b03813581169160208101359091169060400135610df5565b61028a6004803603602081101561059c57600080fd5b50356001600160a01b0316610e82565b61028a610ea1565b6105bc610eb1565b6040805160ff9092168252519081900360200190f35b61028a600480360360208110156105e857600080fd5b5035610eba565b61034f6004803603604081101561060557600080fd5b506001600160a01b038135169060200135610ee2565b610380610f36565b61028a611021565b61028a6004803603602081101561064157600080fd5b50356001600160a01b0316611031565b61034f6004803603602081101561066757600080fd5b50356001600160a01b031661104d565b61028a611061565b6103806004803603602081101561069557600080fd5b50356001600160a01b0316611079565b610380600480360360208110156106bb57600080fd5b50356001600160a01b0316611114565b6103a86111af565b61034f6111b6565b610380600480360360208110156106f157600080fd5b50356001600160a01b03166111c0565b6103c261125b565b6103806004803603602081101561071f57600080fd5b50356112b3565b6103806004803603602081101561073c57600080fd5b50356001600160a01b031661133b565b6103806004803603602081101561076257600080fd5b50356001600160a01b03166113d6565b610380611471565b6103a86004803603602081101561079057600080fd5b50356001600160a01b0316611483565b61028a61149e565b6103806114b6565b61028a600480360360208110156107c657600080fd5b5035611535565b61028a611543565b6103a8611553565b610380611562565b610380600480360360208110156107fb57600080fd5b50356001600160a01b0316611608565b610380611657565b6103806004803603602081101561082957600080fd5b50356001600160a01b0316611720565b6103a86004803603602081101561084f57600080fd5b50356001600160a01b03166117bb565b61028a611853565b61034f611862565b6102ae611888565b61034f6004803603604081101561088d57600080fd5b506001600160a01b0381351690602001356118e9565b6103c2611957565b61034f600480360360408110156108c157600080fd5b506001600160a01b0381351690602001356119b8565b61028a6119cc565b610380600480360360208110156108f557600080fd5b810190602081018135600160201b81111561090f57600080fd5b82018360208201111561092157600080fd5b803590602001918460208302840111600160201b8311171561094257600080fd5b5090925090506119e4565b6103806004803603602081101561096357600080fd5b50356001600160a01b0316611a8b565b6103a86004803603604081101561098957600080fd5b506001600160a01b0381358116916020013516611b41565b6103a8611b6c565b610380600480360360808110156109bf57600080fd5b810190602081018135600160201b8111156109d957600080fd5b8201836020820111156109eb57600080fd5b803590602001918460208302840111600160201b83111715610a0c57600080fd5b919390929091602081019035600160201b811115610a2957600080fd5b820183602082011115610a3b57600080fd5b803590602001918460208302840111600160201b83111715610a5c57600080fd5b919390929091602081019035600160201b811115610a7957600080fd5b820183602082011115610a8b57600080fd5b803590602001918460208302840111600160201b83111715610aac57600080fd5b919390929091602081019035600160201b811115610ac957600080fd5b820183602082011115610adb57600080fd5b803590602001918460208302840111600160201b83111715610afc57600080fd5b509092509050611b73565b61038060048036036020811015610b1d57600080fd5b50356001600160a01b0316611d48565b61028a611d98565b61016c546001600160a01b031681565b60688054604080516020601f6002600019610100600188161502019095169490940493840181900481028201810190925282815260609390929091830182828015610bd15780601f10610ba657610100808354040283529160200191610bd1565b820191906000526020600020905b815481529060010190602001808311610bb457829003601f168201915b505050505090505b90565b6000610bf0610be9611da8565b8484611dac565b5060015b92915050565b610c02611862565b610c41576040805162461bcd60e51b81526020600482018190526024820152600080516020612b5e833981519152604482015290519081900360640190fd5b620186a08161016e8190551115610c83576040805162461bcd60e51b81526020600482015260016024820152603560f81b604482015290519081900360640190fd5b50565b6101746020526000908152604090205481565b6060610172805480602002602001604051908101604052809291908181526020018280548015610bd157602002820191906000526020600020905b81546001600160a01b03168152600190910190602001808311610cd4575050505050905090565b600054610100900460ff1680610d145750610d14611e98565b80610d22575060005460ff16155b610d5d5760405162461bcd60e51b815260040180806020018281038252602e815260200180612bc0602e913960400191505060405180910390fd5b600054610100900460ff16158015610d88576000805460ff1961ff0019909116610100171660011790555b8351610d9b9060689060208701906128dd565b508251610daf9060699060208601906128dd565b50606a805460ff191660ff84161790558015610dd1576000805461ff00191690555b50505050565b60355490565b734da27a545c0c5b758a6ba100e3a049001de870f581565b6000610e02848484611e9e565b610e7884610e0e611da8565b610e7385604051806060016040528060288152602001612b36602891396001600160a01b038a16600090815260346020526040812090610e4c611da8565b6001600160a01b03168152602081019190915260400160002054919063ffffffff611ffc16565b611dac565b5060019392505050565b6001600160a01b03908116600090815261017860205260409020541690565b610175546001600160a01b031681565b606a5460ff1690565b6101728181548110610ec857fe5b6000918252602090912001546001600160a01b0316905081565b6000610bf0610eef611da8565b84610e738560346000610f00611da8565b6001600160a01b03908116825260208083019390935260409182016000908120918c16815292529020549063ffffffff61209316565b610f46610f41611da8565b61104d565b610f815760405162461bcd60e51b8152600401808060200182810382526030815260200180612a566030913960400191505060405180910390fd5b6101365460ff16610fd0576040805162461bcd60e51b815260206004820152601460248201527314185d5cd8589b194e881b9bdd081c185d5cd95960621b604482015290519081900360640190fd5b610136805460ff191690557f5db9ee0a495bf2e6ff9c91a7834c1ba4fdd244a5e8aa4e537bd38aeae4b073aa611004611da8565b604080516001600160a01b039092168252519081900360200190a1565b61016d546001600160a01b031681565b610173602052600090815260409020546001600160a01b031681565b6000610bf46101038363ffffffff6120f216565b73275da8e61ea8e02d51edd8d0dc5c0e62b4cdb0be81565b611081611862565b6110c0576040805162461bcd60e51b81526020600482018190526024820152600080516020612b5e833981519152604482015290519081900360640190fd5b61017780546001600160a01b0319166001600160a01b038316908117909155610c83576040805162461bcd60e51b81526020600482015260016024820152600360fc1b604482015290519081900360640190fd5b61111c611862565b61115b576040805162461bcd60e51b81526020600482018190526024820152600080516020612b5e833981519152604482015290519081900360640190fd5b61016b80546001600160a01b0319166001600160a01b038316908117909155610c83576040805162461bcd60e51b81526020600482015260016024820152600360fc1b604482015290519081900360640190fd5b61016e5481565b6101365460ff1690565b6111c8611862565b611207576040805162461bcd60e51b81526020600482018190526024820152600080516020612b5e833981519152604482015290519081900360640190fd5b61017680546001600160a01b0319166001600160a01b038316908117909155610c83576040805162461bcd60e51b81526020600482015260016024820152600360fc1b604482015290519081900360640190fd5b6060610179805480602002602001604051908101604052809291908181526020018280548015610bd157602002820191906000526020600020905b815481526020019060010190808311611296575050505050905090565b6112bb611862565b6112fa576040805162461bcd60e51b81526020600482018190526024820152600080516020612b5e833981519152604482015290519081900360640190fd5b61016f819055612710811115610c83576040805162461bcd60e51b81526020600482015260016024820152603560f81b604482015290519081900360640190fd5b611343611862565b611382576040805162461bcd60e51b81526020600482018190526024820152600080516020612b5e833981519152604482015290519081900360640190fd5b61017580546001600160a01b0319166001600160a01b038316908117909155610c83576040805162461bcd60e51b81526020600482015260016024820152600360fc1b604482015290519081900360640190fd5b6113de611862565b61141d576040805162461bcd60e51b81526020600482018190526024820152600080516020612b5e833981519152604482015290519081900360640190fd5b61016c80546001600160a01b0319166001600160a01b038316908117909155610c83576040805162461bcd60e51b81526020600482015260016024820152600360fc1b604482015290519081900360640190fd5b61148161147c611da8565b612159565b565b6001600160a01b031660009081526033602052604090205490565b73875773784af8135ea0ef43b5a374aad105c5d39e81565b6114be611862565b6114fd576040805162461bcd60e51b81526020600482018190526024820152600080516020612b5e833981519152604482015290519081900360640190fd5b60d0546040516000916001600160a01b031690600080516020612b7e833981519152908390a360d080546001600160a01b0319169055565b6101718181548110610ec857fe5b610177546001600160a01b031681565b600061155d6121a2565b905090565b600054610100900460ff168061157b575061157b611e98565b80611589575060005460ff16155b6115c45760405162461bcd60e51b815260040180806020018281038252602e815260200180612bc0602e913960400191505060405180910390fd5b600054610100900460ff161580156115ef576000805460ff1961ff0019909116610100171660011790555b6001609d558015610c83576000805461ff001916905550565b611613610f41611da8565b61164e5760405162461bcd60e51b8152600401808060200182810382526030815260200180612a566030913960400191505060405180910390fd5b610c83816122e2565b611662610f41611da8565b61169d5760405162461bcd60e51b8152600401808060200182810382526030815260200180612a566030913960400191505060405180910390fd5b6101365460ff16156116e9576040805162461bcd60e51b815260206004820152601060248201526f14185d5cd8589b194e881c185d5cd95960821b604482015290519081900360640190fd5b610136805460ff191660011790557f62e78cea01bee320cd4e420270b5ea74000d11b0c9f74754ebdbfc544b05a258611004611da8565b611728611862565b611767576040805162461bcd60e51b81526020600482018190526024820152600080516020612b5e833981519152604482015290519081900360640190fd5b61016d80546001600160a01b0319166001600160a01b038316908117909155610c83576040805162461bcd60e51b81526020600482015260016024820152600360fc1b604482015290519081900360640190fd5b6001600160a01b038116600090815261017460205260408120546117dd6121a2565b915080158015906117ed57508082115b1561184d5761184a620186a061183e61181f61180f868663ffffffff61232b16565b61016f549063ffffffff61236d16565b61183286620186a063ffffffff61236d16565b9063ffffffff61232b16565b9063ffffffff6123c616565b91505b50919050565b60d0546001600160a01b031690565b60d0546000906001600160a01b0316611879611da8565b6001600160a01b031614905090565b60698054604080516020601f6002600019610100600188161502019095169490940493840181900481028201810190925282815260609390929091830182828015610bd15780601f10610ba657610100808354040283529160200191610bd1565b6000610bf06118f6611da8565b84610e7385604051806060016040528060258152602001612c376025913960346000611920611da8565b6001600160a01b03908116825260208083019390935260409182016000908120918d1681529252902054919063ffffffff611ffc16565b6060610171805480602002602001604051908101604052809291908181526020018280548015610bd1576020028201919060005260206000209081546001600160a01b03168152600190910190602001808311610cd4575050505050905090565b6000610bf06119c5611da8565b8484611e9e565b73c00e94cb662c3520282e6f5717214004a7f2688881565b61016c546001600160a01b0316331480611a165750611a01611853565b6001600160a01b0316336001600160a01b0316145b611a4b576040805162461bcd60e51b81526020600482015260016024820152601b60f91b604482015290519081900360640190fd5b611a8782828080602002602001604051908101604052809392919081815260200183836020028082843760009201919091525061240592505050565b5050565b600054610100900460ff1680611aa45750611aa4611e98565b80611ab2575060005460ff16155b611aed5760405162461bcd60e51b815260040180806020018281038252602e815260200180612bc0602e913960400191505060405180910390fd5b600054610100900460ff16158015611b18576000805460ff1961ff0019909116610100171660011790555b611b21826124cf565b610136805460ff191690558015611a87576000805461ff00191690555050565b6001600160a01b03918216600090815260346020908152604080832093909416825291909152205490565b61016f5481565b611b7b611862565b611bba576040805162461bcd60e51b81526020600482018190526024820152600080516020612b5e833981519152604482015290519081900360640190fd5b868514611bf2576040805162461bcd60e51b81526020600482015260016024820152601960f91b604482015290519081900360640190fd5b86811015611c2b576040805162461bcd60e51b81526020600482015260016024820152603360f81b604482015290519081900360640190fd5b611c38610171858561295b565b50600080805b89811015611d2d578a8a82818110611c5257fe5b905060200201356001600160a01b0316915060006001600160a01b0316826001600160a01b031614158015611cac57506000898983818110611c9057fe5b905060200201356001600160a01b03166001600160a01b031614155b611ce1576040805162461bcd60e51b81526020600482015260016024820152600360fc1b604482015290519081900360640190fd5b888882818110611ced57fe5b6001600160a01b0385811660009081526101736020908152604090912080546001600160a01b031916939091029490940135161790915550600101611c3e565b50611d3b6101728b8b61295b565b5050505050505050505050565b611d50611862565b611d8f576040805162461bcd60e51b81526020600482018190526024820152600080516020612b5e833981519152604482015290519081900360640190fd5b610c8381612587565b610169546001600160a01b031681565b3390565b6001600160a01b038316611df15760405162461bcd60e51b8152600401808060200182810382526024815260200180612c136024913960400191505060405180910390fd5b6001600160a01b038216611e365760405162461bcd60e51b8152600401808060200182810382526022815260200180612aac6022913960400191505060405180910390fd5b6001600160a01b03808416600081815260346020908152604080832094871680845294825291829020859055815185815291517f8c5be1e5ebec7d5bd14f71427d1e84f3dd0314c0f7b2291e5b200ac8c7c3b9259281900390910190a3505050565b303b1590565b6001600160a01b038316611ee35760405162461bcd60e51b8152600401808060200182810382526025815260200180612bee6025913960400191505060405180910390fd5b6001600160a01b038216611f285760405162461bcd60e51b8152600401808060200182810382526023815260200180612a336023913960400191505060405180910390fd5b611f6b81604051806060016040528060268152602001612ace602691396001600160a01b038616600090815260336020526040902054919063ffffffff611ffc16565b6001600160a01b038085166000908152603360205260408082209390935590841681522054611fa0908263ffffffff61209316565b6001600160a01b0380841660008181526033602090815260409182902094909455805185815290519193928716927fddf252ad1be2c89b69c2b068fc378daa952ba7f163c4a11628f55a4df523b3ef92918290030190a3505050565b6000818484111561208b5760405162461bcd60e51b81526004018080602001828103825283818151815260200191508051906020019080838360005b83811015612050578181015183820152602001612038565b50505050905090810190601f16801561207d5780820380516001836020036101000a031916815260200191505b509250505060405180910390fd5b505050900390565b6000828201838110156120eb576040805162461bcd60e51b815260206004820152601b60248201527a536166654d6174683a206164646974696f6e206f766572666c6f7760281b604482015290519081900360640190fd5b9392505050565b60006001600160a01b0382166121395760405162461bcd60e51b8152600401808060200182810382526022815260200180612b9e6022913960400191505060405180910390fd5b506001600160a01b03166000908152602091909152604090205460ff1690565b61216b6101038263ffffffff61261616565b6040516001600160a01b038216907fcd265ebaf09df2871cc7bd4133404a235ba12eff2041bb89d9c714a2621c7c7e90600090a250565b6000806121ad610dd7565b9050806121c257505061017054600a0a610bd9565b6101695460009081906121f790670de0b6b3a7640000906121eb906001600160a01b031661267d565b9063ffffffff61236d16565b9050606061017280548060200260200160405190810160405280929190818152602001828054801561225257602002820191906000526020600020905b81546001600160a01b03168152600190910190602001808311612234575b50939450600093505050505b81518110156122c85781818151811061227357fe5b602002602001015193506122be6122b161228c8661267d565b6001600160a01b03808816600090815261017360205260409020546121eb911661278a565b849063ffffffff61209316565b925060010161225e565b506122d9828563ffffffff6123c616565b94505050505090565b6122f46101038263ffffffff6127f716565b6040516001600160a01b038216907f6719d08c1888103bea251a4ed56406bd0c3e69723c8a1686e017e7bbe159b6f890600090a250565b60006120eb83836040518060400160405280601e81526020017f536166654d6174683a207375627472616374696f6e206f766572666c6f770000815250611ffc565b60008261237c57506000610bf4565b8282028284828161238957fe5b04146120eb5760405162461bcd60e51b8152600401808060200182810382526021815260200180612b156021913960400191505060405180910390fd5b60006120eb83836040518060400160405280601a815260200179536166654d6174683a206469766973696f6e206279207a65726f60301b815250612878565b61017254815114612441576040805162461bcd60e51b81526020600482015260016024820152601960f91b604482015290519081900360640190fd5b6000805b825181101561247e5761247483828151811061245d57fe5b60200260200101518361209390919063ffffffff16565b9150600101612445565b508151612493906101799060208501906129ba565b50620186a08114611a87576040805162461bcd60e51b81526020600482015260016024820152603760f81b604482015290519081900360640190fd5b600054610100900460ff16806124e857506124e8611e98565b806124f6575060005460ff16155b6125315760405162461bcd60e51b815260040180806020018281038252602e815260200180612bc0602e913960400191505060405180910390fd5b600054610100900460ff1615801561255c576000805460ff1961ff0019909116610100171660011790555b6125658261104d565b61257257612572826122e2565b8015611a87576000805461ff00191690555050565b6001600160a01b0381166125cc5760405162461bcd60e51b8152600401808060200182810382526026815260200180612a866026913960400191505060405180910390fd5b60d0546040516001600160a01b03808416921690600080516020612b7e83398151915290600090a360d080546001600160a01b0319166001600160a01b0392909216919091179055565b61262082826120f2565b61265b5760405162461bcd60e51b8152600401808060200182810382526021815260200180612af46021913960400191505060405180910390fd5b6001600160a01b0316600090815260209190915260409020805460ff19169055565b604080513060248083019190915282518083039091018152604490910182526020810180516001600160e01b03166370a0823160e01b1781529151815160009384936060936001600160a01b03881693919290918291908083835b602083106126f75780518252601f1990920191602091820191016126d8565b6001836020036101000a038019825116818451168082178552505050505050905001915050600060405180830381855afa9150503d8060008114612757576040519150601f19603f3d011682016040523d82523d6000602084013e61275c565b606091505b50915091508161276b57600080fd5b80806020019051602081101561278057600080fd5b5051949350505050565b6000816001600160a01b03166302bbce466040518163ffffffff1660e01b815260040160206040518083038186803b1580156127c557600080fd5b505afa1580156127d9573d6000803e3d6000fd5b505050506040513d60208110156127ef57600080fd5b505192915050565b61280182826120f2565b15612853576040805162461bcd60e51b815260206004820152601f60248201527f526f6c65733a206163636f756e7420616c72656164792068617320726f6c6500604482015290519081900360640190fd5b6001600160a01b0316600090815260209190915260409020805460ff19166001179055565b600081836128c75760405162461bcd60e51b8152602060048201818152835160248401528351909283926044909101919085019080838360008315612050578181015183820152602001612038565b5060008385816128d357fe5b0495945050505050565b828054600181600116156101000203166002900490600052602060002090601f016020900481019282601f1061291e57805160ff191683800117855561294b565b8280016001018555821561294b579182015b8281111561294b578251825591602001919060010190612930565b506129579291506129f4565b5090565b8280548282559060005260206000209081019282156129ae579160200282015b828111156129ae5781546001600160a01b0319166001600160a01b0384351617825560209092019160019091019061297b565b50612957929150612a0e565b82805482825590600052602060002090810192821561294b579160200282018281111561294b578251825591602001919060010190612930565b610bd991905b8082111561295757600081556001016129fa565b610bd991905b808211156129575780546001600160a01b0319168155600101612a1456fe45524332303a207472616e7366657220746f20746865207a65726f2061646472657373506175736572526f6c653a2063616c6c657220646f6573206e6f742068617665207468652050617573657220726f6c654f776e61626c653a206e6577206f776e657220697320746865207a65726f206164647265737345524332303a20617070726f766520746f20746865207a65726f206164647265737345524332303a207472616e7366657220616d6f756e7420657863656564732062616c616e6365526f6c65733a206163636f756e7420646f6573206e6f74206861766520726f6c65536166654d6174683a206d756c7469706c69636174696f6e206f766572666c6f7745524332303a207472616e7366657220616d6f756e74206578636565647320616c6c6f77616e63654f776e61626c653a2063616c6c6572206973206e6f7420746865206f776e65728be0079c531659141344cd1fd0a4f28419497f9722a3daafe3b4186f6b6457e0526f6c65733a206163636f756e7420697320746865207a65726f2061646472657373436f6e747261637420696e7374616e63652068617320616c7265616479206265656e20696e697469616c697a656445524332303a207472616e736665722066726f6d20746865207a65726f206164647265737345524332303a20617070726f76652066726f6d20746865207a65726f206164647265737345524332303a2064656372656173656420616c6c6f77616e63652062656c6f77207a65726fa265627a7a72315820cde097cd55d0abd8d39f6ec172c53142b8a5d22354db98a5a04f9728de07690364736f6c63430005100032",
  "source": "/**\r\n * @title: Dissident Token Governance main contract\r\n * @summary: ERC20 that holds pooled user funds together\r\n *           Each token represent a share of the underlying pools\r\n *           and with each token user have the right to redeem a portion of these pools\r\n * @author: Dissident Finance, dissident.finance\r\n */\r\npragma solidity 0.5.16;\r\nimport \"@openzeppelin/contracts-ethereum-package/contracts/math/SafeMath.sol\";\r\nimport \"@openzeppelin/contracts-ethereum-package/contracts/token/ERC20/SafeERC20.sol\";\r\nimport \"@openzeppelin/contracts-ethereum-package/contracts/token/ERC20/ERC20.sol\";\r\nimport \"@openzeppelin/contracts-ethereum-package/contracts/token/ERC20/ERC20Detailed.sol\";\r\nimport \"@openzeppelin/contracts-ethereum-package/contracts/utils/ReentrancyGuard.sol\";\r\nimport \"@openzeppelin/contracts-ethereum-package/contracts/ownership/Ownable.sol\";\r\nimport \"@openzeppelin/contracts-ethereum-package/contracts/lifecycle/Pausable.sol\";\r\n\r\nimport \"@openzeppelin/upgrades/contracts/Initializable.sol\";\r\n\r\nimport \"./interfaces/ILendingProtocol.sol\";\r\n\r\n\r\ncontract DistTokenGovernance is Initializable, ERC20, ERC20Detailed, ReentrancyGuard, Ownable, Pausable {\r\n    using SafeERC20 for IERC20;\r\n    using SafeMath for uint256;\r\n\r\n    // State variables\r\n    uint256 private constant ONE_18 = 10**18;\r\n    // eg. DAI address\r\n    address public token;\r\n    // eg. iDAI address\r\n    address private iToken;\r\n    // eg. cDAI address\r\n    address private cToken;\r\n    // Dist rebalancer current implementation address\r\n    address public rebalancer;\r\n    // Address collecting underlying fees\r\n    address public feeAddress;\r\n    // Max unlent assets percentage for gas friendly swaps\r\n    uint256 public maxUnlentPerc; // 100000 == 100% -> 1000 == 1%\r\n    // Current fee on interest gained\r\n    uint256 public fee;\r\n    // eg. 18 for DAI\r\n    uint256 private tokenDecimals;\r\n    // eg. [COMPAddress, CRVAddress, ...]\r\n    address[] public govTokens;\r\n    // eg. [cTokenAddress, iTokenAddress, ...]\r\n    address[] public allAvailableTokens;\r\n    // eg. cTokenAddress => DistCompoundAddress\r\n    mapping(address => address) public protocolWrappers;\r\n    // Map that saves avg distToken price paid for each user, used to calculate earnings\r\n    mapping(address => uint256) public userAvgPrices;\r\n\r\n    // DistToken helper address\r\n    address public tokenHelper;\r\n\r\n    // Addresses for stkAAVE distribution from Aave\r\n    address public constant stkAAVE = address(0x4da27a545c0c5B758a6BA100e3a049001de870f5);\r\n    address private aToken;\r\n\r\n    // ########## DistToken updates\r\n    // Dist governance token\r\n    address public constant DIST = address(0x875773784Af8135eA0ef43b5a374AaD105c5D39e);\r\n    // Compound governance token\r\n    address public constant COMP = address(0xc00e94Cb662C3520282E6f5717214004A7f26888);\r\n    uint256 private constant FULL_ALLOC = 100000;\r\n\r\n    // Dist distribution controller\r\n    address public constant distController = address(0x275DA8e61ea8E02d51EDd8d0DC5c0E62b4CDB0BE);\r\n    // oracle used for calculating the avgAPR with gov tokens\r\n    address public oracle;\r\n    // eg cDAI -> COMP\r\n    mapping(address => address) private protocolTokenToGov;\r\n    // last allocations submitted by rebalancer\r\n    uint256[] private lastRebalancerAllocations;\r\n\r\n    // ERROR MESSAGES:\r\n    // 0 = is 0\r\n    // 1 = already initialized\r\n    // 2 = length is different\r\n    // 3 = Not greater then\r\n    // 4 = lt\r\n    // 5 = too high\r\n    // 6 = not authorized\r\n    // 7 = not equal\r\n    // 8 = error on flash loan execution\r\n    // 9 = Reentrancy\r\n\r\n    // onlyOwner\r\n    /**\r\n    * It allows owner to modify allAvailableTokens array in case of emergency\r\n    * ie if a bug on a interest bearing token is discovered and reset protocolWrappers\r\n    * associated with those tokens.\r\n    *\r\n    * @param protocolTokens : array of protocolTokens addresses (eg [cDAI, iDAI, ...])\r\n    * @param wrappers : array of wrapper addresses (eg [DistCompound, DistFulcrum, ...])\r\n    * @param _newGovTokens : array of governance token addresses\r\n    * @param _newGovTokensEqualLen : array of governance token addresses for each\r\n    *  protocolToken (addr0 should be used for protocols with no govToken)\r\n    */\r\n    function setAllAvailableTokensAndWrappers(\r\n        address[] calldata protocolTokens,\r\n        address[] calldata wrappers,\r\n        address[] calldata _newGovTokens,\r\n        address[] calldata _newGovTokensEqualLen\r\n    ) external onlyOwner {\r\n        require(protocolTokens.length == wrappers.length, \"2\");\r\n        require(_newGovTokensEqualLen.length >= protocolTokens.length, \"3\");\r\n\r\n        govTokens = _newGovTokens;\r\n\r\n        address newGov;\r\n        address protToken;\r\n        for (uint256 i = 0; i < protocolTokens.length; i++) {\r\n            protToken = protocolTokens[i];\r\n            require(protToken != address(0) && wrappers[i] != address(0), \"0\");\r\n            protocolWrappers[protToken] = wrappers[i];\r\n\r\n            //set protocol token to gov token mapping\r\n            //    newGov = _newGovTokensEqualLen[i];\r\n            //    if (newGov != DIST) {\r\n            //        protocolTokenToGov[protToken] = newGov;\r\n            //    }\r\n        }\r\n\r\n        allAvailableTokens = protocolTokens;\r\n    }\r\n\r\n    /**\r\n    * It allows owner to set the cToken address\r\n    *\r\n    * @param _cToken : new cToken address\r\n    */\r\n    function setCToken(address _cToken)\r\n        external onlyOwner {\r\n        require((cToken = _cToken) != address(0), \"0\");\r\n    }\r\n\r\n    /**\r\n    * It allows owner to set the aToken address\r\n    *\r\n    * @param _aToken : new aToken address\r\n    */\r\n    function setAToken(address _aToken)\r\n        external onlyOwner {\r\n        require((aToken = _aToken) != address(0), \"0\");\r\n    }\r\n\r\n    /**\r\n    * It allows owner to set the tokenHelper address\r\n    *\r\n    * @param _tokenHelper : new tokenHelper address\r\n    */\r\n    function setTokenHelper(address _tokenHelper)\r\n        external onlyOwner {\r\n        require((tokenHelper = _tokenHelper) != address(0), \"0\");\r\n    }\r\n\r\n    /**\r\n    * It allows owner to set the DistRebalancerV3_1 address\r\n    *\r\n    * @param _rebalancer : new DistRebalancerV3_1 address\r\n    */\r\n    function setRebalancer(address _rebalancer)\r\n        external onlyOwner {\r\n        require((rebalancer = _rebalancer) != address(0), \"0\");\r\n    }\r\n\r\n    /**\r\n    * It allows owner to set the fee (1000 == 10% of gained interest)\r\n    *\r\n    * @param _fee : fee amount where 100000 is 100%, max settable is 10%\r\n    */\r\n    function setFee(uint256 _fee)\r\n        external onlyOwner {\r\n        // 100000 == 100% -> 10000 == 10%\r\n        require((fee = _fee) <= FULL_ALLOC / 10, \"5\");\r\n    }\r\n\r\n    /**\r\n    * It allows owner to set the fee address\r\n    *\r\n    * @param _feeAddress : fee address\r\n    */\r\n    function setFeeAddress(address _feeAddress)\r\n        external onlyOwner {\r\n        require((feeAddress = _feeAddress) != address(0), \"0\");\r\n    }\r\n\r\n    /**\r\n    * It allows owner to set the oracle address for getting avgAPR\r\n    *\r\n    * @param _oracle : new oracle address\r\n    */\r\n    function setOracleAddress(address _oracle)\r\n        external onlyOwner {\r\n        require((oracle = _oracle) != address(0), \"0\");\r\n    }\r\n\r\n    /**\r\n    * It allows owner to set the max unlent asset percentage (1000 == 1% of unlent asset max)\r\n    *\r\n    * @param _perc : max unlent perc where 100000 is 100%\r\n    */\r\n    function setMaxUnlentPerc(uint256 _perc)\r\n        external onlyOwner {\r\n        require((maxUnlentPerc = _perc) <= 100000, \"5\");\r\n    }\r\n\r\n    /**\r\n    * Used by Rebalancer to set the new allocations\r\n    *\r\n    * @param _allocations : array with allocations in percentages (100% => 100000)\r\n    */\r\n    function setAllocations(uint256[] calldata _allocations) external {\r\n        require(msg.sender == rebalancer || msg.sender == owner(), \"6\");\r\n        _setAllocations(_allocations);\r\n    }\r\n\r\n    /**\r\n    * Used by Rebalancer or in openRebalance to set the new allocations\r\n    *\r\n    * @param _allocations : array with allocations in percentages (100% => 100000)\r\n    */\r\n    function _setAllocations(uint256[] memory _allocations) internal {\r\n        require(_allocations.length == allAvailableTokens.length, \"2\");\r\n        uint256 total;\r\n        for (uint256 i = 0; i < _allocations.length; i++) {\r\n            total = total.add(_allocations[i]);\r\n        }\r\n        lastRebalancerAllocations = _allocations;\r\n        require(total == FULL_ALLOC, \"7\");\r\n    }\r\n\r\n    // view\r\n    /**\r\n    * Get latest allocations submitted by rebalancer\r\n    *\r\n    * @return : array of allocations ordered as allAvailableTokens\r\n    */\r\n    function getAllocations() external view returns (uint256[] memory) {\r\n        return lastRebalancerAllocations;\r\n    }\r\n\r\n    /**\r\n    * Get currently used gov tokens\r\n    *\r\n    * @return : array of govTokens supported\r\n    */\r\n    function getGovTokens() external view returns (address[] memory) {\r\n        return govTokens;\r\n    }\r\n\r\n    /**\r\n    * Get currently used protocol tokens (cDAI, aDAI, ...)\r\n    *\r\n    * @return : array of protocol tokens supported\r\n    */\r\n    function getAllAvailableTokens() external view returns (address[] memory) {\r\n        return allAvailableTokens;\r\n    }\r\n\r\n    /**\r\n    * Get gov token associated to a protocol token eg protocolTokenToGov[cDAI] = COMP\r\n    *\r\n    * @return : address of the gov token\r\n    */\r\n    function getProtocolTokenToGov(address _protocolToken) external view returns (address) {\r\n        return protocolTokenToGov[_protocolToken];\r\n    }\r\n\r\n    /**\r\n    * DistToken price for a user considering fees, in underlying\r\n    * this is useful when you need to redeem exactly X underlying\r\n    *\r\n    * @return : price in underlying token counting fees for a specific user\r\n    */\r\n    function tokenPriceWithFee(address user)\r\n        external view\r\n        returns (uint256 priceWFee) {\r\n            uint256 userAvgPrice = userAvgPrices[user];\r\n            priceWFee = _tokenPrice();\r\n            if (userAvgPrice != 0 && priceWFee > userAvgPrice) {\r\n                priceWFee = priceWFee.mul(FULL_ALLOC).sub(fee.mul(priceWFee.sub(userAvgPrice))).div(FULL_ALLOC);\r\n            }\r\n    }\r\n\r\n    /**\r\n    * DistToken price calculation, in underlying\r\n    *\r\n    * @return : price in underlying token\r\n    */\r\n    function tokenPrice()\r\n        external view\r\n        returns (uint256) {\r\n        return _tokenPrice();\r\n    }\r\n\r\n\r\n    function _tokenPrice() internal view returns (uint256 price) {\r\n        uint256 totSupply = totalSupply();\r\n        if (totSupply == 0) {\r\n            return 10**(tokenDecimals);\r\n        }\r\n\r\n        address currToken;\r\n        uint256 totNav = _contractBalanceOf(token).mul(ONE_18); // eventual underlying unlent balance\r\n        address[] memory _allAvailableTokens = allAvailableTokens;\r\n        for (uint256 i = 0; i < _allAvailableTokens.length; i++) {\r\n            currToken = _allAvailableTokens[i];\r\n            totNav = totNav.add(\r\n                // NAV = price * poolSupply\r\n                _getPriceInToken(protocolWrappers[currToken]).mul(\r\n                    _contractBalanceOf(currToken)\r\n                )\r\n            );\r\n        }\r\n\r\n        price = totNav.div(totSupply); // idleToken price in token wei\r\n    }\r\n\r\n    function _contractBalanceOf(address _token) private view returns (uint256) {\r\n        // Original implementation:\r\n        //\r\n        // return IERC20(_token).balanceOf(address(this));\r\n\r\n        // Optimized implementation inspired by uniswap https://github.com/Uniswap/uniswap-v3-core/blob/main/contracts/UniswapV3Pool.sol#L144\r\n        //\r\n        // 0x70a08231 -> selector for 'function balanceOf(address) returns (uint256)'\r\n        (bool success, bytes memory data) =\r\n            _token.staticcall(abi.encodeWithSelector(0x70a08231, address(this)));\r\n        require(success);\r\n        return abi.decode(data, (uint256));\r\n    }\r\n\r\n    /**\r\n    * Get price of 1 protocol token in underlyings\r\n    *\r\n    * @param _token : address of the protocol token\r\n    * @return price : price of protocol token\r\n    */\r\n    function _getPriceInToken(address _token) private view returns (uint256) {\r\n        return ILendingProtocol(_token).getPriceInToken();\r\n    }\r\n\r\n}",
  "sourcePath": "C:\\Users\\Akanimoh Osutuk\\Documents\\Personal\\dissident\\dissident-contracts\\contracts\\DistTokenGovernance.sol",
  "compiler": {
    "name": "solc",
    "version": "0.5.16+commit.9c3226ce.Emscripten.clang"
  },
  "schemaVersion": "3.4.3",
  "updatedAt": "2022-01-20T13:05:28.214Z",
  "devdoc": {
    "methods": {
      "allowance(address,address)": {
        "details": "See {IERC20-allowance}."
      },
      "approve(address,uint256)": {
        "details": "See {IERC20-approve}.     * Requirements:     * - `spender` cannot be the zero address."
      },
      "balanceOf(address)": {
        "details": "See {IERC20-balanceOf}."
      },
      "decimals()": {
        "details": "Returns the number of decimals used to get its user representation. For example, if `decimals` equals `2`, a balance of `505` tokens should be displayed to a user as `5,05` (`505 / 10 ** 2`).     * Tokens usually opt for a value of 18, imitating the relationship between Ether and Wei.     * NOTE: This information is only used for _display_ purposes: it in no way affects any of the arithmetic of the contract, including {IERC20-balanceOf} and {IERC20-transfer}."
      },
      "decreaseAllowance(address,uint256)": {
        "details": "Atomically decreases the allowance granted to `spender` by the caller.     * This is an alternative to {approve} that can be used as a mitigation for problems described in {IERC20-approve}.     * Emits an {Approval} event indicating the updated allowance.     * Requirements:     * - `spender` cannot be the zero address. - `spender` must have allowance for the caller of at least `subtractedValue`."
      },
      "getAllAvailableTokens()": {
        "return": ": array of protocol tokens supported"
      },
      "getAllocations()": {
        "return": ": array of allocations ordered as allAvailableTokens"
      },
      "getGovTokens()": {
        "return": ": array of govTokens supported"
      },
      "getProtocolTokenToGov(address)": {
        "return": ": address of the gov token"
      },
      "increaseAllowance(address,uint256)": {
        "details": "Atomically increases the allowance granted to `spender` by the caller.     * This is an alternative to {approve} that can be used as a mitigation for problems described in {IERC20-approve}.     * Emits an {Approval} event indicating the updated allowance.     * Requirements:     * - `spender` cannot be the zero address."
      },
      "initialize(address)": {
        "details": "Initializes the contract in unpaused state. Assigns the Pauser role to the deployer."
      },
      "initialize(string,string,uint8)": {
        "details": "Sets the values for `name`, `symbol`, and `decimals`. All three of these values are immutable: they can only be set once during construction."
      },
      "isOwner()": {
        "details": "Returns true if the caller is the current owner."
      },
      "name()": {
        "details": "Returns the name of the token."
      },
      "owner()": {
        "details": "Returns the address of the current owner."
      },
      "pause()": {
        "details": "Called by a pauser to pause, triggers stopped state."
      },
      "paused()": {
        "details": "Returns true if the contract is paused, and false otherwise."
      },
      "renounceOwnership()": {
        "details": "Leaves the contract without owner. It will not be possible to call `onlyOwner` functions anymore. Can only be called by the current owner.     * > Note: Renouncing ownership will leave the contract without an owner, thereby removing any functionality that is only available to the owner."
      },
      "setAToken(address)": {
        "params": {
          "_aToken": ": new aToken address"
        }
      },
      "setAllAvailableTokensAndWrappers(address[],address[],address[],address[])": {
        "params": {
          "_newGovTokens": ": array of governance token addresses",
          "_newGovTokensEqualLen": ": array of governance token addresses for each protocolToken (addr0 should be used for protocols with no govToken)",
          "protocolTokens": ": array of protocolTokens addresses (eg [cDAI, iDAI, ...])",
          "wrappers": ": array of wrapper addresses (eg [DistCompound, DistFulcrum, ...])"
        }
      },
      "setAllocations(uint256[])": {
        "params": {
          "_allocations": ": array with allocations in percentages (100% => 100000)"
        }
      },
      "setCToken(address)": {
        "params": {
          "_cToken": ": new cToken address"
        }
      },
      "setFee(uint256)": {
        "params": {
          "_fee": ": fee amount where 100000 is 100%, max settable is 10%"
        }
      },
      "setFeeAddress(address)": {
        "params": {
          "_feeAddress": ": fee address"
        }
      },
      "setMaxUnlentPerc(uint256)": {
        "params": {
          "_perc": ": max unlent perc where 100000 is 100%"
        }
      },
      "setOracleAddress(address)": {
        "params": {
          "_oracle": ": new oracle address"
        }
      },
      "setRebalancer(address)": {
        "params": {
          "_rebalancer": ": new DistRebalancerV3_1 address"
        }
      },
      "setTokenHelper(address)": {
        "params": {
          "_tokenHelper": ": new tokenHelper address"
        }
      },
      "symbol()": {
        "details": "Returns the symbol of the token, usually a shorter version of the name."
      },
      "tokenPrice()": {
        "return": ": price in underlying token"
      },
      "tokenPriceWithFee(address)": {
        "return": ": price in underlying token counting fees for a specific user"
      },
      "totalSupply()": {
        "details": "See {IERC20-totalSupply}."
      },
      "transfer(address,uint256)": {
        "details": "See {IERC20-transfer}.     * Requirements:     * - `recipient` cannot be the zero address. - the caller must have a balance of at least `amount`."
      },
      "transferFrom(address,address,uint256)": {
        "details": "See {IERC20-transferFrom}.     * Emits an {Approval} event indicating the updated allowance. This is not required by the EIP. See the note at the beginning of {ERC20};     * Requirements: - `sender` and `recipient` cannot be the zero address. - `sender` must have a balance of at least `amount`. - the caller must have allowance for `sender`'s tokens of at least `amount`."
      },
      "transferOwnership(address)": {
        "details": "Transfers ownership of the contract to a new account (`newOwner`). Can only be called by the current owner."
      },
      "unpause()": {
        "details": "Called by a pauser to unpause, returns to normal state."
      }
    }
  },
  "userdoc": {
    "methods": {
      "getAllAvailableTokens()": {
        "notice": "Get currently used protocol tokens (cDAI, aDAI, ...) "
      },
      "getAllocations()": {
        "notice": "Get latest allocations submitted by rebalancer "
      },
      "getGovTokens()": {
        "notice": "Get currently used gov tokens "
      },
      "getProtocolTokenToGov(address)": {
        "notice": "Get gov token associated to a protocol token eg protocolTokenToGov[cDAI] = COMP "
      },
      "setAToken(address)": {
        "notice": "It allows owner to set the aToken address "
      },
      "setAllAvailableTokensAndWrappers(address[],address[],address[],address[])": {
        "notice": "It allows owner to modify allAvailableTokens array in case of emergency ie if a bug on a interest bearing token is discovered and reset protocolWrappers associated with those tokens. "
      },
      "setAllocations(uint256[])": {
        "notice": "Used by Rebalancer to set the new allocations "
      },
      "setCToken(address)": {
        "notice": "It allows owner to set the cToken address "
      },
      "setFee(uint256)": {
        "notice": "It allows owner to set the fee (1000 == 10% of gained interest) "
      },
      "setFeeAddress(address)": {
        "notice": "It allows owner to set the fee address "
      },
      "setMaxUnlentPerc(uint256)": {
        "notice": "It allows owner to set the max unlent asset percentage (1000 == 1% of unlent asset max) "
      },
      "setOracleAddress(address)": {
        "notice": "It allows owner to set the oracle address for getting avgAPR "
      },
      "setRebalancer(address)": {
        "notice": "It allows owner to set the DistRebalancerV3_1 address "
      },
      "setTokenHelper(address)": {
        "notice": "It allows owner to set the tokenHelper address "
      },
      "tokenPrice()": {
        "notice": "DistToken price calculation, in underlying "
      },
      "tokenPriceWithFee(address)": {
        "notice": "DistToken price for a user considering fees, in underlying this is useful when you need to redeem exactly X underlying "
      }
    }
  }
}