{
  "contractName": "DistTokenGovernance",
  "abi": [
    {
      "anonymous": false,
      "inputs": [
        {
          "indexed": true,
          "internalType": "address",
          "name": "owner",
          "type": "address"
        },
        {
          "indexed": true,
          "internalType": "address",
          "name": "spender",
          "type": "address"
        },
        {
          "indexed": false,
          "internalType": "uint256",
          "name": "value",
          "type": "uint256"
        }
      ],
      "name": "Approval",
      "type": "event"
    },
    {
      "anonymous": false,
      "inputs": [
        {
          "indexed": true,
          "internalType": "address",
          "name": "previousOwner",
          "type": "address"
        },
        {
          "indexed": true,
          "internalType": "address",
          "name": "newOwner",
          "type": "address"
        }
      ],
      "name": "OwnershipTransferred",
      "type": "event"
    },
    {
      "anonymous": false,
      "inputs": [
        {
          "indexed": false,
          "internalType": "address",
          "name": "account",
          "type": "address"
        }
      ],
      "name": "Paused",
      "type": "event"
    },
    {
      "anonymous": false,
      "inputs": [
        {
          "indexed": true,
          "internalType": "address",
          "name": "account",
          "type": "address"
        }
      ],
      "name": "PauserAdded",
      "type": "event"
    },
    {
      "anonymous": false,
      "inputs": [
        {
          "indexed": true,
          "internalType": "address",
          "name": "account",
          "type": "address"
        }
      ],
      "name": "PauserRemoved",
      "type": "event"
    },
    {
      "anonymous": false,
      "inputs": [
        {
          "indexed": true,
          "internalType": "address",
          "name": "from",
          "type": "address"
        },
        {
          "indexed": true,
          "internalType": "address",
          "name": "to",
          "type": "address"
        },
        {
          "indexed": false,
          "internalType": "uint256",
          "name": "value",
          "type": "uint256"
        }
      ],
      "name": "Transfer",
      "type": "event"
    },
    {
      "anonymous": false,
      "inputs": [
        {
          "indexed": false,
          "internalType": "address",
          "name": "account",
          "type": "address"
        }
      ],
      "name": "Unpaused",
      "type": "event"
    },
    {
      "constant": false,
      "inputs": [
        {
          "internalType": "address",
          "name": "account",
          "type": "address"
        }
      ],
      "name": "addPauser",
      "outputs": [],
      "payable": false,
      "stateMutability": "nonpayable",
      "type": "function"
    },
    {
      "constant": true,
      "inputs": [
        {
          "internalType": "uint256",
          "name": "",
          "type": "uint256"
        }
      ],
      "name": "allAvailableTokens",
      "outputs": [
        {
          "internalType": "address",
          "name": "",
          "type": "address"
        }
      ],
      "payable": false,
      "stateMutability": "view",
      "type": "function"
    },
    {
      "constant": true,
      "inputs": [
        {
          "internalType": "address",
          "name": "owner",
          "type": "address"
        },
        {
          "internalType": "address",
          "name": "spender",
          "type": "address"
        }
      ],
      "name": "allowance",
      "outputs": [
        {
          "internalType": "uint256",
          "name": "",
          "type": "uint256"
        }
      ],
      "payable": false,
      "stateMutability": "view",
      "type": "function"
    },
    {
      "constant": false,
      "inputs": [
        {
          "internalType": "address",
          "name": "spender",
          "type": "address"
        },
        {
          "internalType": "uint256",
          "name": "amount",
          "type": "uint256"
        }
      ],
      "name": "approve",
      "outputs": [
        {
          "internalType": "bool",
          "name": "",
          "type": "bool"
        }
      ],
      "payable": false,
      "stateMutability": "nonpayable",
      "type": "function"
    },
    {
      "constant": true,
      "inputs": [
        {
          "internalType": "address",
          "name": "account",
          "type": "address"
        }
      ],
      "name": "balanceOf",
      "outputs": [
        {
          "internalType": "uint256",
          "name": "",
          "type": "uint256"
        }
      ],
      "payable": false,
      "stateMutability": "view",
      "type": "function"
    },
    {
      "constant": true,
      "inputs": [],
      "name": "decimals",
      "outputs": [
        {
          "internalType": "uint8",
          "name": "",
          "type": "uint8"
        }
      ],
      "payable": false,
      "stateMutability": "view",
      "type": "function"
    },
    {
      "constant": false,
      "inputs": [
        {
          "internalType": "address",
          "name": "spender",
          "type": "address"
        },
        {
          "internalType": "uint256",
          "name": "subtractedValue",
          "type": "uint256"
        }
      ],
      "name": "decreaseAllowance",
      "outputs": [
        {
          "internalType": "bool",
          "name": "",
          "type": "bool"
        }
      ],
      "payable": false,
      "stateMutability": "nonpayable",
      "type": "function"
    },
    {
      "constant": true,
      "inputs": [
        {
          "internalType": "uint256",
          "name": "",
          "type": "uint256"
        }
      ],
      "name": "govTokens",
      "outputs": [
        {
          "internalType": "address",
          "name": "",
          "type": "address"
        }
      ],
      "payable": false,
      "stateMutability": "view",
      "type": "function"
    },
    {
      "constant": false,
      "inputs": [
        {
          "internalType": "address",
          "name": "spender",
          "type": "address"
        },
        {
          "internalType": "uint256",
          "name": "addedValue",
          "type": "uint256"
        }
      ],
      "name": "increaseAllowance",
      "outputs": [
        {
          "internalType": "bool",
          "name": "",
          "type": "bool"
        }
      ],
      "payable": false,
      "stateMutability": "nonpayable",
      "type": "function"
    },
    {
      "constant": false,
      "inputs": [
        {
          "internalType": "string",
          "name": "name",
          "type": "string"
        },
        {
          "internalType": "string",
          "name": "symbol",
          "type": "string"
        },
        {
          "internalType": "uint8",
          "name": "decimals",
          "type": "uint8"
        }
      ],
      "name": "initialize",
      "outputs": [],
      "payable": false,
      "stateMutability": "nonpayable",
      "type": "function"
    },
    {
      "constant": false,
      "inputs": [],
      "name": "initialize",
      "outputs": [],
      "payable": false,
      "stateMutability": "nonpayable",
      "type": "function"
    },
    {
      "constant": false,
      "inputs": [
        {
          "internalType": "address",
          "name": "sender",
          "type": "address"
        }
      ],
      "name": "initialize",
      "outputs": [],
      "payable": false,
      "stateMutability": "nonpayable",
      "type": "function"
    },
    {
      "constant": true,
      "inputs": [],
      "name": "isOwner",
      "outputs": [
        {
          "internalType": "bool",
          "name": "",
          "type": "bool"
        }
      ],
      "payable": false,
      "stateMutability": "view",
      "type": "function"
    },
    {
      "constant": true,
      "inputs": [
        {
          "internalType": "address",
          "name": "account",
          "type": "address"
        }
      ],
      "name": "isPauser",
      "outputs": [
        {
          "internalType": "bool",
          "name": "",
          "type": "bool"
        }
      ],
      "payable": false,
      "stateMutability": "view",
      "type": "function"
    },
    {
      "constant": true,
      "inputs": [],
      "name": "name",
      "outputs": [
        {
          "internalType": "string",
          "name": "",
          "type": "string"
        }
      ],
      "payable": false,
      "stateMutability": "view",
      "type": "function"
    },
    {
      "constant": true,
      "inputs": [],
      "name": "owner",
      "outputs": [
        {
          "internalType": "address",
          "name": "",
          "type": "address"
        }
      ],
      "payable": false,
      "stateMutability": "view",
      "type": "function"
    },
    {
      "constant": false,
      "inputs": [],
      "name": "pause",
      "outputs": [],
      "payable": false,
      "stateMutability": "nonpayable",
      "type": "function"
    },
    {
      "constant": true,
      "inputs": [],
      "name": "paused",
      "outputs": [
        {
          "internalType": "bool",
          "name": "",
          "type": "bool"
        }
      ],
      "payable": false,
      "stateMutability": "view",
      "type": "function"
    },
    {
      "constant": true,
      "inputs": [
        {
          "internalType": "address",
          "name": "",
          "type": "address"
        }
      ],
      "name": "protocolWrappers",
      "outputs": [
        {
          "internalType": "address",
          "name": "",
          "type": "address"
        }
      ],
      "payable": false,
      "stateMutability": "view",
      "type": "function"
    },
    {
      "constant": false,
      "inputs": [],
      "name": "renounceOwnership",
      "outputs": [],
      "payable": false,
      "stateMutability": "nonpayable",
      "type": "function"
    },
    {
      "constant": false,
      "inputs": [],
      "name": "renouncePauser",
      "outputs": [],
      "payable": false,
      "stateMutability": "nonpayable",
      "type": "function"
    },
    {
      "constant": true,
      "inputs": [],
      "name": "symbol",
      "outputs": [
        {
          "internalType": "string",
          "name": "",
          "type": "string"
        }
      ],
      "payable": false,
      "stateMutability": "view",
      "type": "function"
    },
    {
      "constant": true,
      "inputs": [],
      "name": "totalSupply",
      "outputs": [
        {
          "internalType": "uint256",
          "name": "",
          "type": "uint256"
        }
      ],
      "payable": false,
      "stateMutability": "view",
      "type": "function"
    },
    {
      "constant": false,
      "inputs": [
        {
          "internalType": "address",
          "name": "recipient",
          "type": "address"
        },
        {
          "internalType": "uint256",
          "name": "amount",
          "type": "uint256"
        }
      ],
      "name": "transfer",
      "outputs": [
        {
          "internalType": "bool",
          "name": "",
          "type": "bool"
        }
      ],
      "payable": false,
      "stateMutability": "nonpayable",
      "type": "function"
    },
    {
      "constant": false,
      "inputs": [
        {
          "internalType": "address",
          "name": "sender",
          "type": "address"
        },
        {
          "internalType": "address",
          "name": "recipient",
          "type": "address"
        },
        {
          "internalType": "uint256",
          "name": "amount",
          "type": "uint256"
        }
      ],
      "name": "transferFrom",
      "outputs": [
        {
          "internalType": "bool",
          "name": "",
          "type": "bool"
        }
      ],
      "payable": false,
      "stateMutability": "nonpayable",
      "type": "function"
    },
    {
      "constant": false,
      "inputs": [
        {
          "internalType": "address",
          "name": "newOwner",
          "type": "address"
        }
      ],
      "name": "transferOwnership",
      "outputs": [],
      "payable": false,
      "stateMutability": "nonpayable",
      "type": "function"
    },
    {
      "constant": false,
      "inputs": [],
      "name": "unpause",
      "outputs": [],
      "payable": false,
      "stateMutability": "nonpayable",
      "type": "function"
    },
    {
      "constant": false,
      "inputs": [
        {
          "internalType": "address[]",
          "name": "protocolTokens",
          "type": "address[]"
        },
        {
          "internalType": "address[]",
          "name": "wrappers",
          "type": "address[]"
        },
        {
          "internalType": "address[]",
          "name": "_newGovTokens",
          "type": "address[]"
        },
        {
          "internalType": "address[]",
          "name": "_newGovTokensEqualLen",
          "type": "address[]"
        }
      ],
      "name": "setAllAvailableTokensAndWrappers",
      "outputs": [],
      "payable": false,
      "stateMutability": "nonpayable",
      "type": "function"
    }
  ],
  "bytecode": "0x6080604052611b7b806100136000396000f3fe608060405234801561001057600080fd5b50600436106101545760003560e01c806306fdde0314610159578063095ea7b3146101d65780631624f6c61461021657806318160ddd1461034657806323b872dd14610360578063313ce5671461039657806336a00082146103b457806339509351146103ed5780633f4ba83a1461041957806345c8026c1461042157806346fbf68e146104475780635c975abb1461046d5780636ef8d66d1461047557806370a082311461047d578063715018a6146104a3578063746daa4e146104ab5780638129fc1c146104c857806382dc1ec4146104d05780638456cb59146104f65780638da5cb5b146104fe5780638f32d59b1461050657806395d89b411461050e578063a457c2d714610516578063a9059cbb14610542578063c4d66de81461056e578063dd62ed3e14610594578063f16c88db146105c2578063f2fde38b14610720575b600080fd5b610161610746565b6040805160208082528351818301528351919283929083019185019080838360005b8381101561019b578181015183820152602001610183565b50505050905090810190601f1680156101c85780820380516001836020036101000a031916815260200191505b509250505060405180910390f35b610202600480360360408110156101ec57600080fd5b506001600160a01b0381351690602001356107dd565b604080519115158252519081900360200190f35b6103446004803603606081101561022c57600080fd5b810190602081018135600160201b81111561024657600080fd5b82018360208201111561025857600080fd5b803590602001918460018302840111600160201b8311171561027957600080fd5b91908080601f0160208091040260200160405190810160405280939291908181526020018383808284376000920191909152509295949360208101935035915050600160201b8111156102cb57600080fd5b8201836020820111156102dd57600080fd5b803590602001918460018302840111600160201b831117156102fe57600080fd5b91908080601f0160208091040260200160405190810160405280939291908181526020018383808284376000920191909152509295505050903560ff1691506107fa9050565b005b61034e6108d6565b60408051918252519081900360200190f35b6102026004803603606081101561037657600080fd5b506001600160a01b038135811691602081013590911690604001356108dc565b61039e610969565b6040805160ff9092168252519081900360200190f35b6103d1600480360360208110156103ca57600080fd5b5035610972565b604080516001600160a01b039092168252519081900360200190f35b6102026004803603604081101561040357600080fd5b506001600160a01b03813516906020013561099a565b6103446109ee565b6103d16004803603602081101561043757600080fd5b50356001600160a01b0316610ad9565b6102026004803603602081101561045d57600080fd5b50356001600160a01b0316610af5565b610202610b0f565b610344610b19565b61034e6004803603602081101561049357600080fd5b50356001600160a01b0316610b2b565b610344610b46565b6103d1600480360360208110156104c157600080fd5b5035610bc5565b610344610bd3565b610344600480360360208110156104e657600080fd5b50356001600160a01b0316610c7a565b610344610cc9565b6103d1610d92565b610202610da1565b610161610dc7565b6102026004803603604081101561052c57600080fd5b506001600160a01b038135169060200135610e28565b6102026004803603604081101561055857600080fd5b506001600160a01b038135169060200135610e96565b6103446004803603602081101561058457600080fd5b50356001600160a01b0316610eaa565b61034e600480360360408110156105aa57600080fd5b506001600160a01b0381358116916020013516610f61565b610344600480360360808110156105d857600080fd5b810190602081018135600160201b8111156105f257600080fd5b82018360208201111561060457600080fd5b803590602001918460208302840111600160201b8311171561062557600080fd5b919390929091602081019035600160201b81111561064257600080fd5b82018360208201111561065457600080fd5b803590602001918460208302840111600160201b8311171561067557600080fd5b919390929091602081019035600160201b81111561069257600080fd5b8201836020820111156106a457600080fd5b803590602001918460208302840111600160201b831117156106c557600080fd5b919390929091602081019035600160201b8111156106e257600080fd5b8201836020820111156106f457600080fd5b803590602001918460208302840111600160201b8311171561071557600080fd5b509092509050610f8c565b6103446004803603602081101561073657600080fd5b50356001600160a01b0316611161565b60688054604080516020601f60026000196101006001881615020190951694909404938401819004810282018101909252828152606093909290918301828280156107d25780601f106107a7576101008083540402835291602001916107d2565b820191906000526020600020905b8154815290600101906020018083116107b557829003601f168201915b505050505090505b90565b60006107f16107ea6111b1565b84846111b5565b50600192915050565b600054610100900460ff168061081357506108136112a1565b80610821575060005460ff16155b61085c5760405162461bcd60e51b815260040180806020018281038252602e815260200180611aab602e913960400191505060405180910390fd5b600054610100900460ff16158015610887576000805460ff1961ff0019909116610100171660011790555b835161089a906068906020870190611823565b5082516108ae906069906020860190611823565b50606a805460ff191660ff841617905580156108d0576000805461ff00191690555b50505050565b60355490565b60006108e98484846112a7565b61095f846108f56111b1565b61095a85604051806060016040528060288152602001611a21602891396001600160a01b038a166000908152603460205260408120906109336111b1565b6001600160a01b03168152602081019190915260400160002054919063ffffffff61140516565b6111b5565b5060019392505050565b606a5460ff1690565b61016a818154811061098057fe5b6000918252602090912001546001600160a01b0316905081565b60006107f16109a76111b1565b8461095a85603460006109b86111b1565b6001600160a01b03908116825260208083019390935260409182016000908120918c16815292529020549063ffffffff61149c16565b6109fe6109f96111b1565b610af5565b610a395760405162461bcd60e51b81526004018080602001828103825260308152602001806119626030913960400191505060405180910390fd5b6101365460ff16610a88576040805162461bcd60e51b815260206004820152601460248201527314185d5cd8589b194e881b9bdd081c185d5cd95960621b604482015290519081900360640190fd5b610136805460ff191690557f5db9ee0a495bf2e6ff9c91a7834c1ba4fdd244a5e8aa4e537bd38aeae4b073aa610abc6111b1565b604080516001600160a01b039092168252519081900360200190a1565b61016b602052600090815260409020546001600160a01b031681565b6000610b096101038363ffffffff6114fb16565b92915050565b6101365460ff1690565b610b29610b246111b1565b611562565b565b6001600160a01b031660009081526033602052604090205490565b610b4e610da1565b610b8d576040805162461bcd60e51b81526020600482018190526024820152600080516020611a49833981519152604482015290519081900360640190fd5b60d0546040516000916001600160a01b031690600080516020611a69833981519152908390a360d080546001600160a01b0319169055565b610169818154811061098057fe5b600054610100900460ff1680610bec5750610bec6112a1565b80610bfa575060005460ff16155b610c355760405162461bcd60e51b815260040180806020018281038252602e815260200180611aab602e913960400191505060405180910390fd5b600054610100900460ff16158015610c60576000805460ff1961ff0019909116610100171660011790555b6001609d558015610c77576000805461ff00191690555b50565b610c856109f96111b1565b610cc05760405162461bcd60e51b81526004018080602001828103825260308152602001806119626030913960400191505060405180910390fd5b610c77816115ab565b610cd46109f96111b1565b610d0f5760405162461bcd60e51b81526004018080602001828103825260308152602001806119626030913960400191505060405180910390fd5b6101365460ff1615610d5b576040805162461bcd60e51b815260206004820152601060248201526f14185d5cd8589b194e881c185d5cd95960821b604482015290519081900360640190fd5b610136805460ff191660011790557f62e78cea01bee320cd4e420270b5ea74000d11b0c9f74754ebdbfc544b05a258610abc6111b1565b60d0546001600160a01b031690565b60d0546000906001600160a01b0316610db86111b1565b6001600160a01b031614905090565b60698054604080516020601f60026000196101006001881615020190951694909404938401819004810282018101909252828152606093909290918301828280156107d25780601f106107a7576101008083540402835291602001916107d2565b60006107f1610e356111b1565b8461095a85604051806060016040528060258152602001611b226025913960346000610e5f6111b1565b6001600160a01b03908116825260208083019390935260409182016000908120918d1681529252902054919063ffffffff61140516565b60006107f1610ea36111b1565b84846112a7565b600054610100900460ff1680610ec35750610ec36112a1565b80610ed1575060005460ff16155b610f0c5760405162461bcd60e51b815260040180806020018281038252602e815260200180611aab602e913960400191505060405180910390fd5b600054610100900460ff16158015610f37576000805460ff1961ff0019909116610100171660011790555b610f40826115f4565b610136805460ff191690558015610f5d576000805461ff00191690555b5050565b6001600160a01b03918216600090815260346020908152604080832093909416825291909152205490565b610f94610da1565b610fd3576040805162461bcd60e51b81526020600482018190526024820152600080516020611a49833981519152604482015290519081900360640190fd5b86851461100b576040805162461bcd60e51b81526020600482015260016024820152601960f91b604482015290519081900360640190fd5b86811015611044576040805162461bcd60e51b81526020600482015260016024820152603360f81b604482015290519081900360640190fd5b61105161016985856118a1565b50600080805b89811015611146578a8a8281811061106b57fe5b905060200201356001600160a01b0316915060006001600160a01b0316826001600160a01b0316141580156110c5575060008989838181106110a957fe5b905060200201356001600160a01b03166001600160a01b031614155b6110fa576040805162461bcd60e51b81526020600482015260016024820152600360fc1b604482015290519081900360640190fd5b88888281811061110657fe5b6001600160a01b03858116600090815261016b6020908152604090912080546001600160a01b031916939091029490940135161790915550600101611057565b5061115461016a8b8b6118a1565b5050505050505050505050565b611169610da1565b6111a8576040805162461bcd60e51b81526020600482018190526024820152600080516020611a49833981519152604482015290519081900360640190fd5b610c77816116ac565b3390565b6001600160a01b0383166111fa5760405162461bcd60e51b8152600401808060200182810382526024815260200180611afe6024913960400191505060405180910390fd5b6001600160a01b03821661123f5760405162461bcd60e51b81526004018080602001828103825260228152602001806119b86022913960400191505060405180910390fd5b6001600160a01b03808416600081815260346020908152604080832094871680845294825291829020859055815185815291517f8c5be1e5ebec7d5bd14f71427d1e84f3dd0314c0f7b2291e5b200ac8c7c3b9259281900390910190a3505050565b303b1590565b6001600160a01b0383166112ec5760405162461bcd60e51b8152600401808060200182810382526025815260200180611ad96025913960400191505060405180910390fd5b6001600160a01b0382166113315760405162461bcd60e51b815260040180806020018281038252602381526020018061193f6023913960400191505060405180910390fd5b611374816040518060600160405280602681526020016119da602691396001600160a01b038616600090815260336020526040902054919063ffffffff61140516565b6001600160a01b0380851660009081526033602052604080822093909355908416815220546113a9908263ffffffff61149c16565b6001600160a01b0380841660008181526033602090815260409182902094909455805185815290519193928716927fddf252ad1be2c89b69c2b068fc378daa952ba7f163c4a11628f55a4df523b3ef92918290030190a3505050565b600081848411156114945760405162461bcd60e51b81526004018080602001828103825283818151815260200191508051906020019080838360005b83811015611459578181015183820152602001611441565b50505050905090810190601f1680156114865780820380516001836020036101000a031916815260200191505b509250505060405180910390fd5b505050900390565b6000828201838110156114f4576040805162461bcd60e51b815260206004820152601b60248201527a536166654d6174683a206164646974696f6e206f766572666c6f7760281b604482015290519081900360640190fd5b9392505050565b60006001600160a01b0382166115425760405162461bcd60e51b8152600401808060200182810382526022815260200180611a896022913960400191505060405180910390fd5b506001600160a01b03166000908152602091909152604090205460ff1690565b6115746101038263ffffffff61173b16565b6040516001600160a01b038216907fcd265ebaf09df2871cc7bd4133404a235ba12eff2041bb89d9c714a2621c7c7e90600090a250565b6115bd6101038263ffffffff6117a216565b6040516001600160a01b038216907f6719d08c1888103bea251a4ed56406bd0c3e69723c8a1686e017e7bbe159b6f890600090a250565b600054610100900460ff168061160d575061160d6112a1565b8061161b575060005460ff16155b6116565760405162461bcd60e51b815260040180806020018281038252602e815260200180611aab602e913960400191505060405180910390fd5b600054610100900460ff16158015611681576000805460ff1961ff0019909116610100171660011790555b61168a82610af5565b61169757611697826115ab565b8015610f5d576000805461ff00191690555050565b6001600160a01b0381166116f15760405162461bcd60e51b81526004018080602001828103825260268152602001806119926026913960400191505060405180910390fd5b60d0546040516001600160a01b03808416921690600080516020611a6983398151915290600090a360d080546001600160a01b0319166001600160a01b0392909216919091179055565b61174582826114fb565b6117805760405162461bcd60e51b8152600401808060200182810382526021815260200180611a006021913960400191505060405180910390fd5b6001600160a01b0316600090815260209190915260409020805460ff19169055565b6117ac82826114fb565b156117fe576040805162461bcd60e51b815260206004820152601f60248201527f526f6c65733a206163636f756e7420616c72656164792068617320726f6c6500604482015290519081900360640190fd5b6001600160a01b0316600090815260209190915260409020805460ff19166001179055565b828054600181600116156101000203166002900490600052602060002090601f016020900481019282601f1061186457805160ff1916838001178555611891565b82800160010185558215611891579182015b82811115611891578251825591602001919060010190611876565b5061189d929150611900565b5090565b8280548282559060005260206000209081019282156118f4579160200282015b828111156118f45781546001600160a01b0319166001600160a01b038435161782556020909201916001909101906118c1565b5061189d92915061191a565b6107da91905b8082111561189d5760008155600101611906565b6107da91905b8082111561189d5780546001600160a01b031916815560010161192056fe45524332303a207472616e7366657220746f20746865207a65726f2061646472657373506175736572526f6c653a2063616c6c657220646f6573206e6f742068617665207468652050617573657220726f6c654f776e61626c653a206e6577206f776e657220697320746865207a65726f206164647265737345524332303a20617070726f766520746f20746865207a65726f206164647265737345524332303a207472616e7366657220616d6f756e7420657863656564732062616c616e6365526f6c65733a206163636f756e7420646f6573206e6f74206861766520726f6c6545524332303a207472616e7366657220616d6f756e74206578636565647320616c6c6f77616e63654f776e61626c653a2063616c6c6572206973206e6f7420746865206f776e65728be0079c531659141344cd1fd0a4f28419497f9722a3daafe3b4186f6b6457e0526f6c65733a206163636f756e7420697320746865207a65726f2061646472657373436f6e747261637420696e7374616e63652068617320616c7265616479206265656e20696e697469616c697a656445524332303a207472616e736665722066726f6d20746865207a65726f206164647265737345524332303a20617070726f76652066726f6d20746865207a65726f206164647265737345524332303a2064656372656173656420616c6c6f77616e63652062656c6f77207a65726fa265627a7a723158202b5a396dbe669c534d7ad11815fe9e43e856249eaef70486bea665228da373ae64736f6c63430005100032",
  "source": "/**\r\n * @title: Dissident Token Governance main contract\r\n * @summary: ERC20 that holds pooled user funds together\r\n *           Each token represent a share of the underlying pools\r\n *           and with each token user have the right to redeem a portion of these pools\r\n * @author: Dissident Finance, dissident.finance\r\n */\r\npragma solidity 0.5.16;\r\nimport \"@openzeppelin/contracts-ethereum-package/contracts/math/SafeMath.sol\";\r\nimport \"@openzeppelin/contracts-ethereum-package/contracts/token/ERC20/SafeERC20.sol\";\r\n\r\nimport \"@openzeppelin/contracts-ethereum-package/contracts/token/ERC20/ERC20.sol\";\r\nimport \"@openzeppelin/contracts-ethereum-package/contracts/token/ERC20/ERC20Detailed.sol\";\r\n\r\nimport \"@openzeppelin/contracts-ethereum-package/contracts/utils/ReentrancyGuard.sol\";\r\nimport \"@openzeppelin/contracts-ethereum-package/contracts/ownership/Ownable.sol\";\r\nimport \"@openzeppelin/contracts-ethereum-package/contracts/lifecycle/Pausable.sol\";\r\n\r\nimport \"@openzeppelin/upgrades/contracts/Initializable.sol\";\r\n\r\n\r\ncontract DistTokenGovernance is Initializable, ERC20, ERC20Detailed, ReentrancyGuard, Ownable, Pausable {\r\n  using SafeERC20 for IERC20;\r\n  using SafeMath for uint256;\r\n\r\n  // eg. [COMPAddress, CRVAddress, ...]\r\n  address[] public govTokens;\r\n  // eg. [cTokenAddress, iTokenAddress, ...]\r\n  address[] public allAvailableTokens;\r\n  // eg. cTokenAddress => DistCompoundAddress\r\n  mapping(address => address) public protocolWrappers;\r\n\r\n\r\n  // ERROR MESSAGES:\r\n  // 0 = is 0\r\n  // 1 = already initialized\r\n  // 2 = length is different\r\n  // 3 = Not greater then\r\n  // 4 = lt\r\n  // 5 = too high\r\n  // 6 = not authorized\r\n  // 7 = not equal\r\n  // 8 = error on flash loan execution\r\n  // 9 = Reentrancy\r\n\r\n  // onlyOwner\r\n  /**\r\n   * It allows owner to modify allAvailableTokens array in case of emergency\r\n   * ie if a bug on a interest bearing token is discovered and reset protocolWrappers\r\n   * associated with those tokens.\r\n   *\r\n   * @param protocolTokens : array of protocolTokens addresses (eg [cDAI, iDAI, ...])\r\n   * @param wrappers : array of wrapper addresses (eg [DistCompound, DistFulcrum, ...])\r\n   * @param _newGovTokens : array of governance token addresses\r\n   * @param _newGovTokensEqualLen : array of governance token addresses for each\r\n   *  protocolToken (addr0 should be used for protocols with no govToken)\r\n   */\r\n   function setAllAvailableTokensAndWrappers(\r\n       address[] calldata protocolTokens,\r\n       address[] calldata wrappers,\r\n       address[] calldata _newGovTokens,\r\n       address[] calldata _newGovTokensEqualLen\r\n   ) external onlyOwner {\r\n       require(protocolTokens.length == wrappers.length, \"2\");\r\n       require(_newGovTokensEqualLen.length >= protocolTokens.length, \"3\");\r\n\r\n       govTokens = _newGovTokens;\r\n\r\n       address newGov;\r\n       address protToken;\r\n       for (uint256 i = 0; i < protocolTokens.length; i++) {\r\n           protToken = protocolTokens[i];\r\n           require(protToken != address(0) && wrappers[i] != address(0), \"0\");\r\n           protocolWrappers[protToken] = wrappers[i];\r\n\r\n           //set protocol token to gov token mapping\r\n        //    newGov = _newGovTokensEqualLen[i];\r\n        //    if (newGov != DIST) {\r\n        //        protocolTokenToGov[protToken] = newGov;\r\n        //    }\r\n       }\r\n\r\n       allAvailableTokens = protocolTokens;\r\n   }\r\n\r\n\r\n\r\n\r\n}",
  "sourcePath": "C:\\Users\\Akanimoh Osutuk\\Documents\\Personal\\dissident\\dissident-contracts\\contracts\\DistTokenGovernance.sol",
  "compiler": {
    "name": "solc",
    "version": "0.5.16+commit.9c3226ce.Emscripten.clang"
  },
  "schemaVersion": "3.4.3",
  "updatedAt": "2022-01-17T20:54:56.231Z",
  "devdoc": {
    "methods": {
      "allowance(address,address)": {
        "details": "See {IERC20-allowance}."
      },
      "approve(address,uint256)": {
        "details": "See {IERC20-approve}.     * Requirements:     * - `spender` cannot be the zero address."
      },
      "balanceOf(address)": {
        "details": "See {IERC20-balanceOf}."
      },
      "decimals()": {
        "details": "Returns the number of decimals used to get its user representation. For example, if `decimals` equals `2`, a balance of `505` tokens should be displayed to a user as `5,05` (`505 / 10 ** 2`).     * Tokens usually opt for a value of 18, imitating the relationship between Ether and Wei.     * NOTE: This information is only used for _display_ purposes: it in no way affects any of the arithmetic of the contract, including {IERC20-balanceOf} and {IERC20-transfer}."
      },
      "decreaseAllowance(address,uint256)": {
        "details": "Atomically decreases the allowance granted to `spender` by the caller.     * This is an alternative to {approve} that can be used as a mitigation for problems described in {IERC20-approve}.     * Emits an {Approval} event indicating the updated allowance.     * Requirements:     * - `spender` cannot be the zero address. - `spender` must have allowance for the caller of at least `subtractedValue`."
      },
      "increaseAllowance(address,uint256)": {
        "details": "Atomically increases the allowance granted to `spender` by the caller.     * This is an alternative to {approve} that can be used as a mitigation for problems described in {IERC20-approve}.     * Emits an {Approval} event indicating the updated allowance.     * Requirements:     * - `spender` cannot be the zero address."
      },
      "initialize(address)": {
        "details": "Initializes the contract in unpaused state. Assigns the Pauser role to the deployer."
      },
      "initialize(string,string,uint8)": {
        "details": "Sets the values for `name`, `symbol`, and `decimals`. All three of these values are immutable: they can only be set once during construction."
      },
      "isOwner()": {
        "details": "Returns true if the caller is the current owner."
      },
      "name()": {
        "details": "Returns the name of the token."
      },
      "owner()": {
        "details": "Returns the address of the current owner."
      },
      "pause()": {
        "details": "Called by a pauser to pause, triggers stopped state."
      },
      "paused()": {
        "details": "Returns true if the contract is paused, and false otherwise."
      },
      "renounceOwnership()": {
        "details": "Leaves the contract without owner. It will not be possible to call `onlyOwner` functions anymore. Can only be called by the current owner.     * > Note: Renouncing ownership will leave the contract without an owner, thereby removing any functionality that is only available to the owner."
      },
      "setAllAvailableTokensAndWrappers(address[],address[],address[],address[])": {
        "params": {
          "_newGovTokens": ": array of governance token addresses",
          "_newGovTokensEqualLen": ": array of governance token addresses for each protocolToken (addr0 should be used for protocols with no govToken)",
          "protocolTokens": ": array of protocolTokens addresses (eg [cDAI, iDAI, ...])",
          "wrappers": ": array of wrapper addresses (eg [DistCompound, DistFulcrum, ...])"
        }
      },
      "symbol()": {
        "details": "Returns the symbol of the token, usually a shorter version of the name."
      },
      "totalSupply()": {
        "details": "See {IERC20-totalSupply}."
      },
      "transfer(address,uint256)": {
        "details": "See {IERC20-transfer}.     * Requirements:     * - `recipient` cannot be the zero address. - the caller must have a balance of at least `amount`."
      },
      "transferFrom(address,address,uint256)": {
        "details": "See {IERC20-transferFrom}.     * Emits an {Approval} event indicating the updated allowance. This is not required by the EIP. See the note at the beginning of {ERC20};     * Requirements: - `sender` and `recipient` cannot be the zero address. - `sender` must have a balance of at least `amount`. - the caller must have allowance for `sender`'s tokens of at least `amount`."
      },
      "transferOwnership(address)": {
        "details": "Transfers ownership of the contract to a new account (`newOwner`). Can only be called by the current owner."
      },
      "unpause()": {
        "details": "Called by a pauser to unpause, returns to normal state."
      }
    }
  },
  "userdoc": {
    "methods": {
      "setAllAvailableTokensAndWrappers(address[],address[],address[],address[])": {
        "notice": "It allows owner to modify allAvailableTokens array in case of emergency ie if a bug on a interest bearing token is discovered and reset protocolWrappers associated with those tokens. "
      }
    }
  }
}