{
  "contractName": "DistTokenGovernance",
  "abi": [
    {
      "anonymous": false,
      "inputs": [
        {
          "indexed": true,
          "internalType": "address",
          "name": "owner",
          "type": "address"
        },
        {
          "indexed": true,
          "internalType": "address",
          "name": "spender",
          "type": "address"
        },
        {
          "indexed": false,
          "internalType": "uint256",
          "name": "value",
          "type": "uint256"
        }
      ],
      "name": "Approval",
      "type": "event"
    },
    {
      "anonymous": false,
      "inputs": [
        {
          "indexed": true,
          "internalType": "address",
          "name": "previousOwner",
          "type": "address"
        },
        {
          "indexed": true,
          "internalType": "address",
          "name": "newOwner",
          "type": "address"
        }
      ],
      "name": "OwnershipTransferred",
      "type": "event"
    },
    {
      "anonymous": false,
      "inputs": [
        {
          "indexed": false,
          "internalType": "address",
          "name": "account",
          "type": "address"
        }
      ],
      "name": "Paused",
      "type": "event"
    },
    {
      "anonymous": false,
      "inputs": [
        {
          "indexed": true,
          "internalType": "address",
          "name": "account",
          "type": "address"
        }
      ],
      "name": "PauserAdded",
      "type": "event"
    },
    {
      "anonymous": false,
      "inputs": [
        {
          "indexed": true,
          "internalType": "address",
          "name": "account",
          "type": "address"
        }
      ],
      "name": "PauserRemoved",
      "type": "event"
    },
    {
      "anonymous": false,
      "inputs": [
        {
          "indexed": true,
          "internalType": "address",
          "name": "from",
          "type": "address"
        },
        {
          "indexed": true,
          "internalType": "address",
          "name": "to",
          "type": "address"
        },
        {
          "indexed": false,
          "internalType": "uint256",
          "name": "value",
          "type": "uint256"
        }
      ],
      "name": "Transfer",
      "type": "event"
    },
    {
      "anonymous": false,
      "inputs": [
        {
          "indexed": false,
          "internalType": "address",
          "name": "account",
          "type": "address"
        }
      ],
      "name": "Unpaused",
      "type": "event"
    },
    {
      "constant": false,
      "inputs": [
        {
          "internalType": "address",
          "name": "account",
          "type": "address"
        }
      ],
      "name": "addPauser",
      "outputs": [],
      "payable": false,
      "stateMutability": "nonpayable",
      "type": "function"
    },
    {
      "constant": true,
      "inputs": [
        {
          "internalType": "uint256",
          "name": "",
          "type": "uint256"
        }
      ],
      "name": "allAvailableTokens",
      "outputs": [
        {
          "internalType": "address",
          "name": "",
          "type": "address"
        }
      ],
      "payable": false,
      "stateMutability": "view",
      "type": "function"
    },
    {
      "constant": true,
      "inputs": [
        {
          "internalType": "address",
          "name": "owner",
          "type": "address"
        },
        {
          "internalType": "address",
          "name": "spender",
          "type": "address"
        }
      ],
      "name": "allowance",
      "outputs": [
        {
          "internalType": "uint256",
          "name": "",
          "type": "uint256"
        }
      ],
      "payable": false,
      "stateMutability": "view",
      "type": "function"
    },
    {
      "constant": false,
      "inputs": [
        {
          "internalType": "address",
          "name": "spender",
          "type": "address"
        },
        {
          "internalType": "uint256",
          "name": "amount",
          "type": "uint256"
        }
      ],
      "name": "approve",
      "outputs": [
        {
          "internalType": "bool",
          "name": "",
          "type": "bool"
        }
      ],
      "payable": false,
      "stateMutability": "nonpayable",
      "type": "function"
    },
    {
      "constant": true,
      "inputs": [
        {
          "internalType": "address",
          "name": "account",
          "type": "address"
        }
      ],
      "name": "balanceOf",
      "outputs": [
        {
          "internalType": "uint256",
          "name": "",
          "type": "uint256"
        }
      ],
      "payable": false,
      "stateMutability": "view",
      "type": "function"
    },
    {
      "constant": true,
      "inputs": [],
      "name": "decimals",
      "outputs": [
        {
          "internalType": "uint8",
          "name": "",
          "type": "uint8"
        }
      ],
      "payable": false,
      "stateMutability": "view",
      "type": "function"
    },
    {
      "constant": false,
      "inputs": [
        {
          "internalType": "address",
          "name": "spender",
          "type": "address"
        },
        {
          "internalType": "uint256",
          "name": "subtractedValue",
          "type": "uint256"
        }
      ],
      "name": "decreaseAllowance",
      "outputs": [
        {
          "internalType": "bool",
          "name": "",
          "type": "bool"
        }
      ],
      "payable": false,
      "stateMutability": "nonpayable",
      "type": "function"
    },
    {
      "constant": true,
      "inputs": [
        {
          "internalType": "uint256",
          "name": "",
          "type": "uint256"
        }
      ],
      "name": "govTokens",
      "outputs": [
        {
          "internalType": "address",
          "name": "",
          "type": "address"
        }
      ],
      "payable": false,
      "stateMutability": "view",
      "type": "function"
    },
    {
      "constant": false,
      "inputs": [
        {
          "internalType": "address",
          "name": "spender",
          "type": "address"
        },
        {
          "internalType": "uint256",
          "name": "addedValue",
          "type": "uint256"
        }
      ],
      "name": "increaseAllowance",
      "outputs": [
        {
          "internalType": "bool",
          "name": "",
          "type": "bool"
        }
      ],
      "payable": false,
      "stateMutability": "nonpayable",
      "type": "function"
    },
    {
      "constant": false,
      "inputs": [
        {
          "internalType": "string",
          "name": "name",
          "type": "string"
        },
        {
          "internalType": "string",
          "name": "symbol",
          "type": "string"
        },
        {
          "internalType": "uint8",
          "name": "decimals",
          "type": "uint8"
        }
      ],
      "name": "initialize",
      "outputs": [],
      "payable": false,
      "stateMutability": "nonpayable",
      "type": "function"
    },
    {
      "constant": false,
      "inputs": [],
      "name": "initialize",
      "outputs": [],
      "payable": false,
      "stateMutability": "nonpayable",
      "type": "function"
    },
    {
      "constant": false,
      "inputs": [
        {
          "internalType": "address",
          "name": "sender",
          "type": "address"
        }
      ],
      "name": "initialize",
      "outputs": [],
      "payable": false,
      "stateMutability": "nonpayable",
      "type": "function"
    },
    {
      "constant": true,
      "inputs": [],
      "name": "isOwner",
      "outputs": [
        {
          "internalType": "bool",
          "name": "",
          "type": "bool"
        }
      ],
      "payable": false,
      "stateMutability": "view",
      "type": "function"
    },
    {
      "constant": true,
      "inputs": [
        {
          "internalType": "address",
          "name": "account",
          "type": "address"
        }
      ],
      "name": "isPauser",
      "outputs": [
        {
          "internalType": "bool",
          "name": "",
          "type": "bool"
        }
      ],
      "payable": false,
      "stateMutability": "view",
      "type": "function"
    },
    {
      "constant": true,
      "inputs": [],
      "name": "name",
      "outputs": [
        {
          "internalType": "string",
          "name": "",
          "type": "string"
        }
      ],
      "payable": false,
      "stateMutability": "view",
      "type": "function"
    },
    {
      "constant": true,
      "inputs": [],
      "name": "owner",
      "outputs": [
        {
          "internalType": "address",
          "name": "",
          "type": "address"
        }
      ],
      "payable": false,
      "stateMutability": "view",
      "type": "function"
    },
    {
      "constant": false,
      "inputs": [],
      "name": "pause",
      "outputs": [],
      "payable": false,
      "stateMutability": "nonpayable",
      "type": "function"
    },
    {
      "constant": true,
      "inputs": [],
      "name": "paused",
      "outputs": [
        {
          "internalType": "bool",
          "name": "",
          "type": "bool"
        }
      ],
      "payable": false,
      "stateMutability": "view",
      "type": "function"
    },
    {
      "constant": true,
      "inputs": [
        {
          "internalType": "address",
          "name": "",
          "type": "address"
        }
      ],
      "name": "protocolWrappers",
      "outputs": [
        {
          "internalType": "address",
          "name": "",
          "type": "address"
        }
      ],
      "payable": false,
      "stateMutability": "view",
      "type": "function"
    },
    {
      "constant": true,
      "inputs": [],
      "name": "rebalancer",
      "outputs": [
        {
          "internalType": "address",
          "name": "",
          "type": "address"
        }
      ],
      "payable": false,
      "stateMutability": "view",
      "type": "function"
    },
    {
      "constant": false,
      "inputs": [],
      "name": "renounceOwnership",
      "outputs": [],
      "payable": false,
      "stateMutability": "nonpayable",
      "type": "function"
    },
    {
      "constant": false,
      "inputs": [],
      "name": "renouncePauser",
      "outputs": [],
      "payable": false,
      "stateMutability": "nonpayable",
      "type": "function"
    },
    {
      "constant": true,
      "inputs": [],
      "name": "stkAAVE",
      "outputs": [
        {
          "internalType": "address",
          "name": "",
          "type": "address"
        }
      ],
      "payable": false,
      "stateMutability": "view",
      "type": "function"
    },
    {
      "constant": true,
      "inputs": [],
      "name": "symbol",
      "outputs": [
        {
          "internalType": "string",
          "name": "",
          "type": "string"
        }
      ],
      "payable": false,
      "stateMutability": "view",
      "type": "function"
    },
    {
      "constant": true,
      "inputs": [],
      "name": "token",
      "outputs": [
        {
          "internalType": "address",
          "name": "",
          "type": "address"
        }
      ],
      "payable": false,
      "stateMutability": "view",
      "type": "function"
    },
    {
      "constant": true,
      "inputs": [],
      "name": "tokenHelper",
      "outputs": [
        {
          "internalType": "address",
          "name": "",
          "type": "address"
        }
      ],
      "payable": false,
      "stateMutability": "view",
      "type": "function"
    },
    {
      "constant": true,
      "inputs": [],
      "name": "totalSupply",
      "outputs": [
        {
          "internalType": "uint256",
          "name": "",
          "type": "uint256"
        }
      ],
      "payable": false,
      "stateMutability": "view",
      "type": "function"
    },
    {
      "constant": false,
      "inputs": [
        {
          "internalType": "address",
          "name": "recipient",
          "type": "address"
        },
        {
          "internalType": "uint256",
          "name": "amount",
          "type": "uint256"
        }
      ],
      "name": "transfer",
      "outputs": [
        {
          "internalType": "bool",
          "name": "",
          "type": "bool"
        }
      ],
      "payable": false,
      "stateMutability": "nonpayable",
      "type": "function"
    },
    {
      "constant": false,
      "inputs": [
        {
          "internalType": "address",
          "name": "sender",
          "type": "address"
        },
        {
          "internalType": "address",
          "name": "recipient",
          "type": "address"
        },
        {
          "internalType": "uint256",
          "name": "amount",
          "type": "uint256"
        }
      ],
      "name": "transferFrom",
      "outputs": [
        {
          "internalType": "bool",
          "name": "",
          "type": "bool"
        }
      ],
      "payable": false,
      "stateMutability": "nonpayable",
      "type": "function"
    },
    {
      "constant": false,
      "inputs": [
        {
          "internalType": "address",
          "name": "newOwner",
          "type": "address"
        }
      ],
      "name": "transferOwnership",
      "outputs": [],
      "payable": false,
      "stateMutability": "nonpayable",
      "type": "function"
    },
    {
      "constant": false,
      "inputs": [],
      "name": "unpause",
      "outputs": [],
      "payable": false,
      "stateMutability": "nonpayable",
      "type": "function"
    },
    {
      "constant": false,
      "inputs": [
        {
          "internalType": "address[]",
          "name": "protocolTokens",
          "type": "address[]"
        },
        {
          "internalType": "address[]",
          "name": "wrappers",
          "type": "address[]"
        },
        {
          "internalType": "address[]",
          "name": "_newGovTokens",
          "type": "address[]"
        },
        {
          "internalType": "address[]",
          "name": "_newGovTokensEqualLen",
          "type": "address[]"
        }
      ],
      "name": "setAllAvailableTokensAndWrappers",
      "outputs": [],
      "payable": false,
      "stateMutability": "nonpayable",
      "type": "function"
    },
    {
      "constant": false,
      "inputs": [
        {
          "internalType": "address",
          "name": "_cToken",
          "type": "address"
        }
      ],
      "name": "setCToken",
      "outputs": [],
      "payable": false,
      "stateMutability": "nonpayable",
      "type": "function"
    },
    {
      "constant": false,
      "inputs": [
        {
          "internalType": "address",
          "name": "_aToken",
          "type": "address"
        }
      ],
      "name": "setAToken",
      "outputs": [],
      "payable": false,
      "stateMutability": "nonpayable",
      "type": "function"
    },
    {
      "constant": false,
      "inputs": [
        {
          "internalType": "address",
          "name": "_tokenHelper",
          "type": "address"
        }
      ],
      "name": "setTokenHelper",
      "outputs": [],
      "payable": false,
      "stateMutability": "nonpayable",
      "type": "function"
    },
    {
      "constant": false,
      "inputs": [
        {
          "internalType": "address",
          "name": "_rebalancer",
          "type": "address"
        }
      ],
      "name": "setRebalancer",
      "outputs": [],
      "payable": false,
      "stateMutability": "nonpayable",
      "type": "function"
    }
  ],
  "bytecode": "0x6080604052611f41806100136000396000f3fe608060405234801561001057600080fd5b50600436106101ac5760003560e01c806301d22ccd146101b157806306fdde03146101d5578063095ea7b3146102525780631624f6c61461029257806318160ddd146103c25780631fc29c01146103dc57806323b872dd146103e45780632fdc91ee1461041a578063313ce5671461042257806336a0008214610440578063395093511461045d5780633f4ba83a1461048957806345c8026c1461049157806346fbf68e146104b75780634cb71222146104dd5780635c975abb146105035780635f09d84c1461050b5780636c11ec96146105315780636cfd1553146105575780636ef8d66d1461057d57806370a0823114610585578063715018a6146105ab578063746daa4e146105b35780638129fc1c146105d057806382dc1ec4146105d85780638456cb59146105fe5780638da5cb5b146106065780638f32d59b1461060e57806395d89b4114610616578063a457c2d71461061e578063a9059cbb1461064a578063c4d66de814610676578063dd62ed3e1461069c578063f16c88db146106ca578063f2fde38b14610828578063fc0c546a1461084e575b600080fd5b6101b9610856565b604080516001600160a01b039092168252519081900360200190f35b6101dd610866565b6040805160208082528351818301528351919283929083019185019080838360005b838110156102175781810151838201526020016101ff565b50505050905090810190601f1680156102445780820380516001836020036101000a031916815260200191505b509250505060405180910390f35b61027e6004803603604081101561026857600080fd5b506001600160a01b0381351690602001356108fd565b604080519115158252519081900360200190f35b6103c0600480360360608110156102a857600080fd5b810190602081018135600160201b8111156102c257600080fd5b8201836020820111156102d457600080fd5b803590602001918460018302840111600160201b831117156102f557600080fd5b91908080601f0160208091040260200160405190810160405280939291908181526020018383808284376000920191909152509295949360208101935035915050600160201b81111561034757600080fd5b82018360208201111561035957600080fd5b803590602001918460018302840111600160201b8311171561037a57600080fd5b91908080601f0160208091040260200160405190810160405280939291908181526020018383808284376000920191909152509295505050903560ff16915061091a9050565b005b6103ca6109f6565b60408051918252519081900360200190f35b6101b96109fc565b61027e600480360360608110156103fa57600080fd5b506001600160a01b03813581169160208101359091169060400135610a14565b6101b9610aa1565b61042a610ab1565b6040805160ff9092168252519081900360200190f35b6101b96004803603602081101561045657600080fd5b5035610aba565b61027e6004803603604081101561047357600080fd5b506001600160a01b038135169060200135610ae2565b6103c0610b36565b6101b9600480360360208110156104a757600080fd5b50356001600160a01b0316610c21565b61027e600480360360208110156104cd57600080fd5b50356001600160a01b0316610c3d565b6103c0600480360360208110156104f357600080fd5b50356001600160a01b0316610c57565b61027e610cf5565b6103c06004803603602081101561052157600080fd5b50356001600160a01b0316610cff565b6103c06004803603602081101561054757600080fd5b50356001600160a01b0316610d9a565b6103c06004803603602081101561056d57600080fd5b50356001600160a01b0316610e35565b6103c0610ed0565b6103ca6004803603602081101561059b57600080fd5b50356001600160a01b0316610ee2565b6103c0610efd565b6101b9600480360360208110156105c957600080fd5b5035610f7c565b6103c0610f8a565b6103c0600480360360208110156105ee57600080fd5b50356001600160a01b0316611030565b6103c061107f565b6101b9611148565b61027e611157565b6101dd61117d565b61027e6004803603604081101561063457600080fd5b506001600160a01b0381351690602001356111de565b61027e6004803603604081101561066057600080fd5b506001600160a01b03813516906020013561124c565b6103c06004803603602081101561068c57600080fd5b50356001600160a01b0316611260565b6103ca600480360360408110156106b257600080fd5b506001600160a01b0381358116916020013516611317565b6103c0600480360360808110156106e057600080fd5b810190602081018135600160201b8111156106fa57600080fd5b82018360208201111561070c57600080fd5b803590602001918460208302840111600160201b8311171561072d57600080fd5b919390929091602081019035600160201b81111561074a57600080fd5b82018360208201111561075c57600080fd5b803590602001918460208302840111600160201b8311171561077d57600080fd5b919390929091602081019035600160201b81111561079a57600080fd5b8201836020820111156107ac57600080fd5b803590602001918460208302840111600160201b831117156107cd57600080fd5b919390929091602081019035600160201b8111156107ea57600080fd5b8201836020820111156107fc57600080fd5b803590602001918460208302840111600160201b8311171561081d57600080fd5b509092509050611342565b6103c06004803603602081101561083e57600080fd5b50356001600160a01b0316611517565b6101b9611567565b61016c546001600160a01b031681565b60688054604080516020601f60026000196101006001881615020190951694909404938401819004810282018101909252828152606093909290918301828280156108f25780601f106108c7576101008083540402835291602001916108f2565b820191906000526020600020905b8154815290600101906020018083116108d557829003601f168201915b505050505090505b90565b600061091161090a611577565b848461157b565b50600192915050565b600054610100900460ff16806109335750610933611667565b80610941575060005460ff16155b61097c5760405162461bcd60e51b815260040180806020018281038252602e815260200180611e71602e913960400191505060405180910390fd5b600054610100900460ff161580156109a7576000805460ff1961ff0019909116610100171660011790555b83516109ba906068906020870190611be9565b5082516109ce906069906020860190611be9565b50606a805460ff191660ff841617905580156109f0576000805461ff00191690555b50505050565b60355490565b734da27a545c0c5b758a6ba100e3a049001de870f581565b6000610a2184848461166d565b610a9784610a2d611577565b610a9285604051806060016040528060288152602001611de7602891396001600160a01b038a16600090815260346020526040812090610a6b611577565b6001600160a01b03168152602081019190915260400160002054919063ffffffff6117cb16565b61157b565b5060019392505050565b610170546001600160a01b031681565b606a5460ff1690565b61016e8181548110610ac857fe5b6000918252602090912001546001600160a01b0316905081565b6000610911610aef611577565b84610a928560346000610b00611577565b6001600160a01b03908116825260208083019390935260409182016000908120918c16815292529020549063ffffffff61186216565b610b46610b41611577565b610c3d565b610b815760405162461bcd60e51b8152600401808060200182810382526030815260200180611d286030913960400191505060405180910390fd5b6101365460ff16610bd0576040805162461bcd60e51b815260206004820152601460248201527314185d5cd8589b194e881b9bdd081c185d5cd95960621b604482015290519081900360640190fd5b610136805460ff191690557f5db9ee0a495bf2e6ff9c91a7834c1ba4fdd244a5e8aa4e537bd38aeae4b073aa610c04611577565b604080516001600160a01b039092168252519081900360200190a1565b61016f602052600090815260409020546001600160a01b031681565b6000610c516101038363ffffffff6118c116565b92915050565b610c5f611157565b610c9e576040805162461bcd60e51b81526020600482018190526024820152600080516020611e0f833981519152604482015290519081900360640190fd5b61016b80546001600160a01b0319166001600160a01b038316908117909155610cf2576040805162461bcd60e51b81526020600482015260016024820152600360fc1b604482015290519081900360640190fd5b50565b6101365460ff1690565b610d07611157565b610d46576040805162461bcd60e51b81526020600482018190526024820152600080516020611e0f833981519152604482015290519081900360640190fd5b61017180546001600160a01b0319166001600160a01b038316908117909155610cf2576040805162461bcd60e51b81526020600482015260016024820152600360fc1b604482015290519081900360640190fd5b610da2611157565b610de1576040805162461bcd60e51b81526020600482018190526024820152600080516020611e0f833981519152604482015290519081900360640190fd5b61017080546001600160a01b0319166001600160a01b038316908117909155610cf2576040805162461bcd60e51b81526020600482015260016024820152600360fc1b604482015290519081900360640190fd5b610e3d611157565b610e7c576040805162461bcd60e51b81526020600482018190526024820152600080516020611e0f833981519152604482015290519081900360640190fd5b61016c80546001600160a01b0319166001600160a01b038316908117909155610cf2576040805162461bcd60e51b81526020600482015260016024820152600360fc1b604482015290519081900360640190fd5b610ee0610edb611577565b611928565b565b6001600160a01b031660009081526033602052604090205490565b610f05611157565b610f44576040805162461bcd60e51b81526020600482018190526024820152600080516020611e0f833981519152604482015290519081900360640190fd5b60d0546040516000916001600160a01b031690600080516020611e2f833981519152908390a360d080546001600160a01b0319169055565b61016d8181548110610ac857fe5b600054610100900460ff1680610fa35750610fa3611667565b80610fb1575060005460ff16155b610fec5760405162461bcd60e51b815260040180806020018281038252602e815260200180611e71602e913960400191505060405180910390fd5b600054610100900460ff16158015611017576000805460ff1961ff0019909116610100171660011790555b6001609d558015610cf2576000805461ff001916905550565b61103b610b41611577565b6110765760405162461bcd60e51b8152600401808060200182810382526030815260200180611d286030913960400191505060405180910390fd5b610cf281611971565b61108a610b41611577565b6110c55760405162461bcd60e51b8152600401808060200182810382526030815260200180611d286030913960400191505060405180910390fd5b6101365460ff1615611111576040805162461bcd60e51b815260206004820152601060248201526f14185d5cd8589b194e881c185d5cd95960821b604482015290519081900360640190fd5b610136805460ff191660011790557f62e78cea01bee320cd4e420270b5ea74000d11b0c9f74754ebdbfc544b05a258610c04611577565b60d0546001600160a01b031690565b60d0546000906001600160a01b031661116e611577565b6001600160a01b031614905090565b60698054604080516020601f60026000196101006001881615020190951694909404938401819004810282018101909252828152606093909290918301828280156108f25780601f106108c7576101008083540402835291602001916108f2565b60006109116111eb611577565b84610a9285604051806060016040528060258152602001611ee86025913960346000611215611577565b6001600160a01b03908116825260208083019390935260409182016000908120918d1681529252902054919063ffffffff6117cb16565b6000610911611259611577565b848461166d565b600054610100900460ff16806112795750611279611667565b80611287575060005460ff16155b6112c25760405162461bcd60e51b815260040180806020018281038252602e815260200180611e71602e913960400191505060405180910390fd5b600054610100900460ff161580156112ed576000805460ff1961ff0019909116610100171660011790555b6112f6826119ba565b610136805460ff191690558015611313576000805461ff00191690555b5050565b6001600160a01b03918216600090815260346020908152604080832093909416825291909152205490565b61134a611157565b611389576040805162461bcd60e51b81526020600482018190526024820152600080516020611e0f833981519152604482015290519081900360640190fd5b8685146113c1576040805162461bcd60e51b81526020600482015260016024820152601960f91b604482015290519081900360640190fd5b868110156113fa576040805162461bcd60e51b81526020600482015260016024820152603360f81b604482015290519081900360640190fd5b61140761016d8585611c67565b50600080805b898110156114fc578a8a8281811061142157fe5b905060200201356001600160a01b0316915060006001600160a01b0316826001600160a01b03161415801561147b5750600089898381811061145f57fe5b905060200201356001600160a01b03166001600160a01b031614155b6114b0576040805162461bcd60e51b81526020600482015260016024820152600360fc1b604482015290519081900360640190fd5b8888828181106114bc57fe5b6001600160a01b03858116600090815261016f6020908152604090912080546001600160a01b03191693909102949094013516179091555060010161140d565b5061150a61016e8b8b611c67565b5050505050505050505050565b61151f611157565b61155e576040805162461bcd60e51b81526020600482018190526024820152600080516020611e0f833981519152604482015290519081900360640190fd5b610cf281611a72565b610169546001600160a01b031681565b3390565b6001600160a01b0383166115c05760405162461bcd60e51b8152600401808060200182810382526024815260200180611ec46024913960400191505060405180910390fd5b6001600160a01b0382166116055760405162461bcd60e51b8152600401808060200182810382526022815260200180611d7e6022913960400191505060405180910390fd5b6001600160a01b03808416600081815260346020908152604080832094871680845294825291829020859055815185815291517f8c5be1e5ebec7d5bd14f71427d1e84f3dd0314c0f7b2291e5b200ac8c7c3b9259281900390910190a3505050565b303b1590565b6001600160a01b0383166116b25760405162461bcd60e51b8152600401808060200182810382526025815260200180611e9f6025913960400191505060405180910390fd5b6001600160a01b0382166116f75760405162461bcd60e51b8152600401808060200182810382526023815260200180611d056023913960400191505060405180910390fd5b61173a81604051806060016040528060268152602001611da0602691396001600160a01b038616600090815260336020526040902054919063ffffffff6117cb16565b6001600160a01b03808516600090815260336020526040808220939093559084168152205461176f908263ffffffff61186216565b6001600160a01b0380841660008181526033602090815260409182902094909455805185815290519193928716927fddf252ad1be2c89b69c2b068fc378daa952ba7f163c4a11628f55a4df523b3ef92918290030190a3505050565b6000818484111561185a5760405162461bcd60e51b81526004018080602001828103825283818151815260200191508051906020019080838360005b8381101561181f578181015183820152602001611807565b50505050905090810190601f16801561184c5780820380516001836020036101000a031916815260200191505b509250505060405180910390fd5b505050900390565b6000828201838110156118ba576040805162461bcd60e51b815260206004820152601b60248201527a536166654d6174683a206164646974696f6e206f766572666c6f7760281b604482015290519081900360640190fd5b9392505050565b60006001600160a01b0382166119085760405162461bcd60e51b8152600401808060200182810382526022815260200180611e4f6022913960400191505060405180910390fd5b506001600160a01b03166000908152602091909152604090205460ff1690565b61193a6101038263ffffffff611b0116565b6040516001600160a01b038216907fcd265ebaf09df2871cc7bd4133404a235ba12eff2041bb89d9c714a2621c7c7e90600090a250565b6119836101038263ffffffff611b6816565b6040516001600160a01b038216907f6719d08c1888103bea251a4ed56406bd0c3e69723c8a1686e017e7bbe159b6f890600090a250565b600054610100900460ff16806119d357506119d3611667565b806119e1575060005460ff16155b611a1c5760405162461bcd60e51b815260040180806020018281038252602e815260200180611e71602e913960400191505060405180910390fd5b600054610100900460ff16158015611a47576000805460ff1961ff0019909116610100171660011790555b611a5082610c3d565b611a5d57611a5d82611971565b8015611313576000805461ff00191690555050565b6001600160a01b038116611ab75760405162461bcd60e51b8152600401808060200182810382526026815260200180611d586026913960400191505060405180910390fd5b60d0546040516001600160a01b03808416921690600080516020611e2f83398151915290600090a360d080546001600160a01b0319166001600160a01b0392909216919091179055565b611b0b82826118c1565b611b465760405162461bcd60e51b8152600401808060200182810382526021815260200180611dc66021913960400191505060405180910390fd5b6001600160a01b0316600090815260209190915260409020805460ff19169055565b611b7282826118c1565b15611bc4576040805162461bcd60e51b815260206004820152601f60248201527f526f6c65733a206163636f756e7420616c72656164792068617320726f6c6500604482015290519081900360640190fd5b6001600160a01b0316600090815260209190915260409020805460ff19166001179055565b828054600181600116156101000203166002900490600052602060002090601f016020900481019282601f10611c2a57805160ff1916838001178555611c57565b82800160010185558215611c57579182015b82811115611c57578251825591602001919060010190611c3c565b50611c63929150611cc6565b5090565b828054828255906000526020600020908101928215611cba579160200282015b82811115611cba5781546001600160a01b0319166001600160a01b03843516178255602090920191600190910190611c87565b50611c63929150611ce0565b6108fa91905b80821115611c635760008155600101611ccc565b6108fa91905b80821115611c635780546001600160a01b0319168155600101611ce656fe45524332303a207472616e7366657220746f20746865207a65726f2061646472657373506175736572526f6c653a2063616c6c657220646f6573206e6f742068617665207468652050617573657220726f6c654f776e61626c653a206e6577206f776e657220697320746865207a65726f206164647265737345524332303a20617070726f766520746f20746865207a65726f206164647265737345524332303a207472616e7366657220616d6f756e7420657863656564732062616c616e6365526f6c65733a206163636f756e7420646f6573206e6f74206861766520726f6c6545524332303a207472616e7366657220616d6f756e74206578636565647320616c6c6f77616e63654f776e61626c653a2063616c6c6572206973206e6f7420746865206f776e65728be0079c531659141344cd1fd0a4f28419497f9722a3daafe3b4186f6b6457e0526f6c65733a206163636f756e7420697320746865207a65726f2061646472657373436f6e747261637420696e7374616e63652068617320616c7265616479206265656e20696e697469616c697a656445524332303a207472616e736665722066726f6d20746865207a65726f206164647265737345524332303a20617070726f76652066726f6d20746865207a65726f206164647265737345524332303a2064656372656173656420616c6c6f77616e63652062656c6f77207a65726fa265627a7a72315820dd63ae0e25bcc681cda0a9aa6bacc1314d96e0cccf36f6700d6d48a1d4d1bba264736f6c63430005100032",
  "source": "/**\r\n * @title: Dissident Token Governance main contract\r\n * @summary: ERC20 that holds pooled user funds together\r\n *           Each token represent a share of the underlying pools\r\n *           and with each token user have the right to redeem a portion of these pools\r\n * @author: Dissident Finance, dissident.finance\r\n */\r\npragma solidity 0.5.16;\r\nimport \"@openzeppelin/contracts-ethereum-package/contracts/math/SafeMath.sol\";\r\nimport \"@openzeppelin/contracts-ethereum-package/contracts/token/ERC20/SafeERC20.sol\";\r\n\r\nimport \"@openzeppelin/contracts-ethereum-package/contracts/token/ERC20/ERC20.sol\";\r\nimport \"@openzeppelin/contracts-ethereum-package/contracts/token/ERC20/ERC20Detailed.sol\";\r\n\r\nimport \"@openzeppelin/contracts-ethereum-package/contracts/utils/ReentrancyGuard.sol\";\r\nimport \"@openzeppelin/contracts-ethereum-package/contracts/ownership/Ownable.sol\";\r\nimport \"@openzeppelin/contracts-ethereum-package/contracts/lifecycle/Pausable.sol\";\r\n\r\nimport \"@openzeppelin/upgrades/contracts/Initializable.sol\";\r\n\r\n\r\ncontract DistTokenGovernance is Initializable, ERC20, ERC20Detailed, ReentrancyGuard, Ownable, Pausable {\r\n  using SafeERC20 for IERC20;\r\n  using SafeMath for uint256;\r\n\r\n  // State variables\r\n  // eg. DAI address\r\n  address public token;\r\n  // eg. iDAI address\r\n  address private iToken;\r\n  // eg. cDAI address\r\n  address private cToken;\r\n  // Idle rebalancer current implementation address\r\n  address public rebalancer;\r\n  // eg. [COMPAddress, CRVAddress, ...]\r\n  address[] public govTokens;\r\n  // eg. [cTokenAddress, iTokenAddress, ...]\r\n  address[] public allAvailableTokens;\r\n  // eg. cTokenAddress => DistCompoundAddress\r\n  mapping(address => address) public protocolWrappers;\r\n\r\n  // DistToken helper address\r\n  address public tokenHelper;\r\n\r\n  // Addresses for stkAAVE distribution from Aave\r\n  address public constant stkAAVE = address(0x4da27a545c0c5B758a6BA100e3a049001de870f5);\r\n  address private aToken;\r\n\r\n  // ERROR MESSAGES:\r\n  // 0 = is 0\r\n  // 1 = already initialized\r\n  // 2 = length is different\r\n  // 3 = Not greater then\r\n  // 4 = lt\r\n  // 5 = too high\r\n  // 6 = not authorized\r\n  // 7 = not equal\r\n  // 8 = error on flash loan execution\r\n  // 9 = Reentrancy\r\n\r\n  // onlyOwner\r\n  /**\r\n   * It allows owner to modify allAvailableTokens array in case of emergency\r\n   * ie if a bug on a interest bearing token is discovered and reset protocolWrappers\r\n   * associated with those tokens.\r\n   *\r\n   * @param protocolTokens : array of protocolTokens addresses (eg [cDAI, iDAI, ...])\r\n   * @param wrappers : array of wrapper addresses (eg [DistCompound, DistFulcrum, ...])\r\n   * @param _newGovTokens : array of governance token addresses\r\n   * @param _newGovTokensEqualLen : array of governance token addresses for each\r\n   *  protocolToken (addr0 should be used for protocols with no govToken)\r\n   */\r\n   function setAllAvailableTokensAndWrappers(\r\n       address[] calldata protocolTokens,\r\n       address[] calldata wrappers,\r\n       address[] calldata _newGovTokens,\r\n       address[] calldata _newGovTokensEqualLen\r\n   ) external onlyOwner {\r\n       require(protocolTokens.length == wrappers.length, \"2\");\r\n       require(_newGovTokensEqualLen.length >= protocolTokens.length, \"3\");\r\n\r\n       govTokens = _newGovTokens;\r\n\r\n       address newGov;\r\n       address protToken;\r\n       for (uint256 i = 0; i < protocolTokens.length; i++) {\r\n           protToken = protocolTokens[i];\r\n           require(protToken != address(0) && wrappers[i] != address(0), \"0\");\r\n           protocolWrappers[protToken] = wrappers[i];\r\n\r\n           //set protocol token to gov token mapping\r\n        //    newGov = _newGovTokensEqualLen[i];\r\n        //    if (newGov != DIST) {\r\n        //        protocolTokenToGov[protToken] = newGov;\r\n        //    }\r\n       }\r\n\r\n       allAvailableTokens = protocolTokens;\r\n   }\r\n\r\n    /**\r\n   * It allows owner to set the cToken address\r\n   *\r\n   * @param _cToken : new cToken address\r\n   */\r\n    function setCToken(address _cToken)\r\n        external onlyOwner {\r\n        require((cToken = _cToken) != address(0), \"0\");\r\n    }\r\n\r\n    /**\r\n    * It allows owner to set the aToken address\r\n    *\r\n    * @param _aToken : new aToken address\r\n    */\r\n    function setAToken(address _aToken)\r\n        external onlyOwner {\r\n        require((aToken = _aToken) != address(0), \"0\");\r\n    }\r\n\r\n    /**\r\n   * It allows owner to set the tokenHelper address\r\n   *\r\n   * @param _tokenHelper : new tokenHelper address\r\n   */\r\n    function setTokenHelper(address _tokenHelper)\r\n        external onlyOwner {\r\n        require((tokenHelper = _tokenHelper) != address(0), \"0\");\r\n    }\r\n\r\n    /**\r\n   * It allows owner to set the IdleRebalancerV3_1 address\r\n   *\r\n   * @param _rebalancer : new IdleRebalancerV3_1 address\r\n   */\r\n    function setRebalancer(address _rebalancer)\r\n        external onlyOwner {\r\n        require((rebalancer = _rebalancer) != address(0), \"0\");\r\n    }\r\n\r\n\r\n}",
  "sourcePath": "C:\\Users\\Akanimoh Osutuk\\Documents\\Personal\\dissident\\dissident-contracts\\contracts\\DistTokenGovernance.sol",
  "compiler": {
    "name": "solc",
    "version": "0.5.16+commit.9c3226ce.Emscripten.clang"
  },
  "schemaVersion": "3.4.3",
  "updatedAt": "2022-01-17T21:30:36.254Z",
  "devdoc": {
    "methods": {
      "allowance(address,address)": {
        "details": "See {IERC20-allowance}."
      },
      "approve(address,uint256)": {
        "details": "See {IERC20-approve}.     * Requirements:     * - `spender` cannot be the zero address."
      },
      "balanceOf(address)": {
        "details": "See {IERC20-balanceOf}."
      },
      "decimals()": {
        "details": "Returns the number of decimals used to get its user representation. For example, if `decimals` equals `2`, a balance of `505` tokens should be displayed to a user as `5,05` (`505 / 10 ** 2`).     * Tokens usually opt for a value of 18, imitating the relationship between Ether and Wei.     * NOTE: This information is only used for _display_ purposes: it in no way affects any of the arithmetic of the contract, including {IERC20-balanceOf} and {IERC20-transfer}."
      },
      "decreaseAllowance(address,uint256)": {
        "details": "Atomically decreases the allowance granted to `spender` by the caller.     * This is an alternative to {approve} that can be used as a mitigation for problems described in {IERC20-approve}.     * Emits an {Approval} event indicating the updated allowance.     * Requirements:     * - `spender` cannot be the zero address. - `spender` must have allowance for the caller of at least `subtractedValue`."
      },
      "increaseAllowance(address,uint256)": {
        "details": "Atomically increases the allowance granted to `spender` by the caller.     * This is an alternative to {approve} that can be used as a mitigation for problems described in {IERC20-approve}.     * Emits an {Approval} event indicating the updated allowance.     * Requirements:     * - `spender` cannot be the zero address."
      },
      "initialize(address)": {
        "details": "Initializes the contract in unpaused state. Assigns the Pauser role to the deployer."
      },
      "initialize(string,string,uint8)": {
        "details": "Sets the values for `name`, `symbol`, and `decimals`. All three of these values are immutable: they can only be set once during construction."
      },
      "isOwner()": {
        "details": "Returns true if the caller is the current owner."
      },
      "name()": {
        "details": "Returns the name of the token."
      },
      "owner()": {
        "details": "Returns the address of the current owner."
      },
      "pause()": {
        "details": "Called by a pauser to pause, triggers stopped state."
      },
      "paused()": {
        "details": "Returns true if the contract is paused, and false otherwise."
      },
      "renounceOwnership()": {
        "details": "Leaves the contract without owner. It will not be possible to call `onlyOwner` functions anymore. Can only be called by the current owner.     * > Note: Renouncing ownership will leave the contract without an owner, thereby removing any functionality that is only available to the owner."
      },
      "setAToken(address)": {
        "params": {
          "_aToken": ": new aToken address"
        }
      },
      "setAllAvailableTokensAndWrappers(address[],address[],address[],address[])": {
        "params": {
          "_newGovTokens": ": array of governance token addresses",
          "_newGovTokensEqualLen": ": array of governance token addresses for each protocolToken (addr0 should be used for protocols with no govToken)",
          "protocolTokens": ": array of protocolTokens addresses (eg [cDAI, iDAI, ...])",
          "wrappers": ": array of wrapper addresses (eg [DistCompound, DistFulcrum, ...])"
        }
      },
      "setCToken(address)": {
        "params": {
          "_cToken": ": new cToken address"
        }
      },
      "setRebalancer(address)": {
        "params": {
          "_rebalancer": ": new IdleRebalancerV3_1 address"
        }
      },
      "setTokenHelper(address)": {
        "params": {
          "_tokenHelper": ": new tokenHelper address"
        }
      },
      "symbol()": {
        "details": "Returns the symbol of the token, usually a shorter version of the name."
      },
      "totalSupply()": {
        "details": "See {IERC20-totalSupply}."
      },
      "transfer(address,uint256)": {
        "details": "See {IERC20-transfer}.     * Requirements:     * - `recipient` cannot be the zero address. - the caller must have a balance of at least `amount`."
      },
      "transferFrom(address,address,uint256)": {
        "details": "See {IERC20-transferFrom}.     * Emits an {Approval} event indicating the updated allowance. This is not required by the EIP. See the note at the beginning of {ERC20};     * Requirements: - `sender` and `recipient` cannot be the zero address. - `sender` must have a balance of at least `amount`. - the caller must have allowance for `sender`'s tokens of at least `amount`."
      },
      "transferOwnership(address)": {
        "details": "Transfers ownership of the contract to a new account (`newOwner`). Can only be called by the current owner."
      },
      "unpause()": {
        "details": "Called by a pauser to unpause, returns to normal state."
      }
    }
  },
  "userdoc": {
    "methods": {
      "setAToken(address)": {
        "notice": "It allows owner to set the aToken address "
      },
      "setAllAvailableTokensAndWrappers(address[],address[],address[],address[])": {
        "notice": "It allows owner to modify allAvailableTokens array in case of emergency ie if a bug on a interest bearing token is discovered and reset protocolWrappers associated with those tokens. "
      },
      "setCToken(address)": {
        "notice": "It allows owner to set the cToken address "
      },
      "setRebalancer(address)": {
        "notice": "It allows owner to set the IdleRebalancerV3_1 address "
      },
      "setTokenHelper(address)": {
        "notice": "It allows owner to set the tokenHelper address "
      }
    }
  }
}