{
  "contractName": "DistTokenGovernance",
  "abi": [
    {
      "anonymous": false,
      "inputs": [
        {
          "indexed": true,
          "internalType": "address",
          "name": "owner",
          "type": "address"
        },
        {
          "indexed": true,
          "internalType": "address",
          "name": "spender",
          "type": "address"
        },
        {
          "indexed": false,
          "internalType": "uint256",
          "name": "value",
          "type": "uint256"
        }
      ],
      "name": "Approval",
      "type": "event"
    },
    {
      "anonymous": false,
      "inputs": [
        {
          "indexed": true,
          "internalType": "address",
          "name": "previousOwner",
          "type": "address"
        },
        {
          "indexed": true,
          "internalType": "address",
          "name": "newOwner",
          "type": "address"
        }
      ],
      "name": "OwnershipTransferred",
      "type": "event"
    },
    {
      "anonymous": false,
      "inputs": [
        {
          "indexed": false,
          "internalType": "address",
          "name": "account",
          "type": "address"
        }
      ],
      "name": "Paused",
      "type": "event"
    },
    {
      "anonymous": false,
      "inputs": [
        {
          "indexed": true,
          "internalType": "address",
          "name": "account",
          "type": "address"
        }
      ],
      "name": "PauserAdded",
      "type": "event"
    },
    {
      "anonymous": false,
      "inputs": [
        {
          "indexed": true,
          "internalType": "address",
          "name": "account",
          "type": "address"
        }
      ],
      "name": "PauserRemoved",
      "type": "event"
    },
    {
      "anonymous": false,
      "inputs": [
        {
          "indexed": true,
          "internalType": "address",
          "name": "from",
          "type": "address"
        },
        {
          "indexed": true,
          "internalType": "address",
          "name": "to",
          "type": "address"
        },
        {
          "indexed": false,
          "internalType": "uint256",
          "name": "value",
          "type": "uint256"
        }
      ],
      "name": "Transfer",
      "type": "event"
    },
    {
      "anonymous": false,
      "inputs": [
        {
          "indexed": false,
          "internalType": "address",
          "name": "account",
          "type": "address"
        }
      ],
      "name": "Unpaused",
      "type": "event"
    },
    {
      "constant": true,
      "inputs": [],
      "name": "COMP",
      "outputs": [
        {
          "internalType": "address",
          "name": "",
          "type": "address"
        }
      ],
      "payable": false,
      "stateMutability": "view",
      "type": "function"
    },
    {
      "constant": true,
      "inputs": [],
      "name": "DIST",
      "outputs": [
        {
          "internalType": "address",
          "name": "",
          "type": "address"
        }
      ],
      "payable": false,
      "stateMutability": "view",
      "type": "function"
    },
    {
      "constant": false,
      "inputs": [
        {
          "internalType": "address",
          "name": "account",
          "type": "address"
        }
      ],
      "name": "addPauser",
      "outputs": [],
      "payable": false,
      "stateMutability": "nonpayable",
      "type": "function"
    },
    {
      "constant": true,
      "inputs": [
        {
          "internalType": "uint256",
          "name": "",
          "type": "uint256"
        }
      ],
      "name": "allAvailableTokens",
      "outputs": [
        {
          "internalType": "address",
          "name": "",
          "type": "address"
        }
      ],
      "payable": false,
      "stateMutability": "view",
      "type": "function"
    },
    {
      "constant": true,
      "inputs": [
        {
          "internalType": "address",
          "name": "owner",
          "type": "address"
        },
        {
          "internalType": "address",
          "name": "spender",
          "type": "address"
        }
      ],
      "name": "allowance",
      "outputs": [
        {
          "internalType": "uint256",
          "name": "",
          "type": "uint256"
        }
      ],
      "payable": false,
      "stateMutability": "view",
      "type": "function"
    },
    {
      "constant": false,
      "inputs": [
        {
          "internalType": "address",
          "name": "spender",
          "type": "address"
        },
        {
          "internalType": "uint256",
          "name": "amount",
          "type": "uint256"
        }
      ],
      "name": "approve",
      "outputs": [
        {
          "internalType": "bool",
          "name": "",
          "type": "bool"
        }
      ],
      "payable": false,
      "stateMutability": "nonpayable",
      "type": "function"
    },
    {
      "constant": true,
      "inputs": [
        {
          "internalType": "address",
          "name": "account",
          "type": "address"
        }
      ],
      "name": "balanceOf",
      "outputs": [
        {
          "internalType": "uint256",
          "name": "",
          "type": "uint256"
        }
      ],
      "payable": false,
      "stateMutability": "view",
      "type": "function"
    },
    {
      "constant": true,
      "inputs": [],
      "name": "decimals",
      "outputs": [
        {
          "internalType": "uint8",
          "name": "",
          "type": "uint8"
        }
      ],
      "payable": false,
      "stateMutability": "view",
      "type": "function"
    },
    {
      "constant": false,
      "inputs": [
        {
          "internalType": "address",
          "name": "spender",
          "type": "address"
        },
        {
          "internalType": "uint256",
          "name": "subtractedValue",
          "type": "uint256"
        }
      ],
      "name": "decreaseAllowance",
      "outputs": [
        {
          "internalType": "bool",
          "name": "",
          "type": "bool"
        }
      ],
      "payable": false,
      "stateMutability": "nonpayable",
      "type": "function"
    },
    {
      "constant": true,
      "inputs": [],
      "name": "distController",
      "outputs": [
        {
          "internalType": "address",
          "name": "",
          "type": "address"
        }
      ],
      "payable": false,
      "stateMutability": "view",
      "type": "function"
    },
    {
      "constant": true,
      "inputs": [],
      "name": "fee",
      "outputs": [
        {
          "internalType": "uint256",
          "name": "",
          "type": "uint256"
        }
      ],
      "payable": false,
      "stateMutability": "view",
      "type": "function"
    },
    {
      "constant": true,
      "inputs": [],
      "name": "feeAddress",
      "outputs": [
        {
          "internalType": "address",
          "name": "",
          "type": "address"
        }
      ],
      "payable": false,
      "stateMutability": "view",
      "type": "function"
    },
    {
      "constant": true,
      "inputs": [
        {
          "internalType": "uint256",
          "name": "",
          "type": "uint256"
        }
      ],
      "name": "govTokens",
      "outputs": [
        {
          "internalType": "address",
          "name": "",
          "type": "address"
        }
      ],
      "payable": false,
      "stateMutability": "view",
      "type": "function"
    },
    {
      "constant": false,
      "inputs": [
        {
          "internalType": "address",
          "name": "spender",
          "type": "address"
        },
        {
          "internalType": "uint256",
          "name": "addedValue",
          "type": "uint256"
        }
      ],
      "name": "increaseAllowance",
      "outputs": [
        {
          "internalType": "bool",
          "name": "",
          "type": "bool"
        }
      ],
      "payable": false,
      "stateMutability": "nonpayable",
      "type": "function"
    },
    {
      "constant": false,
      "inputs": [
        {
          "internalType": "string",
          "name": "name",
          "type": "string"
        },
        {
          "internalType": "string",
          "name": "symbol",
          "type": "string"
        },
        {
          "internalType": "uint8",
          "name": "decimals",
          "type": "uint8"
        }
      ],
      "name": "initialize",
      "outputs": [],
      "payable": false,
      "stateMutability": "nonpayable",
      "type": "function"
    },
    {
      "constant": false,
      "inputs": [],
      "name": "initialize",
      "outputs": [],
      "payable": false,
      "stateMutability": "nonpayable",
      "type": "function"
    },
    {
      "constant": false,
      "inputs": [
        {
          "internalType": "address",
          "name": "sender",
          "type": "address"
        }
      ],
      "name": "initialize",
      "outputs": [],
      "payable": false,
      "stateMutability": "nonpayable",
      "type": "function"
    },
    {
      "constant": true,
      "inputs": [],
      "name": "isOwner",
      "outputs": [
        {
          "internalType": "bool",
          "name": "",
          "type": "bool"
        }
      ],
      "payable": false,
      "stateMutability": "view",
      "type": "function"
    },
    {
      "constant": true,
      "inputs": [
        {
          "internalType": "address",
          "name": "account",
          "type": "address"
        }
      ],
      "name": "isPauser",
      "outputs": [
        {
          "internalType": "bool",
          "name": "",
          "type": "bool"
        }
      ],
      "payable": false,
      "stateMutability": "view",
      "type": "function"
    },
    {
      "constant": true,
      "inputs": [],
      "name": "maxUnlentPerc",
      "outputs": [
        {
          "internalType": "uint256",
          "name": "",
          "type": "uint256"
        }
      ],
      "payable": false,
      "stateMutability": "view",
      "type": "function"
    },
    {
      "constant": true,
      "inputs": [],
      "name": "name",
      "outputs": [
        {
          "internalType": "string",
          "name": "",
          "type": "string"
        }
      ],
      "payable": false,
      "stateMutability": "view",
      "type": "function"
    },
    {
      "constant": true,
      "inputs": [],
      "name": "oracle",
      "outputs": [
        {
          "internalType": "address",
          "name": "",
          "type": "address"
        }
      ],
      "payable": false,
      "stateMutability": "view",
      "type": "function"
    },
    {
      "constant": true,
      "inputs": [],
      "name": "owner",
      "outputs": [
        {
          "internalType": "address",
          "name": "",
          "type": "address"
        }
      ],
      "payable": false,
      "stateMutability": "view",
      "type": "function"
    },
    {
      "constant": false,
      "inputs": [],
      "name": "pause",
      "outputs": [],
      "payable": false,
      "stateMutability": "nonpayable",
      "type": "function"
    },
    {
      "constant": true,
      "inputs": [],
      "name": "paused",
      "outputs": [
        {
          "internalType": "bool",
          "name": "",
          "type": "bool"
        }
      ],
      "payable": false,
      "stateMutability": "view",
      "type": "function"
    },
    {
      "constant": true,
      "inputs": [
        {
          "internalType": "address",
          "name": "",
          "type": "address"
        }
      ],
      "name": "protocolWrappers",
      "outputs": [
        {
          "internalType": "address",
          "name": "",
          "type": "address"
        }
      ],
      "payable": false,
      "stateMutability": "view",
      "type": "function"
    },
    {
      "constant": true,
      "inputs": [],
      "name": "rebalancer",
      "outputs": [
        {
          "internalType": "address",
          "name": "",
          "type": "address"
        }
      ],
      "payable": false,
      "stateMutability": "view",
      "type": "function"
    },
    {
      "constant": false,
      "inputs": [],
      "name": "renounceOwnership",
      "outputs": [],
      "payable": false,
      "stateMutability": "nonpayable",
      "type": "function"
    },
    {
      "constant": false,
      "inputs": [],
      "name": "renouncePauser",
      "outputs": [],
      "payable": false,
      "stateMutability": "nonpayable",
      "type": "function"
    },
    {
      "constant": true,
      "inputs": [],
      "name": "stkAAVE",
      "outputs": [
        {
          "internalType": "address",
          "name": "",
          "type": "address"
        }
      ],
      "payable": false,
      "stateMutability": "view",
      "type": "function"
    },
    {
      "constant": true,
      "inputs": [],
      "name": "symbol",
      "outputs": [
        {
          "internalType": "string",
          "name": "",
          "type": "string"
        }
      ],
      "payable": false,
      "stateMutability": "view",
      "type": "function"
    },
    {
      "constant": true,
      "inputs": [],
      "name": "token",
      "outputs": [
        {
          "internalType": "address",
          "name": "",
          "type": "address"
        }
      ],
      "payable": false,
      "stateMutability": "view",
      "type": "function"
    },
    {
      "constant": true,
      "inputs": [],
      "name": "tokenHelper",
      "outputs": [
        {
          "internalType": "address",
          "name": "",
          "type": "address"
        }
      ],
      "payable": false,
      "stateMutability": "view",
      "type": "function"
    },
    {
      "constant": true,
      "inputs": [],
      "name": "totalSupply",
      "outputs": [
        {
          "internalType": "uint256",
          "name": "",
          "type": "uint256"
        }
      ],
      "payable": false,
      "stateMutability": "view",
      "type": "function"
    },
    {
      "constant": false,
      "inputs": [
        {
          "internalType": "address",
          "name": "recipient",
          "type": "address"
        },
        {
          "internalType": "uint256",
          "name": "amount",
          "type": "uint256"
        }
      ],
      "name": "transfer",
      "outputs": [
        {
          "internalType": "bool",
          "name": "",
          "type": "bool"
        }
      ],
      "payable": false,
      "stateMutability": "nonpayable",
      "type": "function"
    },
    {
      "constant": false,
      "inputs": [
        {
          "internalType": "address",
          "name": "sender",
          "type": "address"
        },
        {
          "internalType": "address",
          "name": "recipient",
          "type": "address"
        },
        {
          "internalType": "uint256",
          "name": "amount",
          "type": "uint256"
        }
      ],
      "name": "transferFrom",
      "outputs": [
        {
          "internalType": "bool",
          "name": "",
          "type": "bool"
        }
      ],
      "payable": false,
      "stateMutability": "nonpayable",
      "type": "function"
    },
    {
      "constant": false,
      "inputs": [
        {
          "internalType": "address",
          "name": "newOwner",
          "type": "address"
        }
      ],
      "name": "transferOwnership",
      "outputs": [],
      "payable": false,
      "stateMutability": "nonpayable",
      "type": "function"
    },
    {
      "constant": false,
      "inputs": [],
      "name": "unpause",
      "outputs": [],
      "payable": false,
      "stateMutability": "nonpayable",
      "type": "function"
    },
    {
      "constant": false,
      "inputs": [
        {
          "internalType": "address[]",
          "name": "protocolTokens",
          "type": "address[]"
        },
        {
          "internalType": "address[]",
          "name": "wrappers",
          "type": "address[]"
        },
        {
          "internalType": "address[]",
          "name": "_newGovTokens",
          "type": "address[]"
        },
        {
          "internalType": "address[]",
          "name": "_newGovTokensEqualLen",
          "type": "address[]"
        }
      ],
      "name": "setAllAvailableTokensAndWrappers",
      "outputs": [],
      "payable": false,
      "stateMutability": "nonpayable",
      "type": "function"
    },
    {
      "constant": false,
      "inputs": [
        {
          "internalType": "address",
          "name": "_cToken",
          "type": "address"
        }
      ],
      "name": "setCToken",
      "outputs": [],
      "payable": false,
      "stateMutability": "nonpayable",
      "type": "function"
    },
    {
      "constant": false,
      "inputs": [
        {
          "internalType": "address",
          "name": "_aToken",
          "type": "address"
        }
      ],
      "name": "setAToken",
      "outputs": [],
      "payable": false,
      "stateMutability": "nonpayable",
      "type": "function"
    },
    {
      "constant": false,
      "inputs": [
        {
          "internalType": "address",
          "name": "_tokenHelper",
          "type": "address"
        }
      ],
      "name": "setTokenHelper",
      "outputs": [],
      "payable": false,
      "stateMutability": "nonpayable",
      "type": "function"
    },
    {
      "constant": false,
      "inputs": [
        {
          "internalType": "address",
          "name": "_rebalancer",
          "type": "address"
        }
      ],
      "name": "setRebalancer",
      "outputs": [],
      "payable": false,
      "stateMutability": "nonpayable",
      "type": "function"
    },
    {
      "constant": false,
      "inputs": [
        {
          "internalType": "uint256",
          "name": "_fee",
          "type": "uint256"
        }
      ],
      "name": "setFee",
      "outputs": [],
      "payable": false,
      "stateMutability": "nonpayable",
      "type": "function"
    },
    {
      "constant": false,
      "inputs": [
        {
          "internalType": "address",
          "name": "_feeAddress",
          "type": "address"
        }
      ],
      "name": "setFeeAddress",
      "outputs": [],
      "payable": false,
      "stateMutability": "nonpayable",
      "type": "function"
    },
    {
      "constant": false,
      "inputs": [
        {
          "internalType": "address",
          "name": "_oracle",
          "type": "address"
        }
      ],
      "name": "setOracleAddress",
      "outputs": [],
      "payable": false,
      "stateMutability": "nonpayable",
      "type": "function"
    },
    {
      "constant": false,
      "inputs": [
        {
          "internalType": "uint256",
          "name": "_perc",
          "type": "uint256"
        }
      ],
      "name": "setMaxUnlentPerc",
      "outputs": [],
      "payable": false,
      "stateMutability": "nonpayable",
      "type": "function"
    },
    {
      "constant": false,
      "inputs": [
        {
          "internalType": "uint256[]",
          "name": "_allocations",
          "type": "uint256[]"
        }
      ],
      "name": "setAllocations",
      "outputs": [],
      "payable": false,
      "stateMutability": "nonpayable",
      "type": "function"
    },
    {
      "constant": true,
      "inputs": [],
      "name": "getAllocations",
      "outputs": [
        {
          "internalType": "uint256[]",
          "name": "",
          "type": "uint256[]"
        }
      ],
      "payable": false,
      "stateMutability": "view",
      "type": "function"
    },
    {
      "constant": true,
      "inputs": [],
      "name": "getGovTokens",
      "outputs": [
        {
          "internalType": "address[]",
          "name": "",
          "type": "address[]"
        }
      ],
      "payable": false,
      "stateMutability": "view",
      "type": "function"
    },
    {
      "constant": true,
      "inputs": [],
      "name": "getAllAvailableTokens",
      "outputs": [
        {
          "internalType": "address[]",
          "name": "",
          "type": "address[]"
        }
      ],
      "payable": false,
      "stateMutability": "view",
      "type": "function"
    },
    {
      "constant": true,
      "inputs": [
        {
          "internalType": "address",
          "name": "_protocolToken",
          "type": "address"
        }
      ],
      "name": "getProtocolTokenToGov",
      "outputs": [
        {
          "internalType": "address",
          "name": "",
          "type": "address"
        }
      ],
      "payable": false,
      "stateMutability": "view",
      "type": "function"
    }
  ],
  "bytecode": "0x608060405261274c806100136000396000f3fe608060405234801561001057600080fd5b506004361061025c5760003560e01c806301d22ccd1461026157806306fdde0314610285578063095ea7b3146103025780630b56d1571461034257806312ea5c7e146103615780631624f6c6146103b957806318160ddd146104e75780631fc29c011461050157806323b872dd146105095780632b1b4bb01461053f5780632fdc91ee14610565578063313ce5671461056d57806336a000821461058b57806339509351146105a85780633f4ba83a146105d457806341275358146105dc57806345c8026c146105e457806346fbf68e1461060a5780634b48f16d146106305780634c69c00f146106385780634cb712221461065e57806354924507146106845780635c975abb1461068c5780635f09d84c1461069457806365ed6e23146106ba57806369fe0e2d146106c25780636c11ec96146106df5780636cfd1553146107055780636ef8d66d1461072b57806370a082311461073357806370dd97fb14610759578063715018a614610761578063746daa4e146107695780637dc0d1d0146107865780638129fc1c1461078e57806382dc1ec4146107965780638456cb59146107bc5780638705fcd4146107c45780638da5cb5b146107ea5780638f32d59b146107f257806395d89b41146107fa578063a457c2d714610802578063a6ea311c1461082e578063a9059cbb14610836578063b71501bc14610862578063c498c5151461086a578063c4d66de8146108d8578063dd62ed3e146108fe578063ddca3f431461092c578063f16c88db14610934578063f2fde38b14610a92578063fc0c546a14610ab8575b600080fd5b610269610ac0565b604080516001600160a01b039092168252519081900360200190f35b61028d610ad0565b6040805160208082528351818301528351919283929083019185019080838360005b838110156102c75781810151838201526020016102af565b50505050905090810190601f1680156102f45780820380516001836020036101000a031916815260200191505b509250505060405180910390f35b61032e6004803603604081101561031857600080fd5b506001600160a01b038135169060200135610b67565b604080519115158252519081900360200190f35b61035f6004803603602081101561035857600080fd5b5035610b84565b005b610369610c10565b60408051602080825283518183015283519192839290830191858101910280838360005b838110156103a557818101518382015260200161038d565b505050509050019250505060405180910390f35b61035f600480360360608110156103cf57600080fd5b810190602081018135600160201b8111156103e957600080fd5b8201836020820111156103fb57600080fd5b803590602001918460018302840111600160201b8311171561041c57600080fd5b91908080601f0160208091040260200160405190810160405280939291908181526020018383808284376000920191909152509295949360208101935035915050600160201b81111561046e57600080fd5b82018360208201111561048057600080fd5b803590602001918460018302840111600160201b831117156104a157600080fd5b91908080601f0160208091040260200160405190810160405280939291908181526020018383808284376000920191909152509295505050903560ff169150610c729050565b6104ef610d4e565b60408051918252519081900360200190f35b610269610d54565b61032e6004803603606081101561051f57600080fd5b506001600160a01b03813581169160208101359091169060400135610d6c565b6102696004803603602081101561055557600080fd5b50356001600160a01b0316610df9565b610269610e18565b610575610e28565b6040805160ff9092168252519081900360200190f35b610269600480360360208110156105a157600080fd5b5035610e31565b61032e600480360360408110156105be57600080fd5b506001600160a01b038135169060200135610e59565b61035f610ead565b610269610f98565b610269600480360360208110156105fa57600080fd5b50356001600160a01b0316610fa8565b61032e6004803603602081101561062057600080fd5b50356001600160a01b0316610fc4565b610269610fde565b61035f6004803603602081101561064e57600080fd5b50356001600160a01b0316610ff6565b61035f6004803603602081101561067457600080fd5b50356001600160a01b0316611091565b6104ef61112c565b61032e611133565b61035f600480360360208110156106aa57600080fd5b50356001600160a01b031661113d565b6103696111d8565b61035f600480360360208110156106d857600080fd5b5035611230565b61035f600480360360208110156106f557600080fd5b50356001600160a01b03166112b8565b61035f6004803603602081101561071b57600080fd5b50356001600160a01b0316611353565b61035f6113ee565b6104ef6004803603602081101561074957600080fd5b50356001600160a01b0316611400565b61026961141b565b61035f611433565b6102696004803603602081101561077f57600080fd5b50356114b2565b6102696114c0565b61035f6114d0565b61035f600480360360208110156107ac57600080fd5b50356001600160a01b0316611576565b61035f6115c5565b61035f600480360360208110156107da57600080fd5b50356001600160a01b031661168e565b610269611729565b61032e611738565b61028d61175e565b61032e6004803603604081101561081857600080fd5b506001600160a01b0381351690602001356117bf565b61036961182d565b61032e6004803603604081101561084c57600080fd5b506001600160a01b03813516906020013561188e565b6102696118a2565b61035f6004803603602081101561088057600080fd5b810190602081018135600160201b81111561089a57600080fd5b8201836020820111156108ac57600080fd5b803590602001918460208302840111600160201b831117156108cd57600080fd5b5090925090506118ba565b61035f600480360360208110156108ee57600080fd5b50356001600160a01b0316611961565b6104ef6004803603604081101561091457600080fd5b506001600160a01b0381358116916020013516611a17565b6104ef611a42565b61035f6004803603608081101561094a57600080fd5b810190602081018135600160201b81111561096457600080fd5b82018360208201111561097657600080fd5b803590602001918460208302840111600160201b8311171561099757600080fd5b919390929091602081019035600160201b8111156109b457600080fd5b8201836020820111156109c657600080fd5b803590602001918460208302840111600160201b831117156109e757600080fd5b919390929091602081019035600160201b811115610a0457600080fd5b820183602082011115610a1657600080fd5b803590602001918460208302840111600160201b83111715610a3757600080fd5b919390929091602081019035600160201b811115610a5457600080fd5b820183602082011115610a6657600080fd5b803590602001918460208302840111600160201b83111715610a8757600080fd5b509092509050611a49565b61035f60048036036020811015610aa857600080fd5b50356001600160a01b0316611c1e565b610269611c6e565b61016c546001600160a01b031681565b60688054604080516020601f6002600019610100600188161502019095169490940493840181900481028201810190925282815260609390929091830182828015610b5c5780601f10610b3157610100808354040283529160200191610b5c565b820191906000526020600020905b815481529060010190602001808311610b3f57829003601f168201915b505050505090505b90565b6000610b7b610b74611c7e565b8484611c82565b50600192915050565b610b8c611738565b610bcb576040805162461bcd60e51b8152602060048201819052602482015260008051602061261a833981519152604482015290519081900360640190fd5b620186a08161016e8190551115610c0d576040805162461bcd60e51b81526020600482015260016024820152603560f81b604482015290519081900360640190fd5b50565b6060610171805480602002602001604051908101604052809291908181526020018280548015610b5c57602002820191906000526020600020905b81546001600160a01b03168152600190910190602001808311610c4b575050505050905090565b600054610100900460ff1680610c8b5750610c8b611d6e565b80610c99575060005460ff16155b610cd45760405162461bcd60e51b815260040180806020018281038252602e81526020018061267c602e913960400191505060405180910390fd5b600054610100900460ff16158015610cff576000805460ff1961ff0019909116610100171660011790555b8351610d129060689060208701906123ba565b508251610d269060699060208601906123ba565b50606a805460ff191660ff84161790558015610d48576000805461ff00191690555b50505050565b60355490565b734da27a545c0c5b758a6ba100e3a049001de870f581565b6000610d79848484611d74565b610def84610d85611c7e565b610dea856040518060600160405280602881526020016125f2602891396001600160a01b038a16600090815260346020526040812090610dc3611c7e565b6001600160a01b03168152602081019190915260400160002054919063ffffffff611ed216565b611c82565b5060019392505050565b6001600160a01b03908116600090815261017660205260409020541690565b610173546001600160a01b031681565b606a5460ff1690565b6101718181548110610e3f57fe5b6000918252602090912001546001600160a01b0316905081565b6000610b7b610e66611c7e565b84610dea8560346000610e77611c7e565b6001600160a01b03908116825260208083019390935260409182016000908120918c16815292529020549063ffffffff611f6916565b610ebd610eb8611c7e565b610fc4565b610ef85760405162461bcd60e51b81526004018080602001828103825260308152602001806125336030913960400191505060405180910390fd5b6101365460ff16610f47576040805162461bcd60e51b815260206004820152601460248201527314185d5cd8589b194e881b9bdd081c185d5cd95960621b604482015290519081900360640190fd5b610136805460ff191690557f5db9ee0a495bf2e6ff9c91a7834c1ba4fdd244a5e8aa4e537bd38aeae4b073aa610f7b611c7e565b604080516001600160a01b039092168252519081900360200190a1565b61016d546001600160a01b031681565b610172602052600090815260409020546001600160a01b031681565b6000610fd86101038363ffffffff611fc816565b92915050565b73275da8e61ea8e02d51edd8d0dc5c0e62b4cdb0be81565b610ffe611738565b61103d576040805162461bcd60e51b8152602060048201819052602482015260008051602061261a833981519152604482015290519081900360640190fd5b61017580546001600160a01b0319166001600160a01b038316908117909155610c0d576040805162461bcd60e51b81526020600482015260016024820152600360fc1b604482015290519081900360640190fd5b611099611738565b6110d8576040805162461bcd60e51b8152602060048201819052602482015260008051602061261a833981519152604482015290519081900360640190fd5b61016b80546001600160a01b0319166001600160a01b038316908117909155610c0d576040805162461bcd60e51b81526020600482015260016024820152600360fc1b604482015290519081900360640190fd5b61016e5481565b6101365460ff1690565b611145611738565b611184576040805162461bcd60e51b8152602060048201819052602482015260008051602061261a833981519152604482015290519081900360640190fd5b61017480546001600160a01b0319166001600160a01b038316908117909155610c0d576040805162461bcd60e51b81526020600482015260016024820152600360fc1b604482015290519081900360640190fd5b6060610177805480602002602001604051908101604052809291908181526020018280548015610b5c57602002820191906000526020600020905b815481526020019060010190808311611213575050505050905090565b611238611738565b611277576040805162461bcd60e51b8152602060048201819052602482015260008051602061261a833981519152604482015290519081900360640190fd5b61016f819055612710811115610c0d576040805162461bcd60e51b81526020600482015260016024820152603560f81b604482015290519081900360640190fd5b6112c0611738565b6112ff576040805162461bcd60e51b8152602060048201819052602482015260008051602061261a833981519152604482015290519081900360640190fd5b61017380546001600160a01b0319166001600160a01b038316908117909155610c0d576040805162461bcd60e51b81526020600482015260016024820152600360fc1b604482015290519081900360640190fd5b61135b611738565b61139a576040805162461bcd60e51b8152602060048201819052602482015260008051602061261a833981519152604482015290519081900360640190fd5b61016c80546001600160a01b0319166001600160a01b038316908117909155610c0d576040805162461bcd60e51b81526020600482015260016024820152600360fc1b604482015290519081900360640190fd5b6113fe6113f9611c7e565b61202f565b565b6001600160a01b031660009081526033602052604090205490565b73875773784af8135ea0ef43b5a374aad105c5d39e81565b61143b611738565b61147a576040805162461bcd60e51b8152602060048201819052602482015260008051602061261a833981519152604482015290519081900360640190fd5b60d0546040516000916001600160a01b03169060008051602061263a833981519152908390a360d080546001600160a01b0319169055565b6101708181548110610e3f57fe5b610175546001600160a01b031681565b600054610100900460ff16806114e957506114e9611d6e565b806114f7575060005460ff16155b6115325760405162461bcd60e51b815260040180806020018281038252602e81526020018061267c602e913960400191505060405180910390fd5b600054610100900460ff1615801561155d576000805460ff1961ff0019909116610100171660011790555b6001609d558015610c0d576000805461ff001916905550565b611581610eb8611c7e565b6115bc5760405162461bcd60e51b81526004018080602001828103825260308152602001806125336030913960400191505060405180910390fd5b610c0d81612078565b6115d0610eb8611c7e565b61160b5760405162461bcd60e51b81526004018080602001828103825260308152602001806125336030913960400191505060405180910390fd5b6101365460ff1615611657576040805162461bcd60e51b815260206004820152601060248201526f14185d5cd8589b194e881c185d5cd95960821b604482015290519081900360640190fd5b610136805460ff191660011790557f62e78cea01bee320cd4e420270b5ea74000d11b0c9f74754ebdbfc544b05a258610f7b611c7e565b611696611738565b6116d5576040805162461bcd60e51b8152602060048201819052602482015260008051602061261a833981519152604482015290519081900360640190fd5b61016d80546001600160a01b0319166001600160a01b038316908117909155610c0d576040805162461bcd60e51b81526020600482015260016024820152600360fc1b604482015290519081900360640190fd5b60d0546001600160a01b031690565b60d0546000906001600160a01b031661174f611c7e565b6001600160a01b031614905090565b60698054604080516020601f6002600019610100600188161502019095169490940493840181900481028201810190925282815260609390929091830182828015610b5c5780601f10610b3157610100808354040283529160200191610b5c565b6000610b7b6117cc611c7e565b84610dea856040518060600160405280602581526020016126f360259139603460006117f6611c7e565b6001600160a01b03908116825260208083019390935260409182016000908120918d1681529252902054919063ffffffff611ed216565b6060610170805480602002602001604051908101604052809291908181526020018280548015610b5c576020028201919060005260206000209081546001600160a01b03168152600190910190602001808311610c4b575050505050905090565b6000610b7b61189b611c7e565b8484611d74565b73c00e94cb662c3520282e6f5717214004a7f2688881565b61016c546001600160a01b03163314806118ec57506118d7611729565b6001600160a01b0316336001600160a01b0316145b611921576040805162461bcd60e51b81526020600482015260016024820152601b60f91b604482015290519081900360640190fd5b61195d8282808060200260200160405190810160405280939291908181526020018383602002808284376000920191909152506120c192505050565b5050565b600054610100900460ff168061197a575061197a611d6e565b80611988575060005460ff16155b6119c35760405162461bcd60e51b815260040180806020018281038252602e81526020018061267c602e913960400191505060405180910390fd5b600054610100900460ff161580156119ee576000805460ff1961ff0019909116610100171660011790555b6119f78261218b565b610136805460ff19169055801561195d576000805461ff00191690555050565b6001600160a01b03918216600090815260346020908152604080832093909416825291909152205490565b61016f5481565b611a51611738565b611a90576040805162461bcd60e51b8152602060048201819052602482015260008051602061261a833981519152604482015290519081900360640190fd5b868514611ac8576040805162461bcd60e51b81526020600482015260016024820152601960f91b604482015290519081900360640190fd5b86811015611b01576040805162461bcd60e51b81526020600482015260016024820152603360f81b604482015290519081900360640190fd5b611b0e6101708585612438565b50600080805b89811015611c03578a8a82818110611b2857fe5b905060200201356001600160a01b0316915060006001600160a01b0316826001600160a01b031614158015611b8257506000898983818110611b6657fe5b905060200201356001600160a01b03166001600160a01b031614155b611bb7576040805162461bcd60e51b81526020600482015260016024820152600360fc1b604482015290519081900360640190fd5b888882818110611bc357fe5b6001600160a01b0385811660009081526101726020908152604090912080546001600160a01b031916939091029490940135161790915550600101611b14565b50611c116101718b8b612438565b5050505050505050505050565b611c26611738565b611c65576040805162461bcd60e51b8152602060048201819052602482015260008051602061261a833981519152604482015290519081900360640190fd5b610c0d81612243565b610169546001600160a01b031681565b3390565b6001600160a01b038316611cc75760405162461bcd60e51b81526004018080602001828103825260248152602001806126cf6024913960400191505060405180910390fd5b6001600160a01b038216611d0c5760405162461bcd60e51b81526004018080602001828103825260228152602001806125896022913960400191505060405180910390fd5b6001600160a01b03808416600081815260346020908152604080832094871680845294825291829020859055815185815291517f8c5be1e5ebec7d5bd14f71427d1e84f3dd0314c0f7b2291e5b200ac8c7c3b9259281900390910190a3505050565b303b1590565b6001600160a01b038316611db95760405162461bcd60e51b81526004018080602001828103825260258152602001806126aa6025913960400191505060405180910390fd5b6001600160a01b038216611dfe5760405162461bcd60e51b81526004018080602001828103825260238152602001806125106023913960400191505060405180910390fd5b611e41816040518060600160405280602681526020016125ab602691396001600160a01b038616600090815260336020526040902054919063ffffffff611ed216565b6001600160a01b038085166000908152603360205260408082209390935590841681522054611e76908263ffffffff611f6916565b6001600160a01b0380841660008181526033602090815260409182902094909455805185815290519193928716927fddf252ad1be2c89b69c2b068fc378daa952ba7f163c4a11628f55a4df523b3ef92918290030190a3505050565b60008184841115611f615760405162461bcd60e51b81526004018080602001828103825283818151815260200191508051906020019080838360005b83811015611f26578181015183820152602001611f0e565b50505050905090810190601f168015611f535780820380516001836020036101000a031916815260200191505b509250505060405180910390fd5b505050900390565b600082820183811015611fc1576040805162461bcd60e51b815260206004820152601b60248201527a536166654d6174683a206164646974696f6e206f766572666c6f7760281b604482015290519081900360640190fd5b9392505050565b60006001600160a01b03821661200f5760405162461bcd60e51b815260040180806020018281038252602281526020018061265a6022913960400191505060405180910390fd5b506001600160a01b03166000908152602091909152604090205460ff1690565b6120416101038263ffffffff6122d216565b6040516001600160a01b038216907fcd265ebaf09df2871cc7bd4133404a235ba12eff2041bb89d9c714a2621c7c7e90600090a250565b61208a6101038263ffffffff61233916565b6040516001600160a01b038216907f6719d08c1888103bea251a4ed56406bd0c3e69723c8a1686e017e7bbe159b6f890600090a250565b610171548151146120fd576040805162461bcd60e51b81526020600482015260016024820152601960f91b604482015290519081900360640190fd5b6000805b825181101561213a5761213083828151811061211957fe5b602002602001015183611f6990919063ffffffff16565b9150600101612101565b50815161214f90610177906020850190612497565b50620186a0811461195d576040805162461bcd60e51b81526020600482015260016024820152603760f81b604482015290519081900360640190fd5b600054610100900460ff16806121a457506121a4611d6e565b806121b2575060005460ff16155b6121ed5760405162461bcd60e51b815260040180806020018281038252602e81526020018061267c602e913960400191505060405180910390fd5b600054610100900460ff16158015612218576000805460ff1961ff0019909116610100171660011790555b61222182610fc4565b61222e5761222e82612078565b801561195d576000805461ff00191690555050565b6001600160a01b0381166122885760405162461bcd60e51b81526004018080602001828103825260268152602001806125636026913960400191505060405180910390fd5b60d0546040516001600160a01b0380841692169060008051602061263a83398151915290600090a360d080546001600160a01b0319166001600160a01b0392909216919091179055565b6122dc8282611fc8565b6123175760405162461bcd60e51b81526004018080602001828103825260218152602001806125d16021913960400191505060405180910390fd5b6001600160a01b0316600090815260209190915260409020805460ff19169055565b6123438282611fc8565b15612395576040805162461bcd60e51b815260206004820152601f60248201527f526f6c65733a206163636f756e7420616c72656164792068617320726f6c6500604482015290519081900360640190fd5b6001600160a01b0316600090815260209190915260409020805460ff19166001179055565b828054600181600116156101000203166002900490600052602060002090601f016020900481019282601f106123fb57805160ff1916838001178555612428565b82800160010185558215612428579182015b8281111561242857825182559160200191906001019061240d565b506124349291506124d1565b5090565b82805482825590600052602060002090810192821561248b579160200282015b8281111561248b5781546001600160a01b0319166001600160a01b03843516178255602090920191600190910190612458565b506124349291506124eb565b828054828255906000526020600020908101928215612428579160200282018281111561242857825182559160200191906001019061240d565b610b6491905b8082111561243457600081556001016124d7565b610b6491905b808211156124345780546001600160a01b03191681556001016124f156fe45524332303a207472616e7366657220746f20746865207a65726f2061646472657373506175736572526f6c653a2063616c6c657220646f6573206e6f742068617665207468652050617573657220726f6c654f776e61626c653a206e6577206f776e657220697320746865207a65726f206164647265737345524332303a20617070726f766520746f20746865207a65726f206164647265737345524332303a207472616e7366657220616d6f756e7420657863656564732062616c616e6365526f6c65733a206163636f756e7420646f6573206e6f74206861766520726f6c6545524332303a207472616e7366657220616d6f756e74206578636565647320616c6c6f77616e63654f776e61626c653a2063616c6c6572206973206e6f7420746865206f776e65728be0079c531659141344cd1fd0a4f28419497f9722a3daafe3b4186f6b6457e0526f6c65733a206163636f756e7420697320746865207a65726f2061646472657373436f6e747261637420696e7374616e63652068617320616c7265616479206265656e20696e697469616c697a656445524332303a207472616e736665722066726f6d20746865207a65726f206164647265737345524332303a20617070726f76652066726f6d20746865207a65726f206164647265737345524332303a2064656372656173656420616c6c6f77616e63652062656c6f77207a65726fa265627a7a72315820e4d7e9af1f40d130bbb88a989337c72affeb62b72a41cf8a7766a5bd8052bcb364736f6c63430005100032",
  "source": "/**\r\n * @title: Dissident Token Governance main contract\r\n * @summary: ERC20 that holds pooled user funds together\r\n *           Each token represent a share of the underlying pools\r\n *           and with each token user have the right to redeem a portion of these pools\r\n * @author: Dissident Finance, dissident.finance\r\n */\r\npragma solidity 0.5.16;\r\nimport \"@openzeppelin/contracts-ethereum-package/contracts/math/SafeMath.sol\";\r\nimport \"@openzeppelin/contracts-ethereum-package/contracts/token/ERC20/SafeERC20.sol\";\r\n\r\nimport \"@openzeppelin/contracts-ethereum-package/contracts/token/ERC20/ERC20.sol\";\r\nimport \"@openzeppelin/contracts-ethereum-package/contracts/token/ERC20/ERC20Detailed.sol\";\r\n\r\nimport \"@openzeppelin/contracts-ethereum-package/contracts/utils/ReentrancyGuard.sol\";\r\nimport \"@openzeppelin/contracts-ethereum-package/contracts/ownership/Ownable.sol\";\r\nimport \"@openzeppelin/contracts-ethereum-package/contracts/lifecycle/Pausable.sol\";\r\n\r\nimport \"@openzeppelin/upgrades/contracts/Initializable.sol\";\r\n\r\n\r\ncontract DistTokenGovernance is Initializable, ERC20, ERC20Detailed, ReentrancyGuard, Ownable, Pausable {\r\n    using SafeERC20 for IERC20;\r\n    using SafeMath for uint256;\r\n\r\n    // State variables\r\n    // eg. DAI address\r\n    address public token;\r\n    // eg. iDAI address\r\n    address private iToken;\r\n    // eg. cDAI address\r\n    address private cToken;\r\n    // Dist rebalancer current implementation address\r\n    address public rebalancer;\r\n    // Address collecting underlying fees\r\n    address public feeAddress;\r\n    // Max unlent assets percentage for gas friendly swaps\r\n    uint256 public maxUnlentPerc; // 100000 == 100% -> 1000 == 1%\r\n    // Current fee on interest gained\r\n    uint256 public fee;\r\n    // eg. [COMPAddress, CRVAddress, ...]\r\n    address[] public govTokens;\r\n    // eg. [cTokenAddress, iTokenAddress, ...]\r\n    address[] public allAvailableTokens;\r\n    // eg. cTokenAddress => DistCompoundAddress\r\n    mapping(address => address) public protocolWrappers;\r\n\r\n    // DistToken helper address\r\n    address public tokenHelper;\r\n\r\n    // Addresses for stkAAVE distribution from Aave\r\n    address public constant stkAAVE = address(0x4da27a545c0c5B758a6BA100e3a049001de870f5);\r\n    address private aToken;\r\n\r\n    // ########## DistToken updates\r\n    // Dist governance token\r\n    address public constant DIST = address(0x875773784Af8135eA0ef43b5a374AaD105c5D39e);\r\n    // Compound governance token\r\n    address public constant COMP = address(0xc00e94Cb662C3520282E6f5717214004A7f26888);\r\n    uint256 private constant FULL_ALLOC = 100000;\r\n\r\n    // Dist distribution controller\r\n    address public constant distController = address(0x275DA8e61ea8E02d51EDd8d0DC5c0E62b4CDB0BE);\r\n    // oracle used for calculating the avgAPR with gov tokens\r\n    address public oracle;\r\n    // eg cDAI -> COMP\r\n    mapping(address => address) private protocolTokenToGov;\r\n    // last allocations submitted by rebalancer\r\n    uint256[] private lastRebalancerAllocations;\r\n\r\n    // ERROR MESSAGES:\r\n    // 0 = is 0\r\n    // 1 = already initialized\r\n    // 2 = length is different\r\n    // 3 = Not greater then\r\n    // 4 = lt\r\n    // 5 = too high\r\n    // 6 = not authorized\r\n    // 7 = not equal\r\n    // 8 = error on flash loan execution\r\n    // 9 = Reentrancy\r\n\r\n    // onlyOwner\r\n    /**\r\n    * It allows owner to modify allAvailableTokens array in case of emergency\r\n    * ie if a bug on a interest bearing token is discovered and reset protocolWrappers\r\n    * associated with those tokens.\r\n    *\r\n    * @param protocolTokens : array of protocolTokens addresses (eg [cDAI, iDAI, ...])\r\n    * @param wrappers : array of wrapper addresses (eg [DistCompound, DistFulcrum, ...])\r\n    * @param _newGovTokens : array of governance token addresses\r\n    * @param _newGovTokensEqualLen : array of governance token addresses for each\r\n    *  protocolToken (addr0 should be used for protocols with no govToken)\r\n    */\r\n    function setAllAvailableTokensAndWrappers(\r\n        address[] calldata protocolTokens,\r\n        address[] calldata wrappers,\r\n        address[] calldata _newGovTokens,\r\n        address[] calldata _newGovTokensEqualLen\r\n    ) external onlyOwner {\r\n        require(protocolTokens.length == wrappers.length, \"2\");\r\n        require(_newGovTokensEqualLen.length >= protocolTokens.length, \"3\");\r\n\r\n        govTokens = _newGovTokens;\r\n\r\n        address newGov;\r\n        address protToken;\r\n        for (uint256 i = 0; i < protocolTokens.length; i++) {\r\n            protToken = protocolTokens[i];\r\n            require(protToken != address(0) && wrappers[i] != address(0), \"0\");\r\n            protocolWrappers[protToken] = wrappers[i];\r\n\r\n            //set protocol token to gov token mapping\r\n            //    newGov = _newGovTokensEqualLen[i];\r\n            //    if (newGov != DIST) {\r\n            //        protocolTokenToGov[protToken] = newGov;\r\n            //    }\r\n        }\r\n\r\n        allAvailableTokens = protocolTokens;\r\n    }\r\n\r\n    /**\r\n    * It allows owner to set the cToken address\r\n    *\r\n    * @param _cToken : new cToken address\r\n    */\r\n    function setCToken(address _cToken)\r\n        external onlyOwner {\r\n        require((cToken = _cToken) != address(0), \"0\");\r\n    }\r\n\r\n    /**\r\n    * It allows owner to set the aToken address\r\n    *\r\n    * @param _aToken : new aToken address\r\n    */\r\n    function setAToken(address _aToken)\r\n        external onlyOwner {\r\n        require((aToken = _aToken) != address(0), \"0\");\r\n    }\r\n\r\n    /**\r\n    * It allows owner to set the tokenHelper address\r\n    *\r\n    * @param _tokenHelper : new tokenHelper address\r\n    */\r\n    function setTokenHelper(address _tokenHelper)\r\n        external onlyOwner {\r\n        require((tokenHelper = _tokenHelper) != address(0), \"0\");\r\n    }\r\n\r\n    /**\r\n    * It allows owner to set the DistRebalancerV3_1 address\r\n    *\r\n    * @param _rebalancer : new DistRebalancerV3_1 address\r\n    */\r\n    function setRebalancer(address _rebalancer)\r\n        external onlyOwner {\r\n        require((rebalancer = _rebalancer) != address(0), \"0\");\r\n    }\r\n\r\n    /**\r\n    * It allows owner to set the fee (1000 == 10% of gained interest)\r\n    *\r\n    * @param _fee : fee amount where 100000 is 100%, max settable is 10%\r\n    */\r\n    function setFee(uint256 _fee)\r\n        external onlyOwner {\r\n        // 100000 == 100% -> 10000 == 10%\r\n        require((fee = _fee) <= FULL_ALLOC / 10, \"5\");\r\n    }\r\n\r\n    /**\r\n    * It allows owner to set the fee address\r\n    *\r\n    * @param _feeAddress : fee address\r\n    */\r\n    function setFeeAddress(address _feeAddress)\r\n        external onlyOwner {\r\n        require((feeAddress = _feeAddress) != address(0), \"0\");\r\n    }\r\n\r\n    /**\r\n    * It allows owner to set the oracle address for getting avgAPR\r\n    *\r\n    * @param _oracle : new oracle address\r\n    */\r\n    function setOracleAddress(address _oracle)\r\n        external onlyOwner {\r\n        require((oracle = _oracle) != address(0), \"0\");\r\n    }\r\n\r\n    /**\r\n    * It allows owner to set the max unlent asset percentage (1000 == 1% of unlent asset max)\r\n    *\r\n    * @param _perc : max unlent perc where 100000 is 100%\r\n    */\r\n    function setMaxUnlentPerc(uint256 _perc)\r\n        external onlyOwner {\r\n        require((maxUnlentPerc = _perc) <= 100000, \"5\");\r\n    }\r\n\r\n    /**\r\n    * Used by Rebalancer to set the new allocations\r\n    *\r\n    * @param _allocations : array with allocations in percentages (100% => 100000)\r\n    */\r\n    function setAllocations(uint256[] calldata _allocations) external {\r\n        require(msg.sender == rebalancer || msg.sender == owner(), \"6\");\r\n        _setAllocations(_allocations);\r\n    }\r\n\r\n    /**\r\n    * Used by Rebalancer or in openRebalance to set the new allocations\r\n    *\r\n    * @param _allocations : array with allocations in percentages (100% => 100000)\r\n    */\r\n    function _setAllocations(uint256[] memory _allocations) internal {\r\n        require(_allocations.length == allAvailableTokens.length, \"2\");\r\n        uint256 total;\r\n        for (uint256 i = 0; i < _allocations.length; i++) {\r\n            total = total.add(_allocations[i]);\r\n        }\r\n        lastRebalancerAllocations = _allocations;\r\n        require(total == FULL_ALLOC, \"7\");\r\n    }\r\n\r\n    // view\r\n    /**\r\n    * Get latest allocations submitted by rebalancer\r\n    *\r\n    * @return : array of allocations ordered as allAvailableTokens\r\n    */\r\n    function getAllocations() external view returns (uint256[] memory) {\r\n        return lastRebalancerAllocations;\r\n    }\r\n\r\n    /**\r\n    * Get currently used gov tokens\r\n    *\r\n    * @return : array of govTokens supported\r\n    */\r\n    function getGovTokens() external view returns (address[] memory) {\r\n        return govTokens;\r\n    }\r\n\r\n    /**\r\n    * Get currently used protocol tokens (cDAI, aDAI, ...)\r\n    *\r\n    * @return : array of protocol tokens supported\r\n    */\r\n    function getAllAvailableTokens() external view returns (address[] memory) {\r\n        return allAvailableTokens;\r\n    }\r\n\r\n    /**\r\n    * Get gov token associated to a protocol token eg protocolTokenToGov[cDAI] = COMP\r\n    *\r\n    * @return : address of the gov token\r\n    */\r\n    function getProtocolTokenToGov(address _protocolToken) external view returns (address) {\r\n        return protocolTokenToGov[_protocolToken];\r\n    }\r\n\r\n}",
  "sourcePath": "C:\\Users\\Akanimoh Osutuk\\Documents\\Personal\\dissident\\dissident-contracts\\contracts\\DistTokenGovernance.sol",
  "compiler": {
    "name": "solc",
    "version": "0.5.16+commit.9c3226ce.Emscripten.clang"
  },
  "schemaVersion": "3.4.3",
  "updatedAt": "2022-01-17T22:17:01.799Z",
  "devdoc": {
    "methods": {
      "allowance(address,address)": {
        "details": "See {IERC20-allowance}."
      },
      "approve(address,uint256)": {
        "details": "See {IERC20-approve}.     * Requirements:     * - `spender` cannot be the zero address."
      },
      "balanceOf(address)": {
        "details": "See {IERC20-balanceOf}."
      },
      "decimals()": {
        "details": "Returns the number of decimals used to get its user representation. For example, if `decimals` equals `2`, a balance of `505` tokens should be displayed to a user as `5,05` (`505 / 10 ** 2`).     * Tokens usually opt for a value of 18, imitating the relationship between Ether and Wei.     * NOTE: This information is only used for _display_ purposes: it in no way affects any of the arithmetic of the contract, including {IERC20-balanceOf} and {IERC20-transfer}."
      },
      "decreaseAllowance(address,uint256)": {
        "details": "Atomically decreases the allowance granted to `spender` by the caller.     * This is an alternative to {approve} that can be used as a mitigation for problems described in {IERC20-approve}.     * Emits an {Approval} event indicating the updated allowance.     * Requirements:     * - `spender` cannot be the zero address. - `spender` must have allowance for the caller of at least `subtractedValue`."
      },
      "getAllAvailableTokens()": {
        "return": ": array of protocol tokens supported"
      },
      "getAllocations()": {
        "return": ": array of allocations ordered as allAvailableTokens"
      },
      "getGovTokens()": {
        "return": ": array of govTokens supported"
      },
      "getProtocolTokenToGov(address)": {
        "return": ": address of the gov token"
      },
      "increaseAllowance(address,uint256)": {
        "details": "Atomically increases the allowance granted to `spender` by the caller.     * This is an alternative to {approve} that can be used as a mitigation for problems described in {IERC20-approve}.     * Emits an {Approval} event indicating the updated allowance.     * Requirements:     * - `spender` cannot be the zero address."
      },
      "initialize(address)": {
        "details": "Initializes the contract in unpaused state. Assigns the Pauser role to the deployer."
      },
      "initialize(string,string,uint8)": {
        "details": "Sets the values for `name`, `symbol`, and `decimals`. All three of these values are immutable: they can only be set once during construction."
      },
      "isOwner()": {
        "details": "Returns true if the caller is the current owner."
      },
      "name()": {
        "details": "Returns the name of the token."
      },
      "owner()": {
        "details": "Returns the address of the current owner."
      },
      "pause()": {
        "details": "Called by a pauser to pause, triggers stopped state."
      },
      "paused()": {
        "details": "Returns true if the contract is paused, and false otherwise."
      },
      "renounceOwnership()": {
        "details": "Leaves the contract without owner. It will not be possible to call `onlyOwner` functions anymore. Can only be called by the current owner.     * > Note: Renouncing ownership will leave the contract without an owner, thereby removing any functionality that is only available to the owner."
      },
      "setAToken(address)": {
        "params": {
          "_aToken": ": new aToken address"
        }
      },
      "setAllAvailableTokensAndWrappers(address[],address[],address[],address[])": {
        "params": {
          "_newGovTokens": ": array of governance token addresses",
          "_newGovTokensEqualLen": ": array of governance token addresses for each protocolToken (addr0 should be used for protocols with no govToken)",
          "protocolTokens": ": array of protocolTokens addresses (eg [cDAI, iDAI, ...])",
          "wrappers": ": array of wrapper addresses (eg [DistCompound, DistFulcrum, ...])"
        }
      },
      "setAllocations(uint256[])": {
        "params": {
          "_allocations": ": array with allocations in percentages (100% => 100000)"
        }
      },
      "setCToken(address)": {
        "params": {
          "_cToken": ": new cToken address"
        }
      },
      "setFee(uint256)": {
        "params": {
          "_fee": ": fee amount where 100000 is 100%, max settable is 10%"
        }
      },
      "setFeeAddress(address)": {
        "params": {
          "_feeAddress": ": fee address"
        }
      },
      "setMaxUnlentPerc(uint256)": {
        "params": {
          "_perc": ": max unlent perc where 100000 is 100%"
        }
      },
      "setOracleAddress(address)": {
        "params": {
          "_oracle": ": new oracle address"
        }
      },
      "setRebalancer(address)": {
        "params": {
          "_rebalancer": ": new DistRebalancerV3_1 address"
        }
      },
      "setTokenHelper(address)": {
        "params": {
          "_tokenHelper": ": new tokenHelper address"
        }
      },
      "symbol()": {
        "details": "Returns the symbol of the token, usually a shorter version of the name."
      },
      "totalSupply()": {
        "details": "See {IERC20-totalSupply}."
      },
      "transfer(address,uint256)": {
        "details": "See {IERC20-transfer}.     * Requirements:     * - `recipient` cannot be the zero address. - the caller must have a balance of at least `amount`."
      },
      "transferFrom(address,address,uint256)": {
        "details": "See {IERC20-transferFrom}.     * Emits an {Approval} event indicating the updated allowance. This is not required by the EIP. See the note at the beginning of {ERC20};     * Requirements: - `sender` and `recipient` cannot be the zero address. - `sender` must have a balance of at least `amount`. - the caller must have allowance for `sender`'s tokens of at least `amount`."
      },
      "transferOwnership(address)": {
        "details": "Transfers ownership of the contract to a new account (`newOwner`). Can only be called by the current owner."
      },
      "unpause()": {
        "details": "Called by a pauser to unpause, returns to normal state."
      }
    }
  },
  "userdoc": {
    "methods": {
      "getAllAvailableTokens()": {
        "notice": "Get currently used protocol tokens (cDAI, aDAI, ...) "
      },
      "getAllocations()": {
        "notice": "Get latest allocations submitted by rebalancer "
      },
      "getGovTokens()": {
        "notice": "Get currently used gov tokens "
      },
      "getProtocolTokenToGov(address)": {
        "notice": "Get gov token associated to a protocol token eg protocolTokenToGov[cDAI] = COMP "
      },
      "setAToken(address)": {
        "notice": "It allows owner to set the aToken address "
      },
      "setAllAvailableTokensAndWrappers(address[],address[],address[],address[])": {
        "notice": "It allows owner to modify allAvailableTokens array in case of emergency ie if a bug on a interest bearing token is discovered and reset protocolWrappers associated with those tokens. "
      },
      "setAllocations(uint256[])": {
        "notice": "Used by Rebalancer to set the new allocations "
      },
      "setCToken(address)": {
        "notice": "It allows owner to set the cToken address "
      },
      "setFee(uint256)": {
        "notice": "It allows owner to set the fee (1000 == 10% of gained interest) "
      },
      "setFeeAddress(address)": {
        "notice": "It allows owner to set the fee address "
      },
      "setMaxUnlentPerc(uint256)": {
        "notice": "It allows owner to set the max unlent asset percentage (1000 == 1% of unlent asset max) "
      },
      "setOracleAddress(address)": {
        "notice": "It allows owner to set the oracle address for getting avgAPR "
      },
      "setRebalancer(address)": {
        "notice": "It allows owner to set the DistRebalancerV3_1 address "
      },
      "setTokenHelper(address)": {
        "notice": "It allows owner to set the tokenHelper address "
      }
    }
  }
}