{
  "contractName": "DistRebalancer",
  "abi": [
    {
      "inputs": [
        {
          "internalType": "address[]",
          "name": "_protocolTokens",
          "type": "address[]"
        },
        {
          "internalType": "address",
          "name": "_rebalancerManager",
          "type": "address"
        }
      ],
      "payable": false,
      "stateMutability": "nonpayable",
      "type": "constructor"
    },
    {
      "anonymous": false,
      "inputs": [
        {
          "indexed": true,
          "internalType": "address",
          "name": "previousOwner",
          "type": "address"
        },
        {
          "indexed": true,
          "internalType": "address",
          "name": "newOwner",
          "type": "address"
        }
      ],
      "name": "OwnershipTransferred",
      "type": "event"
    },
    {
      "constant": true,
      "inputs": [],
      "name": "distToken",
      "outputs": [
        {
          "internalType": "address",
          "name": "",
          "type": "address"
        }
      ],
      "payable": false,
      "stateMutability": "view",
      "type": "function"
    },
    {
      "constant": true,
      "inputs": [],
      "name": "isOwner",
      "outputs": [
        {
          "internalType": "bool",
          "name": "",
          "type": "bool"
        }
      ],
      "payable": false,
      "stateMutability": "view",
      "type": "function"
    },
    {
      "constant": true,
      "inputs": [
        {
          "internalType": "uint256",
          "name": "",
          "type": "uint256"
        }
      ],
      "name": "lastAmounts",
      "outputs": [
        {
          "internalType": "uint256",
          "name": "",
          "type": "uint256"
        }
      ],
      "payable": false,
      "stateMutability": "view",
      "type": "function"
    },
    {
      "constant": true,
      "inputs": [
        {
          "internalType": "uint256",
          "name": "",
          "type": "uint256"
        }
      ],
      "name": "lastAmountsAddresses",
      "outputs": [
        {
          "internalType": "address",
          "name": "",
          "type": "address"
        }
      ],
      "payable": false,
      "stateMutability": "view",
      "type": "function"
    },
    {
      "constant": true,
      "inputs": [],
      "name": "owner",
      "outputs": [
        {
          "internalType": "address",
          "name": "",
          "type": "address"
        }
      ],
      "payable": false,
      "stateMutability": "view",
      "type": "function"
    },
    {
      "constant": true,
      "inputs": [],
      "name": "rebalancerManager",
      "outputs": [
        {
          "internalType": "address",
          "name": "",
          "type": "address"
        }
      ],
      "payable": false,
      "stateMutability": "view",
      "type": "function"
    },
    {
      "constant": false,
      "inputs": [],
      "name": "renounceOwnership",
      "outputs": [],
      "payable": false,
      "stateMutability": "nonpayable",
      "type": "function"
    },
    {
      "constant": false,
      "inputs": [
        {
          "internalType": "address",
          "name": "newOwner",
          "type": "address"
        }
      ],
      "name": "transferOwnership",
      "outputs": [],
      "payable": false,
      "stateMutability": "nonpayable",
      "type": "function"
    },
    {
      "constant": false,
      "inputs": [
        {
          "internalType": "address",
          "name": "_rebalancerManager",
          "type": "address"
        }
      ],
      "name": "setRebalancerManager",
      "outputs": [],
      "payable": false,
      "stateMutability": "nonpayable",
      "type": "function"
    },
    {
      "constant": false,
      "inputs": [
        {
          "internalType": "address",
          "name": "_distToken",
          "type": "address"
        }
      ],
      "name": "setDistToken",
      "outputs": [],
      "payable": false,
      "stateMutability": "nonpayable",
      "type": "function"
    },
    {
      "constant": false,
      "inputs": [
        {
          "internalType": "address",
          "name": "_newToken",
          "type": "address"
        }
      ],
      "name": "setNewToken",
      "outputs": [],
      "payable": false,
      "stateMutability": "nonpayable",
      "type": "function"
    },
    {
      "constant": false,
      "inputs": [
        {
          "internalType": "uint256[]",
          "name": "_allocations",
          "type": "uint256[]"
        },
        {
          "internalType": "address[]",
          "name": "_addresses",
          "type": "address[]"
        }
      ],
      "name": "setAllocations",
      "outputs": [],
      "payable": false,
      "stateMutability": "nonpayable",
      "type": "function"
    },
    {
      "constant": true,
      "inputs": [],
      "name": "getAllocations",
      "outputs": [
        {
          "internalType": "uint256[]",
          "name": "_allocations",
          "type": "uint256[]"
        }
      ],
      "payable": false,
      "stateMutability": "view",
      "type": "function"
    },
    {
      "constant": true,
      "inputs": [],
      "name": "getAllocationsLength",
      "outputs": [
        {
          "internalType": "uint256",
          "name": "",
          "type": "uint256"
        }
      ],
      "payable": false,
      "stateMutability": "view",
      "type": "function"
    }
  ],
  "bytecode": "0x60806040523480156200001157600080fd5b50604051620010a8380380620010a8833981810160405260408110156200003757600080fd5b81019080805160405193929190846401000000008211156200005857600080fd5b9083019060208201858111156200006e57600080fd5b82518660208202830111640100000000821117156200008c57600080fd5b82525081516020918201928201910280838360005b83811015620000bb578181015183820152602001620000a1565b50505050919091016040525060200151915060009050620000e46001600160e01b036200036916565b600080546001600160a01b0319166001600160a01b0383169081178255604051929350917f8be0079c531659141344cd1fd0a4f28419497f9722a3daafe3b4186f6b6457e0908290a3506001600160a01b0381166200017e576040805162461bcd60e51b815260206004820152601160248201527006d616e616765722061646472206973203607c1b604482015290519081900360640190fd5b600380546001600160a01b0319166001600160a01b0383161790558151604080518281526020808402820101909152908015620001c5578160200160208202803883390190505b508051620001dc916001916020909101906200036e565b50815160405190808252806020026020018201604052801562000209578160200160208202803883390190505b5080516200022091600291602090910190620003be565b50620186a060016000815481106200023457fe5b9060005260206000200181905550816000815181106200025057fe5b602002602001015160026000815481106200026757fe5b600091825260209091200180546001600160a01b0319166001600160a01b039290921691909117905560015b8251811015620003605760006001600160a01b0316838281518110620002b557fe5b60200260200101516001600160a01b031614156200030b576040805162461bcd60e51b815260206004820152600e60248201526d0736f6d65206164647220697320360941b604482015290519081900360640190fd5b8281815181106200031857fe5b6020026020010151600282815481106200032e57fe5b600091825260209091200180546001600160a01b0319166001600160a01b039290921691909117905560010162000293565b50505062000468565b335b90565b828054828255906000526020600020908101928215620003ac579160200282015b82811115620003ac5782518255916020019190600101906200038f565b50620003ba92915062000424565b5090565b82805482825590600052602060002090810192821562000416579160200282015b828111156200041657825182546001600160a01b0319166001600160a01b03909116178255602090920191600190910190620003df565b50620003ba92915062000441565b6200036b91905b80821115620003ba57600081556001016200042b565b6200036b91905b80821115620003ba5780546001600160a01b031916815560010162000448565b610c3080620004786000396000f3fe608060405234801561001057600080fd5b50600436106100ba5760003560e01c80631b12fede146100bf5780633c4db093146100e357806356824406146100eb5780635ed411e51461010857806365ed6e2314610130578063715018a6146101885780638da5cb5b146101905780638f32d59b1461019857806390fa4933146101b4578063ae773c10146101ce578063b11db6251461028c578063dd8319f6146102a9578063e6a77720146102cf578063f2fde38b146102f5575b600080fd5b6100c761031b565b604080516001600160a01b039092168252519081900360200190f35b6100c761032a565b6100c76004803603602081101561010157600080fd5b5035610339565b61012e6004803603602081101561011e57600080fd5b50356001600160a01b0316610360565b005b6101386104c5565b60408051602080825283518183015283519192839290830191858101910280838360005b8381101561017457818101518382015260200161015c565b505050509050019250505060405180910390f35b61012e61051d565b6100c761059c565b6101a06105ab565b604080519115158252519081900360200190f35b6101bc6105cf565b60408051918252519081900360200190f35b61012e600480360360408110156101e457600080fd5b810190602081018135600160201b8111156101fe57600080fd5b82018360208201111561021057600080fd5b803590602001918460208302840111600160201b8311171561023157600080fd5b919390929091602081019035600160201b81111561024e57600080fd5b82018360208201111561026057600080fd5b803590602001918460208302840111600160201b8311171561028157600080fd5b5090925090506105d5565b6101bc600480360360208110156102a257600080fd5b503561080f565b61012e600480360360208110156102bf57600080fd5b50356001600160a01b031661082d565b61012e600480360360208110156102e557600080fd5b50356001600160a01b0316610943565b61012e6004803603602081101561030b57600080fd5b50356001600160a01b0316610a06565b6004546001600160a01b031681565b6003546001600160a01b031681565b6002818154811061034657fe5b6000918252602090912001546001600160a01b0316905081565b6103686105ab565b6103a7576040805162461bcd60e51b81526020600482018190526024820152600080516020610bbc833981519152604482015290519081900360640190fd5b6001600160a01b0381166103fd576040805162461bcd60e51b815260206004820152601860248201527704e657720746f6b656e2073686f756c6420626520213d20360441b604482015290519081900360640190fd5b60005b60025481101561044a57816001600160a01b03166002828154811061042157fe5b6000918252602090912001546001600160a01b0316141561044257506104c2565b600101610400565b506002805460018082019092557f405787fa12a823e0f2b7631cc41b3ba8828b3321ca811111fa75cd3aa3bb5ace0180546001600160a01b0319166001600160a01b0384161790558054808201825560009182527fb10e2d527612073b26eecdfd717e6a320cf44b4afac2b0732d9fcbe2b7fa0cf601555b50565b6060600180548060200260200160405190810160405280929190818152602001828054801561051357602002820191906000526020600020905b8154815260200190600101908083116104ff575b5050505050905090565b6105256105ab565b610564576040805162461bcd60e51b81526020600482018190526024820152600080516020610bbc833981519152604482015290519081900360640190fd5b600080546040516001600160a01b0390911690600080516020610bdc833981519152908390a3600080546001600160a01b0319169055565b6000546001600160a01b031690565b600080546001600160a01b03166105c0610a56565b6001600160a01b031614905090565b60015490565b6003546001600160a01b03163314806105f857506004546001600160a01b031633145b610643576040805162461bcd60e51b815260206004820152601760248201527613db9b1e481c9958985b1858d95c88185b9908111a5cdd604a1b604482015290519081900360640190fd5b60015483146106835760405162461bcd60e51b8152600401808060200182810382526028815260200180610b946028913960400191505060405180910390fd5b8281146106c15760405162461bcd60e51b8152600401808060200182810382526026815260200180610b6e6026913960400191505060405180910390fd5b6000805b848110156107ba57600281815481106106da57fe5b6000918252602090912001546001600160a01b03168484838181106106fb57fe5b905060200201356001600160a01b03166001600160a01b03161461075f576040805162461bcd60e51b8152602060048201526016602482015275082c8c8e4cae6e6cae640c8de40dcdee840dac2e8c6d60531b604482015290519081900360640190fd5b61078486868381811061076e57fe5b9050602002013583610a5a90919063ffffffff16565b915085858281811061079257fe5b90506020020135600182815481106107a657fe5b6000918252602090912001556001016106c5565b50620186a08114610808576040805162461bcd60e51b81526020600482015260136024820152724e6f7420616c6c6f636174696e67203130302560681b604482015290519081900360640190fd5b5050505050565b6001818154811061081c57fe5b600091825260209091200154905081565b6108356105ab565b610874576040805162461bcd60e51b81526020600482018190526024820152600080516020610bbc833981519152604482015290519081900360640190fd5b6004546001600160a01b0316156108cf576040805162461bcd60e51b815260206004820152601a602482015279191a5cdd151bdad95b881859191c88185b1c9958591e481cd95d60321b604482015290519081900360640190fd5b6001600160a01b038116610921576040805162461bcd60e51b815260206004820152601460248201527305f64697374546f6b656e206164647220697320360641b604482015290519081900360640190fd5b600480546001600160a01b0319166001600160a01b0392909216919091179055565b61094b6105ab565b61098a576040805162461bcd60e51b81526020600482018190526024820152600080516020610bbc833981519152604482015290519081900360640190fd5b6001600160a01b0381166109e4576040805162461bcd60e51b815260206004820152601c60248201527b05f726562616c616e6365724d616e61676572206164647220697320360241b604482015290519081900360640190fd5b600380546001600160a01b0319166001600160a01b0392909216919091179055565b610a0e6105ab565b610a4d576040805162461bcd60e51b81526020600482018190526024820152600080516020610bbc833981519152604482015290519081900360640190fd5b6104c281610ab9565b3390565b600082820183811015610ab2576040805162461bcd60e51b815260206004820152601b60248201527a536166654d6174683a206164646974696f6e206f766572666c6f7760281b604482015290519081900360640190fd5b9392505050565b6001600160a01b038116610afe5760405162461bcd60e51b8152600401808060200182810382526026815260200180610b486026913960400191505060405180910390fd5b600080546040516001600160a01b0380851693921691600080516020610bdc83398151915291a3600080546001600160a01b0319166001600160a01b039290921691909117905556fe4f776e61626c653a206e6577206f776e657220697320746865207a65726f2061646472657373416c6c6f63206c656e677468732061726520646966666572656e742c20616464726573736573416c6c6f63206c656e677468732061726520646966666572656e742c20616c6c6f636174696f6e734f776e61626c653a2063616c6c6572206973206e6f7420746865206f776e65728be0079c531659141344cd1fd0a4f28419497f9722a3daafe3b4186f6b6457e0a265627a7a723158208cfff52076efd237bf881c02028d27025c35d2a2d53403c5dbde9f6cd8c6784364736f6c63430005100032",
  "source": "/**\r\n * @title: Dist Rebalancer contract\r\n * @summary: Used for calculating amounts to lend on each implemented protocol.\r\n *           This implementation works with Compound and Fulcrum only,\r\n *           when a new protocol will be added this should be replaced\r\n * @author: Dissident Labs Inc., dissident.finance\r\n */\r\npragma solidity 0.5.16;\r\n\r\nimport \"./interfaces/IDistRebalancerV1.sol\";\r\n\r\nimport \"@openzeppelin/contracts/ownership/Ownable.sol\";\r\nimport \"@openzeppelin/contracts/math/SafeMath.sol\";\r\n\r\ncontract DistRebalancer is IDistRebalancerV1, Ownable {\r\n    using SafeMath for uint256;\r\n    uint256[] public lastAmounts;\r\n    address[] public lastAmountsAddresses;\r\n    address public rebalancerManager;\r\n    address public distToken;\r\n    uint256 private constant MAX_PERC = 100000;\r\n\r\n    /**\r\n    * @param _protocolTokens : array of interest bearing tokens\r\n    * @param _rebalancerManager : rebalancerManager address\r\n    */\r\n\r\n    constructor(address[] memory _protocolTokens, address _rebalancerManager) public {\r\n        require(_rebalancerManager != address(0), 'manager addr is 0');\r\n        rebalancerManager = _rebalancerManager;\r\n        lastAmounts = new uint256[](_protocolTokens.length);\r\n        lastAmountsAddresses = new address[](_protocolTokens.length);\r\n\r\n        lastAmounts[0] = MAX_PERC;\r\n        lastAmountsAddresses[0] = _protocolTokens[0];\r\n        for(uint256 i = 1; i < _protocolTokens.length; i++) {\r\n            require(_protocolTokens[i] != address(0), 'some addr is 0');\r\n            // Initially 100% on first lending protocol\r\n            lastAmountsAddresses[i] = _protocolTokens[i];\r\n        }\r\n    }\r\n\r\n    /**\r\n    * Throws if called by any account other than rebalancerManager.\r\n    */\r\n    modifier onlyRebalancerAndDist() {\r\n        require(msg.sender == rebalancerManager || msg.sender == distToken, \"Only rebalacer and Dist\");\r\n        _;\r\n    }\r\n\r\n    /**\r\n    * It allows owner to set the allowed rebalancer address\r\n    *\r\n    * @param _rebalancerManager : rebalance manager address\r\n    */\r\n    function setRebalancerManager(address _rebalancerManager)\r\n        external onlyOwner {\r\n            require(_rebalancerManager != address(0), \"_rebalancerManager addr is 0\");\r\n\r\n            rebalancerManager = _rebalancerManager;\r\n    }\r\n\r\n    function setDistToken(address _distToken)\r\n        external onlyOwner {\r\n            require(distToken == address(0), \"distToken addr already set\");\r\n            require(_distToken != address(0), \"_distToken addr is 0\");\r\n            distToken = _distToken;\r\n    }\r\n\r\n    /**\r\n    * It adds a new token address to lastAmountsAddresses list\r\n    *\r\n    * @param _newToken : new interest bearing token address\r\n    */\r\n    function setNewToken(address _newToken)\r\n        external onlyOwner {\r\n        require(_newToken != address(0), \"New token should be != 0\");\r\n        for (uint256 i = 0; i < lastAmountsAddresses.length; i++) {\r\n            if (lastAmountsAddresses[i] == _newToken) {\r\n                return;\r\n            }\r\n        }\r\n\r\n        lastAmountsAddresses.push(_newToken);\r\n        lastAmounts.push(0);\r\n    }\r\n    // end onlyOwner\r\n\r\n    /**\r\n    * Used by Rebalance manager to set the new allocations\r\n    *\r\n    * @param _allocations : array with allocations in percentages (100% => MAX_PERC)\r\n    * @param _addresses : array with addresses of tokens used, should be equal to lastAmountsAddresses\r\n    */\r\n    function setAllocations(uint256[] calldata _allocations, address[] calldata _addresses)\r\n        external onlyRebalancerAndDist\r\n    {\r\n        require(_allocations.length == lastAmounts.length, \"Alloc lengths are different, allocations\");\r\n        require(_allocations.length == _addresses.length, \"Alloc lengths are different, addresses\");\r\n\r\n        uint256 total;\r\n        for (uint256 i = 0; i < _allocations.length; i++) {\r\n            require(_addresses[i] == lastAmountsAddresses[i], \"Addresses do not match\");\r\n            total = total.add(_allocations[i]);\r\n            lastAmounts[i] = _allocations[i];\r\n        }\r\n        require(total == MAX_PERC, \"Not allocating 100%\");\r\n    }\r\n\r\n    function getAllocations()\r\n        external view returns (uint256[] memory _allocations) {\r\n        return lastAmounts;\r\n    }\r\n\r\n    function getAllocationsLength()\r\n        external view returns (uint256) {\r\n        return lastAmounts.length;\r\n    }\r\n\r\n}",
  "sourcePath": "C:\\Users\\Akanimoh Osutuk\\Documents\\Personal\\dissident\\dissident-contracts\\contracts\\DistRebalancer.sol",
  "compiler": {
    "name": "solc",
    "version": "0.5.16+commit.9c3226ce.Emscripten.clang"
  },
  "schemaVersion": "3.4.3",
  "updatedAt": "2022-01-20T13:05:28.202Z",
  "devdoc": {
    "methods": {
      "constructor": {
        "params": {
          "_protocolTokens": ": array of interest bearing tokens",
          "_rebalancerManager": ": rebalancerManager address"
        }
      },
      "isOwner()": {
        "details": "Returns true if the caller is the current owner."
      },
      "owner()": {
        "details": "Returns the address of the current owner."
      },
      "renounceOwnership()": {
        "details": "Leaves the contract without owner. It will not be possible to call `onlyOwner` functions anymore. Can only be called by the current owner.     * NOTE: Renouncing ownership will leave the contract without an owner, thereby removing any functionality that is only available to the owner."
      },
      "setAllocations(uint256[],address[])": {
        "params": {
          "_addresses": ": array with addresses of tokens used, should be equal to lastAmountsAddresses",
          "_allocations": ": array with allocations in percentages (100% => MAX_PERC)"
        }
      },
      "setNewToken(address)": {
        "params": {
          "_newToken": ": new interest bearing token address"
        }
      },
      "setRebalancerManager(address)": {
        "params": {
          "_rebalancerManager": ": rebalance manager address"
        }
      },
      "transferOwnership(address)": {
        "details": "Transfers ownership of the contract to a new account (`newOwner`). Can only be called by the current owner."
      }
    }
  },
  "userdoc": {
    "methods": {
      "setAllocations(uint256[],address[])": {
        "notice": "Used by Rebalance manager to set the new allocations "
      },
      "setNewToken(address)": {
        "notice": "It adds a new token address to lastAmountsAddresses list "
      },
      "setRebalancerManager(address)": {
        "notice": "It allows owner to set the allowed rebalancer address "
      }
    }
  }
}